:020000040800F2
:10000000D8060020CD0100084B0E00086B0D00083B
:10001000490E0008E9020008611200080000000013
:100020000000000000000000000000003D0F00087C
:10003000EB020008000000004D0E00083F0F000812
:10004000E7010008E7010008E7010008E7010008F0
:10005000E7010008E7010008E7010008E7010008E0
:10006000E7010008E7010008E7010008E7010008D0
:10007000E7010008E7010008E7010008E7010008C0
:10008000E7010008E7010008E7010008E7010008B0
:10009000E7010008E7010008E7010008E7010008A0
:1000A000E7010008E7010008E7010008E701000890
:1000B000E7010008E7010008E7010008E701000880
:1000C000E7010008E7010008E7010008E701000870
:1000D000E7010008E7010008E7010008E701000860
:1000E000E7010008E7010008E7010008E701000850
:1000F000E7010008E7010008E7010008E701000840
:10010000E7010008E7010008E7010008E70100082F
:10011000E7010008E7010008E7010008E70100081F
:10012000E7010008E7010008E7010008E70100080F
:1001300000F002F800F03AF80AA090E8000C8244BF
:100140008344AAF10107DA4501D100F02FF8AFF29C
:10015000090EBAE80F0013F0010F18BFFB1A43F0A5
:1001600001031847A8120000C8120000103A24BF6B
:1001700078C878C1FAD8520724BF30C830C144BF0C
:1001800004680C607047000000230024002500264E
:10019000103A28BF78C1FBD8520728BF30C148BFEA
:1001A0000B6070471FB51FBD10B510BD00F058F8AB
:1001B0001146FFF7F7FF01F0E6F800F076F803B418
:1001C000FFF7F2FF03BC00F07DF80000094880470C
:1001D00009480047FEE7FEE7FEE7FEE7FEE7FEE729
:1001E000FEE7FEE7FEE7FEE704480549054A064B41
:1001F000704700009F0F000831010008D800002060
:10020000D8060020D8020020D80200204FF00002BB
:1002100000B5134694469646203922BFA0E80C50FC
:10022000A0E80C50B1F12001BFF4F7AF090728BFD7
:10023000A0E80C5048BF0CC05DF804EB890028BF53
:1002400040F8042B08BF704748BF20F8022B11F07C
:10025000804F18BF00F8012B7047704770477047F8
:10026000754600F02BF8AE4605006946534620F06F
:100270000700854618B020B5FFF7B6FFBDE820405F
:100280004FF000064FF000074FF000084FF0000B52
:1002900021F00701AC46ACE8C009ACE8C009ACE805
:1002A000C009ACE8C0098D46704710B50446AFF3ED
:1002B00000802046BDE81040FFF781BF004870472E
:1002C0007800002001491820ABBEFEE7260002009E
:1002D0007047000010B5034800F09EFFBDE81040D5
:1002E00000F090BEF0130008FEE7704772B6FEE71C
:1002F00070B5044600F00CF90546601C02D00448B5
:100300000078044400F004F9401BA042FAD370BD09
:10031000000000202DE9F84FDFF8C0910024A9F17A
:10032000040B23464FF00F0809F1040AABF1040E49
:10033000CCE00127A7403A40BA4272D1DFF8A0C111
:100340004D68A5EB0C0665452BD00DDC032D34D094
:1003500005DC35B3012D19D0022D2FD11BE0112D55
:1003600016D0122D2AD119E0B6F5881F19D006DC57
:10037000B6F5803F15D0B6F5801F1FD111E0B6F558
:10038000001F0ED0B6F5041F18D10AE0CB6815E0A7
:10039000CB681B1D12E0CB6808330FE0CB680C3331
:1003A0000CE08B682BB1012B4FF0080303D04761A1
:1003B00004E0042302E0076100E00023FF2A01D8E3
:1003C000064601E000F104064FEA840501D9A5F1D3
:1003D0002005376808FA05FC27EA0C0703FA05F53B
:1003E00047EA050737604D68ED006ED53D4DAE69B3
:1003F00046F00106AE61AD6924F0030605F0010583
:100400000095394D7719BE68A5072D0F08FA05FC30
:1004100026EA0C06DFF8D4C0604503D14FF0000C8B
:1004200025E052E0DFF8C8C0604502D14FF0010C72
:100430001DE0DFF8C0C0604502D14FF0020C16E0AD
:10044000DFF8B4C0604502D14FF0030C0FE0DFF8D5
:10045000ACC0604502D14FF0040C08E0DFF8A0C04A
:10046000604502D14FF0050C01E04FF0060C0CFA8C
:1004700005FC4CEA060CC7F808C04D68D9F80060C6
:10048000ED024D4601D5164300E096432E604D68BF
:10049000DAF80060AD02554601D5164300E09643F8
:1004A0002E604D68DBF80060AD035D4601D5164354
:1004B00000E096432E604D68DEF80060ED0375465F
:1004C00001D5164300E096432E60641C0A6832FA98
:1004D00004F57FF42EAFBDE8F88F0000080401405A
:1004E000000011100010024000000140000801400F
:1004F000000C0140001001400014014000180140B0
:10050000001C01400AB1016170470904FBE70000CB
:1005100001488068704700000000002002488168A0
:10052000027811448160704700000020074810B530
:10053000016841F010010160032000F067F80F200E
:1005400000F006F800F024F8002010BD0020024062
:1005500070B50D4D04464FF47A712878B1FBF0F078
:100560000A490968B1FBF0F000F0EBFB48B9102C28
:1005700007D200222146501E00F028F800206C60AF
:1005800070BD012070BD0000000000200C000020A4
:100590000C4808B5816941F001018161816901F070
:1005A00001010091C16941F08051C161C0690649F2
:1005B00000F080500090486820F0E06040F000704B
:1005C000486008BD0010024000000140F0B40E4B2E
:1005D0001B68C3F30223C3F10704042C00D90424CD
:1005E0001D1D072D01D2002300E0DB1E012606FAA7
:1005F00004F56D1E0D409D409E40761E164045EA56
:100600000601F0BC00F0AFBE0CED00E0064A00F0C1
:10061000070110684FF6FF03184040EA0120034924
:1006200008431060704700000CED00E00000FA0580
:100630002DE9F0470D46040067D0DFF81881D8F89F
:10064000000000F00700A8420CD2D8F8001021F0FA
:1006500007012943C8F80010D8F8000000F007008F
:10066000A84252D120683C4E810712D5400703D5DD
:10067000706840F4E06070602078000703D570680F
:1006800040F4605070607068A16820F0F00008438A
:1006900070602078C00727D06068012810D03168CA
:1006A000022810D0890700292FDA716821F0030190
:1006B00001437160FFF72CFF074641F288390CE0D7
:1006C00031688903EFE78901EDE7FFF721FFC11BDF
:1006D000494502D90320BDE8F0877068616800F0E1
:1006E0000C00B0EB810FF0D1D8F80010404601F0BB
:1006F0000701A9420BD9016821F0070129430160D4
:10070000006800F00700A84201D00120E3E720784C
:10071000400705D57068E16820F4E0600843706028
:100720002078000706D57068216920F4605040EAFF
:10073000C100706000F018F87168084AC1F3031135
:10074000515CC8400649086006480068FFF700FF92
:100750000020C0E70020024000100240DE13000825
:100760000C000020040000200E4B59680E4801F0D8
:100770000C02042A11D0082A0FD10C48C1F383427D
:10078000C903805C0AD55968084AC1F34041921EEA
:10079000515C054A5043B0FBF1F0704704494843AF
:1007A000704700000010024000127A00CE130008CB
:1007B00000093D002DE9F84F04006FD02078BE4DB0
:1007C000C00747D06868C0F38100012807D0686877
:1007D000C0F38100022809D16868C00306D52868E3
:1007E000800337D560680028E7D033E06068B0F553
:1007F000803F0BD010B1B0F5A02F11D0286820F4A5
:1008000080302860286820F4802002E0286840F4C6
:1008100080302860606888B1FFF77AFE064609E0FC
:10082000286840F480202860F0E7FFF771FE801B05
:10083000642873D828688003F7D50BE0FFF768FEBB
:10084000064604E0FFF764FE801B6428F1D82868A0
:100850008003F7D42078DFF8648280074FF0010A24
:100860004FF0000939D5686810F00C0F07D06868A0
:10087000C0F38100022809D16868C00306D4286843
:10088000800714D52069012808D110E02069B0B193
:10089000C8F800A0FFF73CFE064605E007E1FFF7B9
:1008A00037FE801B0228C4D828688007F7D528683F
:1008B000616920F0F80040EAC10028600DE0C8F846
:1008C0000090FFF725FE064604E0FFF721FE801B9F
:1008D000022823D828688007F7D4207800072CD571
:1008E0007748A169D9B1C0F800A0FFF711FE06460C
:1008F00004E0FFF70DFE801B02280FD8686A80070E
:10090000F7D570484FF4FA510068B0FBF1F0009051
:1009100000BF0098411E0091FAD20EE07CE0C0F8C2
:100920000090FFF7F5FD064604E0FFF7F1FD801BA0
:10093000022871D8686A8007F7D4207840075BD511
:10094000E8690027C00008D4E86940F08050E861F9
:10095000E869012700F0805000905B480168C905F4
:1009600011D40168834641F480710160FFF7D0FD26
:10097000064604E0FFF7CCFD801B64284CD8DBF86A
:100980000000C005F6D5E06801280AD008B10528A6
:1009900013D0286A20F001002862286A20F00400A1
:1009A00002E0286A40F001002862E06841F2883BDA
:1009B00088B1FFF7ADFD064609E0286A40F0040063
:1009C0002862EEE7FFF7A4FD811B59455BD8286A32
:1009D0008007F7D50BE0FFF79BFD064604E0FFF725
:1009E00097FD811B59454ED8286A8007F7D41FB15F
:1009F000E86920F08050E861E069A8B36968C1F354
:100A00008101022946D00228484606D0C8F8600075
:100A1000FFF77EFD044639E035E04746C8F8600040
:100A2000FFF776FD064604E0FFF772FD801B022803
:100A300029D828688001F7D4206AB0F5803F05D115
:100A40006868A16820F4003008436860D4E90801B0
:100A50000843696821F4741108436860C7F860A00E
:100A6000FFF756FD044605E023E0FFF751FD001BAC
:100A7000022808D828688001F7D51AE0FFF748FD5A
:100A8000001B022802D90320BDE8F88F28688001E6
:100A9000F4D40EE00128F7D06868226A00F48031AF
:100AA000914204D1616A00F47010884201D00120A3
:100AB000EAE70020E8E700000010024000004242A0
:100AC000800442420C0000200070004070B5040019
:100AD00009D0606A002540B125616561A56294F87E
:100AE000510040B10CE0012070BD6068B0F5827F1C
:100AF000F4D0E561F2E784F85050204600F040F869
:100B0000022084F851002068016821F04001016052
:100B1000A088218900F4827001F404410843A1896E
:100B200001F400610843217C01F002010843217DAA
:100B300001F001010843218B01F400710843217F7A
:100B400001F03801084394F8201001F080010843B7
:100B5000218D01F40051084321680860A069042137
:100B600001EA1040216848602068C16921F40061F1
:100B7000C1616565012084F85100002070BD00004E
:100B800000B585B0002100910191029103910068A8
:100B90000F4988421AD10F48816941F4805181611F
:100BA000816901F480510491816941F004018161FE
:100BB0008069694600F004000490A02000900220A3
:100BC0000190032003900448FFF7A4FB05B000BD8B
:100BD0000030014000100240000801402DE9F84FAC
:100BE0001D4617468A460446FFF792FC064694F8CF
:100BF0005100012826D1BAF1000F77D0002F75D00F
:100C000094F8500001281DD04FF0010984F850904D
:100C1000032084F851004FF00008C4F85480C4F851
:100C200030A0A786E786C4F83880A4F83C80A4F8F2
:100C30003E80C4F84480C4F84080A068B0F5004FFE
:100C400003D00CE00220BDE8F88F2068016821F095
:100C5000400101602068016841F480410160206822
:100C60000168490603D4016841F040010160E06871
:100C7000B0F5006F606803D028B3012F23D03FE0A8
:100C800008B1012F1BD1206B21680088C86006E0E5
:100C900020688168890709D5216B0988C160206BAC
:100CA000801C2063E08E401EE08608E0FFF730FCE9
:100CB000801BA84202D3681C01D02FE075B3E08EE0
:100CC0000028E5D11FE0206B21680078087306E05A
:100CD0002068816889070AD5216B09780173206B28
:100CE000401C2063E08E401EE08609E027E0FFF70D
:100CF0000FFC801BA84202D3681C01D00EE06DB12E
:100D0000E08E0028E4D132462946204600F09FF8C4
:100D100008B120206065A06830B109E084F85190E6
:100D200084F8508003208EE72068C16880680090B6
:100D300084F8519084F85080606D002883D00120A1
:100D400081E710B5401EB0F1807F01D3012010BDB6
:100D50004FF0E02460610F21601700F004FB0020D9
:100D6000A06107202061002010BDFEE72DE9F041C1
:100D700086B000241F480094019402940394816972
:100D800041F004018161816901F0040104918169EC
:100D900041F010018161816901F0100104918169C4
:100DA00041F0080181618069134F00F00800049050
:100DB000002230213846FFF7A5FBDFF840800022F3
:100DC00001214046FFF79EFB302001250226CDE998
:100DD0000005CDE9024669463846FFF79BFA0396BF
:100DE0000095CDE9015469464046FFF793FA06B0F5
:100DF000BDE8F0810010024000100140000C0140ED
:100E0000104810B50E4901604FF482714160002115
:100E10008160C1604FF400720161C0E905120822CF
:100E2000C0E90721416281620A21C162FFF74EFEDB
:100E3000002803D0BDE81040FFF758BA10BD0000ED
:100E40000030014020000020FEE7FEE77047F8B5C3
:100E500015460E460B46009204460122022100F080
:100E600011F840B93346002280212046009500F059
:100E700009F8002804D0606D40F020006065032070
:100E8000F8BD00002DE9F8431E4691468846044609
:100E9000089DFFF73DFB401B351AFFF739FB07465E
:100EA00025480068C0F3CB30684338E0701C37D069
:100EB000FFF72EFBC01BA84203D215B1009860B308
:100EC0002CE02068416821F0E00141606068B0F5E5
:100ED000827F0BD1A068B0F5004F02D0B0F5806FD3
:100EE00004D12068016821F040010160A06AB0F5DA
:100EF000005F09D12068016821F400510160206879
:100F0000016841F400510160012084F85100002083
:100F100084F850000320BDE8F8830025401E0090AF
:100F20002068816838EA010004D000204845BDD11E
:100F30000020F0E70120F9E70C0000207047FFF7E0
:100F4000EDBA30B58FB028216846FFF75FF914215C
:100F50000AA8FFF75BF90120010400248DE81300C3
:100F600004904FF4E010CDE908100225079568467B
:100F7000FFF720FC08B172B6FEE70F20CDE90A05A5
:100F80004FF48060CDE90C4002210AA80E94FFF7CF
:100F90004FFB002801D072B6FEE70FB030BD70479E
:100FA000094908B5097800290CD000900648083096
:100FB00081884088491E8BB2401E82B200210846BB
:100FC00000F004F808BD00001000002070B51546C0
:100FD0000B4A049E1C461278002A10D00A1993B2BC
:100FE000421992B200F096F9641C6D1C654300240E
:100FF00003E0304600F084F9641CAC42F9D370BDC4
:101000001000002010B500F00FF900287ED1814CAF
:1010100060680068804760684169002088476068B0
:10102000816864208847606841690120884760685A
:10103000816878208847112000F05CF96068816839
:1010400078208847362000F055F9C02000F055F987
:101050003A2000F04FF9052000F04FF9B12000F0E0
:1010600049F9052000F049F93C2000F046F93C2000
:1010700000F043F9B22000F03DF9052000F03DF901
:101080003C2000F03AF93C2000F037F9B32000F0A2
:1010900031F9052000F031F93C2000F02EF93C2018
:1010A00000F02BF9052000F028F93C2000F025F98C
:1010B0003C2000F022F9B42000F01CF9032000F0DD
:1010C0001CF9C02000F016F92E2000F016F90620B9
:1010D00000F013F9042000F010F9C12000F00AF923
:1010E000C02000F00AF9C22000F007F9C22000F089
:1010F00001F90D2000F001F90D2000F0FEF8C320E9
:1011000000F0F8F88D2000F0F8F800E081E0EE2023
:1011100000F0F3F8C42000F0EDF88D2000F0EDF8B9
:10112000EE2000F0EAF8C52000F0E4F8002000F01E
:10113000E4F8E02000F0DEF81B2000F0DEF82120CB
:1011400000F0DBF8102000F0D8F8152000F0D5F8FA
:101150002B2000F0D2F8252000F0CFF81F2000F05F
:10116000CCF8232000F0C9F8222000F0C6F8222095
:1011700000F0C3F82B2000F0C0F8372000F0BDF8D5
:10118000002000F0BAF8152000F0B7F8022000F0B7
:10119000B4F83F2000F0B1F8E12000F0ABF81A20DD
:1011A00000F0ABF8202000F0A8F80F2000F0A5F820
:1011B000152000F0A2F82A2000F09FF8252000F06A
:1011C0009CF81E2000F099F8232000F096F82320C8
:1011D00000F093F8222000F090F82B2000F08DF81A
:1011E000372000F08AF8002000F087F8152000F082
:1011F00084F8022000F081F83F2000F07EF82920DA
:1012000000F078F86068816901208847012020702B
:10121000002010BD10000020002801D001494860C6
:1012200070470000100000200C48406878B1016849
:1012300081B1416871B1816861B1C16851B1016921
:1012400041B1416931B1806920B1002070474FF050
:10125000FF3070476FF00100704700001000002061
:10126000FEE7FFF745B8704701B54FF0FF330122A5
:1012700069460248FFF7B2FC08BD000020000020CC
:101280007047000008B1012200E00022012101485E
:10129000FFF738B9000C014008B1012200E000223C
:1012A00020210148FFF72EB90010014008B10122AA
:1012B00000E0002210210148FFF724B9001001408E
:1012C00070B50B4C05466068002810D0C26808460F
:1012D0009047606801690020884760684168284637
:1012E000884760680169BDE870400120084770BD0B
:1012F000100000200021FFF7E3BF0121FFF7E0BF4E
:1013000010B50446000AFFF7F8FFE0B2BDE8104050
:10131000FFF7F3BF2DE9F04107461C4616460D4680
:101320002A20FFF7E7FF0020FFF7E7FFF8B2FFF7FB
:10133000E4FF0020FFF7E1FFF0B2FFF7DEFF2B2014
:10134000FFF7D8FF0020FFF7D8FFE8B2FFF7D5FF7F
:101350000020FFF7D2FFE0B2FFF7CFFFBDE8F0417A
:101360002C20FFF7C7BF0907090E002804DB00F196
:10137000E02080F80014704700F00F0000F1E0203A
:1013800080F8141D7047FFF7D1F8FFF7DAFDFFF77B
:10139000EDFCFFF735FDFEF79DFF4FF478454FF468
:1013A0007A744FF4FC662846FFF7FAFD2046FEF7F4
:1013B0009FFF3046FFF7F4FD2046FEF799FF1F2000
:1013C000FFF7EEFD2046FEF793FFECE70102020374
:1013D0000405060708090A0B0C0D0E0F101000007B
:1013E00000000000000001020304060708090000D5
:1013F00067120008691200086312000899120008B9
:1014000085120008AD120008811200082C14000893
:1014100000000020200000006C0100084C140008AF
:1014200020000020B806000088010008010000002C
:10143000100000000000000000127A000000000010
:0C1440000000000000008000A000000080
:0400000508000131BD
:00000001FF
