:020000040800F2
:10000000D8060020CD010008530E0008730D00082B
:10001000510E0008F1020008D91500080000000088
:10002000000000000000000000000000450F000874
:10003000F302000800000000550E0008470F0008FA
:10004000E7010008E7010008E7010008E7010008F0
:10005000E7010008E7010008E7010008E7010008E0
:10006000E7010008E7010008E7010008E7010008D0
:10007000E7010008E7010008E7010008E7010008C0
:10008000E7010008E7010008E7010008E7010008B0
:10009000E7010008E7010008E7010008E7010008A0
:1000A000E7010008E7010008E7010008E701000890
:1000B000E7010008E7010008E7010008E701000880
:1000C000E7010008E7010008E7010008E701000870
:1000D000E7010008E7010008E7010008E701000860
:1000E000E7010008E7010008E7010008E701000850
:1000F000E7010008E7010008E7010008E701000840
:10010000E7010008E7010008E7010008E70100082F
:10011000E7010008E7010008E7010008E70100081F
:10012000E7010008E7010008E7010008E70100080F
:1001300000F002F800F03AF80AA090E8000C8244BF
:100140008344AAF10107DA4501D100F02FF8AFF29C
:10015000090EBAE80F0013F0010F18BFFB1A43F0A5
:10016000010318471818000038180000103A24BF7F
:1001700078C878C1FAD8520724BF30C830C144BF0C
:1001800004680C607047000000230024002500264E
:10019000103A28BF78C1FBD8520728BF30C148BFEA
:1001A0000B6070471FB51FBD10B510BD00F05CF8A7
:1001B0001146FFF7F7FF01F0A3FA00F07AF803B455
:1001C000FFF7F2FF03BC00F07DF80000094880470C
:1001D00009480047FEE7FEE7FEE7FEE7FEE7FEE729
:1001E000FEE7FEE7FEE7FEE704480549054A064B41
:1001F00070470000A70F000831010008D800002058
:10020000D8060020D8020020D80200204FF00002BB
:1002100000B5134694469646203922BFA0E80C50FC
:10022000A0E80C50B1F12001BFF4F7AF090728BFD7
:10023000A0E80C5048BF0CC05DF804EB890028BF53
:1002400040F8042B08BF704748BF20F8022B11F07C
:10025000804F18BF00F8012B7047704770477047F8
:1002600000487047780000207546FFF7F9FFAE465A
:1002700005006946534620F00700854618B020B5B2
:10028000FFF7B2FFBDE820404FF000064FF0000737
:100290004FF000084FF0000B21F00701AC46ACE82E
:1002A000C009ACE8C009ACE8C009ACE8C0098D469B
:1002B000704710B50446AFF300802046BDE81040FB
:1002C000FFF77DBF01491820ABBEFEE72600020004
:1002D0007047000010B5054801F0EEF800F0E2FFAD
:1002E000002802D100F060FE002010BD8417000835
:1002F000FEE7704772B6FEE770B5044600F00CF9F1
:100300000546601C02D004480078044400F004F95B
:10031000401BA042FAD370BD000000202DE9F84F29
:10032000DFF8C0910024A9F1040B23464FF00F0819
:1003300009F1040AABF1040ECCE00127A7403A40D2
:10034000BA4272D1DFF8A0C14D68A5EB0C06654535
:100350002BD00DDC032D34D005DC35B3012D19D0A5
:10036000022D2FD11BE0112D16D0122D2AD119E00C
:10037000B6F5881F19D006DCB6F5803F15D0B6F566
:10038000801F1FD111E0B6F5001F0ED0B6F5041F77
:1003900018D10AE0CB6815E0CB681B1D12E0CB68D2
:1003A00008330FE0CB680C330CE08B682BB1012BCA
:1003B0004FF0080303D0476104E0042302E0076123
:1003C00000E00023FF2A01D8064601E000F1040600
:1003D0004FEA840501D9A5F12005376808FA05FC24
:1003E00027EA0C0703FA05F547EA050737604D6869
:1003F000ED006ED53D4DAE6946F00106AE61AD69CA
:1004000024F0030605F001050095394D7719BE6803
:10041000A5072D0F08FA05FC26EA0C06DFF8D4C064
:10042000604503D14FF0000C25E052E0DFF8C8C072
:10043000604502D14FF0010C1DE0DFF8C0C06045FF
:1004400002D14FF0020C16E0DFF8B4C0604502D1D3
:100450004FF0030C0FE0DFF8ACC0604502D14FF065
:10046000040C08E0DFF8A0C0604502D14FF0050C95
:1004700001E04FF0060C0CFA05FC4CEA060CC7F83C
:1004800008C04D68D9F80060ED024D4601D516430D
:1004900000E096432E604D68DAF80060AD025546E4
:1004A00001D5164300E096432E604D68DBF80060EE
:1004B000AD035D4601D5164300E096432E604D68BE
:1004C000DEF80060ED03754601D5164300E0964363
:1004D0002E60641C0A6832FA04F57FF42EAFBDE882
:1004E000F88F0000080401400000111000100240C5
:1004F0000000014000080140000C014000100140D4
:100500000014014000180140001C01400AB10161C3
:1005100070470904FBE7000001488068704700004D
:100520000000002002488168027811448160704711
:1005300000000020074810B5016841F0100101607B
:10054000032000F067F80F2000F006F800F024F810
:10055000002010BD0020024070B50D4D04464FF440
:100560007A712878B1FBF0F00A490968B1FBF0F024
:1005700000F0EBFB48B9102C07D200222146501E98
:1005800000F028F800206C6070BD012070BD0000F4
:10059000000000200C0000200C4808B5816941F0E3
:1005A00001018161816901F001010091C16941F09E
:1005B0008051C161C069064900F0805000904868D0
:1005C00020F0E06040F00070486008BD001002407C
:1005D00000000140F0B40E4B1B68C3F30223C3F1CB
:1005E0000704042C00D904241D1D072D01D200236B
:1005F00000E0DB1E012606FA04F56D1E0D409D404D
:100600009E40761E164045EA0601F0BC01F067B830
:100610000CED00E0064A00F0070110684FF6FF03FA
:10062000184040EA01200349084310607047000069
:100630000CED00E00000FA052DE9F0470D4604003E
:1006400067D0DFF81881D8F8000000F00700A84252
:100650000CD2D8F8001021F007012943C8F8001087
:10066000D8F8000000F00700A84252D120683C4EA4
:10067000810712D5400703D5706840F4E0607060D0
:100680002078000703D5706840F46050706070688F
:10069000A16820F0F000084370602078C00727D0E0
:1006A0006068012810D03168022810D0890700291D
:1006B0002FDA716821F0030101437160FFF72CFF0D
:1006C000074641F288390CE031688903EFE7890178
:1006D000EDE7FFF721FFC11B494502D90320BDE823
:1006E000F0877068616800F00C00B0EB810FF0D10A
:1006F000D8F80010404601F00701A9420BD9016863
:1007000021F0070129430160006800F00700A842BA
:1007100001D00120E3E72078400705D57068E16843
:1007200020F4E060084370602078000706D5706808
:10073000216920F4605040EAC100706000F018F8B0
:100740007168084AC1F30311515CC840064908604A
:1007500006480068FFF700FF0020C0E700200240C5
:1007600000100240721700080C0000200400002056
:100770000E4B59680E4801F00C02042A11D0082AC9
:100780000FD10C48C1F38342C903805C0AD5596874
:10079000084AC1F34041921E515C054A5043B0FBE8
:1007A000F1F07047044948437047000000100240D0
:1007B00000127A006217000800093D002DE9F84F89
:1007C00004006FD02078BE4DC00747D06868C0F3E2
:1007D0008100012807D06868C0F38100022809D190
:1007E0006868C00306D52868800337D5606800288C
:1007F000E7D033E06068B0F5803F0BD010B1B0F5C2
:10080000A02F11D0286820F480302860286820F4B8
:10081000802002E0286840F480302860606888B159
:10082000FFF77AFE064609E0286840F48020286039
:10083000F0E7FFF771FE801B642873D828688003F7
:10084000F7D50BE0FFF768FE064604E0FFF764FE0D
:10085000801B6428F1D828688003F7D42078DFF85B
:10086000648280074FF0010A4FF0000939D56868AB
:1008700010F00C0F07D06868C0F38100022809D17E
:100880006868C00306D42868800714D52069012849
:1008900008D110E02069B0B1C8F800A0FFF73CFE15
:1008A000064605E007E1FFF737FE801B0228C4D8A3
:1008B00028688007F7D52868616920F0F80040EAC9
:1008C000C10028600DE0C8F80090FFF725FE06463D
:1008D00004E0FFF721FE801B022823D82868800748
:1008E000F7D4207800072CD57748A169D9B1C0F892
:1008F00000A0FFF711FE064604E0FFF70DFE801B87
:1009000002280FD8686A8007F7D570484FF4FA516B
:100910000068B0FBF1F0009000BF0098411E00910C
:10092000FAD20EE07CE0C0F80090FFF7F5FD064635
:1009300004E0FFF7F1FD801B022871D8686A800788
:10094000F7D4207840075BD5E8690027C00008D4B9
:10095000E86940F08050E861E869012700F08050C4
:1009600000905B480168C90511D40168834641F4D1
:1009700080710160FFF7D0FD064604E0FFF7CCFD73
:10098000801B64284CD8DBF80000C005F6D5E06871
:1009900001280AD008B1052813D0286A20F00100E8
:1009A0002862286A20F0040002E0286A40F0010072
:1009B0002862E06841F2883B88B1FFF7ADFD06464A
:1009C00009E0286A40F004002862EEE7FFF7A4FD82
:1009D000811B59455BD8286A8007F7D50BE0FFF7E4
:1009E0009BFD064604E0FFF797FD811B59454ED855
:1009F000286A8007F7D41FB1E86920F08050E861C9
:100A0000E069A8B36968C1F38101022946D00228D0
:100A1000484606D0C8F86000FFF77EFD044639E07E
:100A200035E04746C8F86000FFF776FD064604E06B
:100A3000FFF772FD801B022829D828688001F7D4AF
:100A4000206AB0F5803F05D16868A16820F40030C5
:100A500008436860D4E908010843696821F4741107
:100A600008436860C7F860A0FFF756FD044605E03C
:100A700023E0FFF751FD001B022808D828688001F9
:100A8000F7D51AE0FFF748FD001B022802D9032022
:100A9000BDE8F88F28688001F4D40EE00128F7D073
:100AA0006868226A00F48031914204D1616A00F4DE
:100AB0007010884201D00120EAE70020E8E700003A
:100AC0000010024000004242800442420C0000201C
:100AD0000070004070B5040009D0606A002540B184
:100AE00025616561A56294F8510040B10CE00120D8
:100AF00070BD6068B0F5827FF4D0E561F2E784F8FC
:100B00005050204600F040F8022084F85100206840
:100B1000016821F040010160A088218900F4827001
:100B200001F404410843A18901F400610843217CD8
:100B300001F002010843217D01F001010843218BEE
:100B400001F400710843217F01F03801084394F853
:100B5000201001F080010843218D01F40051084369
:100B600021680860A069042101EA104021684860FA
:100B70002068C16921F40061C1616565012084F8C4
:100B80005100002070BD000000B585B0002100912B
:100B900001910291039100680F4988421AD10F48D0
:100BA000816941F480518161816901F4805104912E
:100BB000816941F0040181618069694600F00400A7
:100BC0000490A0200090022001900320039004488C
:100BD000FFF7A4FB05B000BD00300140001002404B
:100BE000000801402DE9F84F1D4617468A46044685
:100BF000FFF792FC064694F85100012826D1BAF17D
:100C0000000F77D0002F75D094F8500001281DD028
:100C10004FF0010984F85090032084F851004FF000
:100C20000008C4F85480C4F830A0A786E786C4F84A
:100C30003880A4F83C80A4F83E80C4F84480C4F80E
:100C40004080A068B0F5004F03D00CE00220BDE862
:100C5000F88F2068016821F0400101602068016878
:100C600041F48041016020680168490603D40168AD
:100C700041F040010160E068B0F5006F606803D0AA
:100C800028B3012F23D03FE008B1012F1BD1206BE7
:100C900021680088C86006E020688168890709D556
:100CA000216B0988C160206B801C2063E08E401E90
:100CB000E08608E0FFF730FC801BA84202D3681CE6
:100CC00001D02FE075B3E08E0028E5D11FE0206B46
:100CD00021680078087306E02068816889070AD5D2
:100CE000216B09780173206B401C2063E08E401E4D
:100CF000E08609E027E0FFF70FFC801BA84202D343
:100D0000681C01D00EE06DB1E08E0028E4D13246BF
:100D10002946204600F09FF808B120206065A068B1
:100D200030B109E084F8519084F8508003208EE7B8
:100D30002068C1688068009084F8519084F85080E1
:100D4000606D002883D0012081E710B5401EB0F10E
:100D5000807F01D3012010BD4FF0E02460610F219E
:100D6000601700F0BCFC0020A0610720206100207B
:100D700010BDFEE72DE9F04186B000241F48009425
:100D8000019402940394816941F0040181618169B5
:100D900001F004010491816941F0100181618169D0
:100DA00001F010010491816941F0080181618069BD
:100DB000134F00F008000490002230213846FFF75E
:100DC000A5FBDFF84080002201214046FFF79EFB93
:100DD000302001250226CDE90005CDE9024669460D
:100DE0003846FFF79BFA03960095CDE90154694612
:100DF0004046FFF793FA06B0BDE8F08100100240CC
:100E000000100140000C0140104810B50E4901606F
:100E10004FF48271416000218160C1604FF4007223
:100E20000161C0E905121022C0E907214162816217
:100E30000A21C162FFF74EFE002803D0BDE8104032
:100E4000FFF758BA10BD000000300140200000201C
:100E5000FEE7FEE77047F8B515460E460B460092D2
:100E600004460122022100F011F840B93346002265
:100E700080212046009500F009F8002804D0606D1C
:100E800040F0200060650320F8BD00002DE9F84324
:100E90001E46914688460446089DFFF73DFB401BD1
:100EA000351AFFF739FB074625480068C0F3CB30F9
:100EB000684338E0701C37D0FFF72EFBC01BA842F8
:100EC00003D215B1009860B32CE02068416821F08E
:100ED000E00141606068B0F5827F0BD1A068B0F599
:100EE000004F02D0B0F5806F04D12068016821F076
:100EF00040010160A06AB0F5005F09D12068016877
:100F000021F4005101602068016841F40051016042
:100F1000012084F85100002084F850000320BDE82F
:100F2000F8830025401E00902068816838EA01009F
:100F300004D000204845BDD10020F0E70120F9E7AA
:100F40000C0000207047FFF7EDBA30B58FB02821B4
:100F50006846FFF75BF914210AA8FFF757F901204B
:100F6000010400248DE8130004904FF4E010CDE953
:100F70000810022507956846FFF720FC08B172B6F5
:100F8000FEE70F20CDE90A054FF48060CDE90C4063
:100F900002210AA80E94FFF74FFB002801D072B679
:100FA000FEE70FB030BD7047094908B50978002940
:100FB0000CD000900648083081884088491E8BB2CA
:100FC000401E82B20021084600F050F908BD000022
:100FD000100000202DE9FF5F82466B4889460E997C
:100FE00000789846404208427DD0002A7BD016B255
:100FF00000257042032101EB40000FFA80FBBEE0A8
:101000000E98012874D0401C470809EB0600C01B4D
:101010000E9C81B201900AEB0500641EC01B029079
:10102000CDF80080A3B2A2B280B200F01FF90198FF
:10103000A3B281B2AAEB0500C01B0190A2B2CDF809
:10104000008080B200F012F9A9EB0600C01B81B24B
:1010500003900298A3B2A2B2CDF8008080B200F053
:1010600005F90398A3B281B20198A2B2CDF800802D
:1010700080B200F0FBF809EB0500C01B81B20290C2
:101080000AEB0600C01BCDE90080A3B2A2B280B279
:1010900000F0ECF80298A3B281B2AAEB0600C01BE4
:1010A0000290A2B2CDF8008080B200F0DFF8A9EB88
:1010B0000500C71B0198A3B2A2B2B9B2CDF8008057
:1010C00080B200F0D3F80298A3B2A2B2B9B2CDF8C0
:1010D000008080B200F0CAF8BBF1000F45DA0BEBDC
:1010E0008500801D01E04DE002E00FFA80FB44E046
:1010F00009EB06040AEB0507A1B2B8B2424600F0BC
:10110000A3F8AAEB05000090A1B280B2424600F01D
:101110009BF8A9EB0604A1B2B8B2424600F094F8DD
:101120000098A1B280B2424600F08EF809EB0504A7
:101130000AEB0607A1B2B8B2424600F085F8AAEB66
:1011400006000090A1B280B2424600F07DF8A9EB03
:101150000504A1B2B8B2424600F076F80098A1B2F8
:1011600080B2424600F070F8B6E7A91B0BEB810095
:101170000A30761E0FFA80FB36B26D1C2DB2B542D6
:101180007FF73EAFBDE8FF9F100000202DE9FE4F26
:1011900091462C4A0D9F9846127852423A424FD0BF
:1011A000814502D9A9EB000201E0A0EB09020FFA88
:1011B00082FB884502D9A8EB010201E0A1EB0802FD
:1011C0000FFA82FA4FF0FF32484501D2012300E0C6
:1011D00013460293414500D201220192ABEB0A0271
:1011E00016B205B20CB2012F24D00C990091791ED1
:1011F00078088BB28AB2211A281A89B280B200F01C
:1012000035F84D4501D144451AD0700000B2CAF1FD
:101210000001884205DDA6EB0A010EB202992944BD
:101220000DB25845DFDA06EB0B0006B201982044F8
:1012300004B2D8E7A1B2A8B20C9A00F005F8E0E732
:10124000BDE8FE8F1000002010B51446064A127843
:10125000002A08D00B46024600F018FA2046BDE8E6
:10126000104000F009BA10BD1000002070B51546FE
:101270000B4A049E1C461278002A10D00A1993B219
:10128000421992B200F002FA641C6D1C65430024FE
:1012900003E0304600F0F0F9641CAC42F9D370BDB5
:1012A0001000002010B500F07BF900287ED1814CA1
:1012B000606800688047606841690020884760680E
:1012C00081686420884760684169012088476068B8
:1012D000816878208847112000F0C8F9606881682B
:1012E00078208847362000F0C1F9C02000F0C1F90D
:1012F0003A2000F0BBF9052000F0BBF9B12000F066
:10130000B5F9052000F0B5F93C2000F0B2F93C2019
:1013100000F0AFF9B22000F0A9F9052000F0A9F91A
:101320003C2000F0A6F93C2000F0A3F9B32000F027
:101330009DF9052000F09DF93C2000F09AF93C2031
:1013400000F097F9052000F094F93C2000F091F9A5
:101350003C2000F08EF9B42000F088F9032000F062
:1013600088F9C02000F082F92E2000F082F90620D2
:1013700000F07FF9042000F07CF9C12000F076F93C
:10138000C02000F076F9C22000F073F9C22000F00E
:101390006DF90D2000F06DF90D2000F06AF9C32001
:1013A00000F064F98D2000F064F900E081E0EE20A7
:1013B00000F05FF9C42000F059F98D2000F059F9D0
:1013C000EE2000F056F9C52000F050F9002000F0A2
:1013D00050F9E02000F04AF91B2000F04AF92120E2
:1013E00000F047F9102000F044F9152000F041F911
:1013F0002B2000F03EF9252000F03BF91F2000F0E3
:1014000038F9232000F035F9222000F032F92220AB
:1014100000F02FF92B2000F02CF9372000F029F9EB
:10142000002000F026F9152000F023F9022000F03A
:1014300020F93F2000F01DF9E12000F017F91A20F3
:1014400000F017F9202000F014F90F2000F011F936
:10145000152000F00EF92A2000F00BF9252000F0ED
:1014600008F91E2000F005F9232000F002F92320DE
:1014700000F0FFF8222000F0FCF82B2000F0F9F833
:10148000372000F0F6F8002000F0F3F8152000F007
:10149000F0F8022000F0EDF83F2000F0EAF82920F3
:1014A00000F0E4F86068816901208847012020701D
:1014B000002010BD10000020002801D00149486024
:1014C00070470000100000202DE9F0479946164BA8
:1014D0009246089A1B78002B23D0203A5F2A20D20C
:1014E000D2B2124B02EB8202D718CA1D93B2021D70
:1014F00092B200F0CBF800254FF00108002408FA62
:1015000005F6385D064201D0504600E0484600F03E
:10151000B3F8641CE4B2052CF3D36D1CEDB2082DB6
:10152000ECD3BDE8F087000010000020A0170008F1
:101530002DE9FF4F8146194881B00D4600780E9E77
:101540004042304226D008274FF0050801204C4683
:1015500007F1010A08EB000B19E0104A04EB08013F
:1015600008325388994203D30AEB05014C468DB2E9
:101570009288E91991420DD20090DDE903232946B2
:101580002046FFF7A1FF0BEB040084B2761C3078F5
:101590000028E2D105B0BDE8F08F00001000002067
:1015A0000C48406878B1016881B1416871B18168C7
:1015B00061B1C16851B1016941B1416931B180691D
:1015C00020B1002070474FF0FF3070476FF00100EE
:1015D0007047000010000020FEE7FEF78DBE704748
:1015E00001B54FF0FF33012269460248FFF7FAFACE
:1015F00008BD0000200000207047000008B1012253
:1016000000E0002201210148FEF780BF000C0140EC
:1016100008B1012200E0002220210148FEF776BF38
:101620000010014008B1012200E000221021014811
:10163000FEF76CBF0010014070B50B4C05466068AA
:10164000002810D0C26808469047606801690020F1
:101650008847606841682846884760680169BDE836
:1016600070400120084770BD100000200021FFF7E6
:10167000E3BF0121FFF7E0BF10B50446000AFFF702
:10168000F8FFE0B2BDE81040FFF7F3BF2DE9F041ED
:1016900007461C4616460D462A20FFF7E7FF0020A6
:1016A000FFF7E7FFF8B2FFF7E4FF0020FFF7E1FFE5
:1016B000F0B2FFF7DEFF2B20FFF7D8FF0020FFF787
:1016C000D8FFE8B2FFF7D5FF0020FFF7D2FFE0B266
:1016D000FFF7CFFFBDE8F0412C20FFF7C7BF090798
:1016E000090E002804DB00F1E02080F800147047A8
:1016F00000F00F0000F1E02080F8141D704700009A
:101700001CB5FEF717FFFFF720FCFFF733FBFFF7D1
:101710007BFBFEF7DFFD0FA0002300904FF6FF726A
:1017200019461846FFF704FF032000904FF4784352
:101730001E2250214020FFF74DFC02214FF4FC6097
:10174000CDE900019623762219460A20FFF71EFDF7
:10175000FEE7000048656C6C6F2C20544654210055
:10176000010202030405060708090A0B0C0D0E0FFF
:101770001010000000000000000001020304060732
:1017800008090000DF150008E1150008DB15000856
:1017900011160008FD15000825160008F9150008A7
:1017A00000000000003E5B4F5B3E3E6B4F6B3E1CFB
:1017B0003A7E3A1C183C7E3C181C577E571C1C5E17
:1017C0007E5E1C00183C1800081C3E1C08203C7E55
:1017D0003C201C0808081C08083E080800C0E0005F
:1017E0000008080808080000C0C0006030180C0697
:1017F0003E5149453E00427F4000724949494621D9
:1018000041494D331814127F1027454545393C4A4C
:101810004949314121110907364949493646494963
:10182000291E0000140000004034000000081422AB
:101830004114141414140041221408020159090619
:101840003E415D551E7E1111117E7F494949333E4F
:10185000414141227F4141413E7F494949417F0900
:101860000909013E4149497A7F0808087F00417F04
:1018700041002040413F017F081422417F40404009
:10188000407F020C027F7F0408107F3E4141413EB1
:101890007F090909063E4151215E7F091929462623
:1018A0004949493203017F01033F4040403F1F2027
:1018B00040201F3F4038403F6314081463030478FE
:1018C00004036159494D43007F41410055AA55AA7F
:1018D000550041417F000402010204404040404065
:1018E000000102040020545454787F50484830309E
:1018F00048484820304848507F3054545418087E97
:101900000901020C5454543C7F0804047800447DBF
:1019100040002040443D007F1028440000417F40AB
:101920000078041804787804040478304848483073
:10193000781414140808141414787804040408485B
:1019400054545420043F4440203C4040207C1C2000
:1019500040201C3C4030403C44281028440C50504F
:10196000503C4464544C44000836410000007F0061
:101970000000413608001008081008009C190008F3
:1019800000000020200000006C010008BC190008C5
:1019900020000020B80600008801000801000000B7
:1019A000100000000000000000127A00000000009B
:0C19B0000000000000008000A00000000B
:0400000508000131BD
:00000001FF
