:020000040800F2
:10000000A00C0020490100082B220008411C000818
:1000100029220008150900085528000800000000E2
:100020000000000000000000000000006325000840
:100030001709000800000000612500086525000878
:100040006301000863010008630100086301000800
:1000500063010008630100086301000863010008F0
:1000600063010008630100086301000863010008E0
:1000700063010008630100086301000863010008D0
:1000800063010008630100086301000863010008C0
:1000900063010008630100086301000863010008B0
:1000A00063010008630100086301000863010008A0
:1000B0006301000863010008630100086301000890
:1000C0006301000863010008630100086301000880
:1000D0006301000849280008630100086301000863
:1000E0006301000863010008630100086301000860
:1000F0006301000863010008630100086301000850
:10010000630100086301000863010008630100083F
:10011000630100086301000863010008630100082F
:10012000630100086301000863010008630100081F
:10013000DFF810D000F08EFB004800475132000875
:10014000AFF30080A00C0020064880470648004717
:10015000FEE7FEE7FEE7FEE7FEE7FEE7FEE7FEE777
:10016000FEE7FEE7C525000831010008202A04DB70
:10017000203A21FA02F00021704721FA02F3D04020
:10018000C2F12002914008431946704740EA01033A
:100190009B0703D009E008C9121F08C0042AFAD23D
:1001A00003E011F8013B00F8013B521EF9D2704701
:1001B000D2B201E000F8012B491EFBD270470022A9
:1001C000F6E710B513460A4604461946FFF7F0FF56
:1001D000204610BD10B5002200E0521C835C8C5CF0
:1001E000A34201D1002BF8D1D8B2E1B2401A10BD20
:1001F00080EA010210B502F00043400022D04A001C
:100200001FD0010E01EB1261C0F35600C2F356027B
:1002100040F4000042F40002A0FB022000047F39F9
:10022000140400D0401C50EA124001D44000491E82
:10023000C2B20C0604EBD010401C4008802A02D049
:1002400003E0002010BD20F00100002900DA0020AA
:10025000184310BD30B480EA010202F0004530F0CE
:10026000004221F0004013D090B1C30DD40DC2F371
:100270001601C0F31600E41A41F4000140F4000234
:100280007D34914201D3641C00E04900002C02DA65
:1002900030BC002070474FF400000023914201D38E
:1002A000891A034340084FEA4101F7D151B1914205
:1002B00002D14FF0004105E002D24FF0010101E010
:1002C0006FF0010103EBC450284430BC00F016BAB3
:1002D0002DE9FE4F804681EA0300C00F0C460090D6
:1002E00021F0004123F00045B8EB0200A94105D2FE
:1002F0004046214690461C460B46024623F00040ED
:10030000104347D0270DC7F30A00C3F30A510290E8
:10031000401A019040286BDAC3F3130040F4801BAD
:100320000098924620B10023D2EB030A63EB0B0B3B
:1003300001985946C0F14002504600F0BEF9064609
:100340000D4650465946019A00F0C6F910EB0800D8
:100350006141002487EA115284EAE7731A4340D0CE
:10036000009A62B3019A012A4FEA075215DC001B7A
:1003700061EB02014FF0004202EA0752CDE9004270
:10038000001C41F5801132462B4600F0FDF903B008
:10039000BDE8F08F40462146F9E7001B61EB020102
:1003A000001C41F5801300185B412018A2F50017CE
:1003B00047EB030140EAD570B6196D4111E06D08B5
:1003C0004FEA360645EAC0754FEA0752001B61EB5B
:1003D0000201001C41F5801149084FEA3000001964
:1003E000514132462B4603B0BDE8F04F00F0BDB995
:1003F0000098012240000023D0EB020263EBE0737F
:10040000009821464FEAE074B8EB000061EB04016C
:10041000E9E783F000435BE781F0004158E72DE90D
:10042000FE4F81EA030404F0004421F000410094EF
:100430004FF0000B23F0004350EA01045ED052EA73
:1004400003045BD0C3F30A54C1F30A552C44A4F24D
:10045000F3340194A0FB0254C1F3130141F4801161
:10046000C3F3130343F4801301FB024400FB034E68
:10047000840A970A44EA815447EA8357A4FB076831
:1004800002958D0A05FB07854FEA932C04FB0C545B
:100490002705029D4FEA065847EA1637B5EB0805CF
:1004A0006EEB070C870E920E47EA811742EA831221
:1004B000A7FB0201B6EB0B0164EB00042B0D43EA32
:1004C0000C335E1844EB1C50DA465146E7FB020140
:1004D000C5F313044FEA0B3343EA14534FEA0432D3
:1004E000019C43EA0603A4F10C040294009CCDE9AC
:1004F00000B400F049F903B0BDE8F08F00200146D8
:10050000F9E72DE9F04D81EA030404F0004B21F0F6
:10051000004514464FF0000A23F0004150EA05025E
:1005200020D054EA01021DD0C5F30A570246C5F394
:100530001303C1F31300C1F30A5640F4801543F4CA
:100540008013A7EB0608101BD64608F2FD3873EBA4
:10055000050002D308F1010801E092185B41B8F1EF
:10056000000F03DA00200146BDE8F08D00204FF4B3
:100570008011064684460EE0171B73EB050705D372
:10058000121B63EB050306434CEA010C49084FEAD2
:10059000300092185B4150EA0107EDD152EA0300A6
:1005A00012D082EA040083EA0501084305D0101B3B
:1005B000AB4106D20122002306E000224FF00043A7
:1005C00002E06FF0010253101AEB06004CEB0851E9
:1005D00010EB0A0041EB0B01BDE8F04D00F0C5B88F
:1005E000C10F80EAE0700844CA079623002100F09A
:1005F0008EB896230022114600F089B830B5041E4B
:1006000071F1000404DB4FF00044404264EB01014F
:10061000141E73F1000405DB1C464FF000435242E8
:1006200063EB0403994208BF904230BD30B50B46DE
:10063000014600202022012409E021FA02F59D4212
:1006400005D303FA02F5491B04FA02F52844151EE6
:10065000A2F10102F1DC30BD2DE9F05F054600207A
:1006600092469B4688460646814640241BE0284623
:10067000414647462246FFF779FD53465A46C01A7F
:10068000914110D311461846224600F016F82D1A53
:1006900067EB01084F4622460120002100F00DF8CB
:1006A00017EB00094E41201EA4F10104DFDC48468F
:1006B00031462A464346BDE8F09F202A04DB203A13
:1006C00000FA02F1002070479140C2F1200320FAA5
:1006D00003F3194390407047202A06DBCB17203ADA
:1006E00041FA02F043EAE07306E041FA02F3D04037
:1006F000C2F1200291400843194670470029A8BF63
:100700007047401C490008BF20F00100704710B43A
:10071000B0FA80FC00FA0CF050EA010404BF10BCEF
:10072000704749B1CCF1200421FA04F411FA0CF11C
:1007300018BF012121430843A3EB0C01CB1D4FEA55
:1007400000614FEA102042BF002010BC704700EB50
:10075000C35010440029A4BF10BC7047401C49007E
:1007600008BF20F0010010BC704710B5141E73F1D3
:10077000000408DA401C41F1000192185B411A4361
:1007800001D120F0010010BD2DE9F04D92469B46AD
:1007900011B1B1FA81F202E0B0FA80F22032904653
:1007A000FFF78BFF04460F4640EA0A0041EA0B01BF
:1007B00053465A46084313D0114653EA010019D054
:1007C000C8F140025046FFF7D1FC05460E465046A0
:1007D00059464246FFF771FF084305D0012004E067
:1007E00020463946BDE8F08D0020054346EAE07614
:1007F0002C4337430A986305E40AA0EB0800002263
:10080000FD0A44EA47540A3002D500200146E9E7D0
:10081000010510196941DDE9084500196941BDE884
:10082000F04DA2E7C1F30A52C1F3130140F2FF33C6
:1008300041F480119A4202DA00200146704740F2EA
:1008400033439A42A2F2334202DC5242FFF78EBC9B
:10085000FFF733BF064C074D06E0E06840F00103A8
:1008600094E8070098471034AC42F6D3FFF764FCD5
:10087000B04E0008D04E000830B58BB01349144874
:1008800001F056FB14216846FFF799FC002414255B
:100890000120CDE9025400908DF8044069460D48CE
:1008A000049401F02BFB142105A8FFF788FC02201B
:1008B00005904FF47A70CDE907508DF8184005A9DE
:1008C0000548099401F01AFB0BB030BD0132000855
:1008D00005320008640400208C04002008B50028BC
:1008E0000AD0002908D04FF0FF3200920B46024692
:1008F0007821024800F0E0FA08BD000064070020FB
:1009000010B5034801F032FDBDE8104001F0CCBC49
:10091000DD080008FEE7704772B6FEE710B590F8F4
:1009200021100022022905D00421816380F82020B3
:10093000012010BD01680B6823F00E030B600168F5
:100940000B6823F001030B6090F84030012404FA97
:1009500003F1C36B596080F8214080F820201046D5
:1009600010BD00002DE9F05F90F82110002402294D
:1009700003D004218163012485E001680A6822F024
:100980000E020A6001680A6822F001020A603F4E06
:100990003E4FB215DFF8F4C0DFF8F090DFF8ECA0BE
:1009A000DFF8E8B0DFF8E4E00168783F13011502F2
:1009B000ACF1640CA9F15009AAF13C0AABF1280B87
:1009C000AEF1140E4FF48018B14227D9B9420ED0BF
:1009D000614512D049451DD0514518D0594518D010
:1009E000714501D1424615E0294EB14201D10122A3
:1009F00010E0274E1436B14201D110220AE0244EF5
:100A00002836B14206D0224A3C32914201D11A46E0
:100A100000E02A461E49091F0A602BE0B94213D0A4
:100A2000614517D0494522D051451DD059451DD0AB
:100A3000714501D142461AE0B14202D14FF08072B5
:100A400015E0134EB14201D1012210E0104E1436D0
:100A5000B14201D110220AE00D4E2836B14206D033
:100A60000B4A3C32914201D11A4600E02A4607491E
:100A700080394A60012180F82110002180F820107F
:100A8000416B01B188472046BDE8F09F80000240DD
:100A90000804024030B560B11A4B01681422994233
:100AA00009D2194B0B44B3FBF2F292000264174ACD
:100AB0000AE0012030BD134B5B420B44B3FBF2F262
:100AC000920002640F4A083AC263022280F8212091
:100AD0000A6843F6F0739A43F0E901342343D0E9FE
:100AE00002452C4323430469234344692343846917
:100AF000234313430B6000214163012242770177B6
:100B0000084630BD08040240F8FFFDBF0000024067
:100B10002DE9F84FDFF8C0910024A9F1040B23461A
:100B20004FF00F0809F1040AABF1040ECCE00127E5
:100B3000A7403A40BA4272D1DFF8A0C14D68A5EB98
:100B40000C0665452BD00DDC032D34D005DC35B308
:100B5000012D19D0022D2FD11BE0112D16D0122DF1
:100B60002AD119E0B6F5881F19D006DCB6F5803F0A
:100B700015D0B6F5801F1FD111E0B6F5001F0ED0BD
:100B8000B6F5041F18D10AE0CB6815E0CB681B1D31
:100B900012E0CB6808330FE0CB680C330CE08B68B5
:100BA0002BB1012B4FF0080303D0476104E004236D
:100BB00002E0076100E00023FF2A01D8064601E0B9
:100BC00000F104064FEA840501D9A5F12005376834
:100BD00008FA05FC27EA0C0703FA05F547EA0507BA
:100BE00037604D68ED006ED53D4DAE6946F00106AB
:100BF000AE61AD6924F0030605F001050095394D9D
:100C00007719BE68A5072D0F08FA05FC26EA0C0621
:100C1000DFF8D4C0604503D14FF0000C25E052E06E
:100C2000DFF8C8C0604502D14FF0010C1DE0DFF8CD
:100C3000C0C0604502D14FF0020C16E0DFF8B4C02E
:100C4000604502D14FF0030C0FE0DFF8ACC0604507
:100C500002D14FF0040C08E0DFF8A0C0604502D1DB
:100C60004FF0050C01E04FF0060C0CFA05FC4CEAC5
:100C7000060CC7F808C04D68D9F80060ED024D4673
:100C800001D5164300E096432E604D68DAF8006007
:100C9000AD02554601D5164300E096432E604D68DF
:100CA000DBF80060AD035D4601D5164300E09643D6
:100CB0002E604D68DEF80060ED03754601D51643E1
:100CC00000E096432E60641C0A6832FA04F57FF453
:100CD0002EAFBDE8F88F000008040140000011109D
:100CE000001002400000014000080140000C0140DB
:100CF000001001400014014000180140001C014098
:100D00008068084000D001207047C26821EA0203D1
:100D10000A4043EA0241016170470AB1016170472C
:100D20000904FBE7014880687047000000000020CC
:100D300070B5040025D094F83D00002520B984F852
:100D40003C50204600F04EF9242084F83D002068F5
:100D5000016821F0010101602068016841F400414F
:100D600001602068016821F40041016000F09CFAF4
:100D70004D4B6168994201D84C4900E04C4988428A
:100D800001D2012070BD4B492268B0FBF1F15668D9
:100D900026F03F060E43566062689A4206D94FF429
:100DA000967251434FF47A72B1FBF2F12268491CFA
:100DB000166A26F03F06314311626168994210D8E5
:100DC0004900401EB0FBF1F2521CC2F30B02042A90
:100DD00001D2042022E0B0FBF1F0401CC0F30B0074
:100DE0001CE0A268F2B301EBC10303EB0116431E42
:100DF000B3FBF6F35B1C43F480431B0549D092B36D
:100E000001EBC10202EB0111401EB0FBF1F0401CEE
:100E1000C0F30B0040F4804040F400402168CA69F0
:100E20004CF6FF739A431043C861D4E9071001439D
:100E30002068026822F0C00211430160D4E9030176
:100E400001432068826848F2FF339A43114381606E
:100E5000D4E9051001432068C26822F0FF02114363
:100E6000C16001E00EE016E02068016841F0010178
:100E700001602564202084F83D00256384F83E50FD
:100E8000002070BD01EB4106431EB3FBF6F35B1C73
:100E9000B3E70120C2E701EB4101401EB0FBF1F0D6
:100EA000401CC0F30B00B7E7A086010080841E0041
:100EB00000093D0040420F002DE9F84F1F469046C3
:100EC0008A460446DDF82890FFF72CFF054694F883
:100ED0003D0020287FD1192301224049204600955A
:100EE00000F03FFF002876D194F83C00012872D032
:100EF000012084F83C0020680168C90703D101681B
:100F000041F0010101602068016821F40061016085
:100F1000212084F83D00102084F83E00002626643D
:100F2000C4F824806785608D20852D48E0622B46BB
:100F30004A465146204600F09BFE90B92068416920
:100F40008069009036E02A464946204600F0AAFF14
:100F500050B1206C042804D12068016841F400716C
:100F600001600120BDE8F88F606A2168007808619F
:100F7000626A521C6262608D401E6085208D401E38
:100F800080B2208521684B69DB435B070BD450B1ED
:100F900010780861606A401C6062608D401E608548
:100FA000208D401E20852A464946204600F0AEFE90
:100FB0000028CED1208D0028C5D154F83D0B016802
:100FC00041F400710160202004F81E09E67766777D
:100FD0000020C7E7FFE70220C4E70000020010007E
:100FE0000000FFFF10B586B0002100910191029131
:100FF000039100680F4988421AD10F4CA06940F054
:101000000800A061A069694600F008000490C020B3
:10101000009012200190032003900848FFF778FD0C
:10102000E06940F40010E061E06900F40010049011
:1010300006B010BD0054004000100240000C0140FA
:1010400002488168027811448160704700000020E6
:10105000074810B5016841F010010160032000F05D
:1010600075F80F2000F006F800F024F8002010BDFD
:101070000020024070B50D4D04464FF47A71287877
:10108000B1FBF0F00A490968B1FBF0F000F066FB33
:1010900048B9102C07D200222146501E00F036F825
:1010A00000206C6070BD012070BD000000000020B9
:1010B0000C0000200C4808B5816941F001018161F4
:1010C000816901F001010091C16941F08051C16164
:1010D000C069064900F080500090486820F0E06048
:1010E00040F00070486008BD001002400000014060
:1010F000002809DB00F01F02012191404009800017
:1011000000F1E020C0F8001170470000F0B40E4B71
:101110001B68C3F30223C3F10704042C00D9042481
:101120001D1D072D01D2002300E0DB1E012606FA5B
:1011300004F56D1E0D409D409E40761E164045EA0A
:101140000601F0BC01F0C4BB0CED00E0064A00F063
:10115000070110684FF6FF03184040EA01200349D9
:1011600008431060704700000CED00E00000FA0535
:101170002DE9F0470D46040067D0DFF81881D8F854
:10118000000000F00700A8420CD2D8F8001021F0AF
:1011900007012943C8F80010D8F8000000F0070044
:1011A000A84252D120683C4E810712D5400703D592
:1011B000706840F4E06070602078000703D57068C4
:1011C00040F4605070607068A16820F0F00008433F
:1011D00070602078C00727D06068012810D031687F
:1011E000022810D0890700292FDA716821F0030145
:1011F00001437160FFF796FD074641F288390CE024
:1012000031688903EFE78901EDE7FFF78BFDC11B2B
:10121000494502D90320BDE8F0877068616800F095
:101220000C00B0EB810FF0D1D8F80010404601F06F
:101230000701A9420BD9016821F007012943016088
:10124000006800F00700A84201D00120E3E7207801
:10125000400705D57068E16820F4E06008437060DD
:101260002078000706D57068216920F4605040EAB4
:10127000C100706000F038F87168084AC1F30311CA
:10128000515CC8400649086006480068FFF7F2FE56
:101290000020C0E700200240001002404E4300083A
:1012A0000C0000200400002004480549006849683B
:1012B000044AC1F30221515CC84070470C00002071
:1012C000001002405E430008044805490068496870
:1012D000044AC1F3C221515CC84070470C00002091
:1012E000001002405E4300080E4B59680E4801F0A2
:1012F0000C02042A11D0082A0FD10C48C1F38342F2
:10130000C903805C0AD55968084AC1F34041921E5E
:10131000515C054A5043B0FBF1F070470449484323
:10132000704700000010024000127A003E4300089F
:1013300000093D002DE9F84F04006FD02078BE4D24
:10134000C00747D06868C0F38100012807D06868EB
:10135000C0F38100022809D16868C00306D5286857
:10136000800337D560680028E7D033E06068B0F5C7
:10137000803F0BD010B1B0F5A02F11D0286820F419
:1013800080302860286820F4802002E0286840F43B
:1013900080302860606888B1FFF7C4FC064609E029
:1013A000286840F480202860F0E7FFF7BBFC801B32
:1013B000642873D828688003F7D50BE0FFF7B2FCE8
:1013C000064604E0FFF7AEFC801B6428F1D82868CD
:1013D0008003F7D42078DFF8648280074FF0010A99
:1013E0004FF0000939D5686810F00C0F07D0686815
:1013F000C0F38100022809D16868C00306D42868B8
:10140000800714D52069012808D110E02069B0B107
:10141000C8F800A0FFF786FC064605E007E1FFF7E5
:1014200081FC801B0228C4D828688007F7D528686B
:10143000616920F0F80040EAC10028600DE0C8F8BA
:101440000090FFF76FFC064604E0FFF76BFC801B83
:10145000022823D828688007F7D4207800072CD5E5
:101460007748A169D9B1C0F800A0FFF75BFC064638
:1014700004E0FFF757FC801B02280FD8686A80073A
:10148000F7D570484FF4FA510068B0FBF1F00090C6
:1014900000BF0098411E0091FAD20EE07CE0C0F837
:1014A0000090FFF73FFC064604E0FFF73BFC801B83
:1014B000022871D8686A8007F7D4207840075BD586
:1014C000E8690027C00008D4E86940F08050E8616E
:1014D000E869012700F0805000905B480168C90569
:1014E00011D40168834641F480710160FFF71AFC52
:1014F000064604E0FFF716FC801B64284CD8DBF896
:101500000000C005F6D5E06801280AD008B105281A
:1015100013D0286A20F001002862286A20F0040015
:1015200002E0286A40F001002862E06841F2883B4E
:1015300088B1FFF7F7FB064609E0286A40F004008F
:101540002862EEE7FFF7EEFB811B59455BD8286A5E
:101550008007F7D50BE0FFF7E5FB064604E0FFF751
:10156000E1FB811B59454ED8286A8007F7D41FB18B
:10157000E86920F08050E861E069A8B36968C1F3C8
:101580008101022946D00228484606D0C8F86000EA
:10159000FFF7C8FB044639E035E04746C8F860006D
:1015A000FFF7C0FB064604E0FFF7BCFB801B0228E8
:1015B00029D828688001F7D4206AB0F5803F05D18A
:1015C0006868A16820F4003008436860D4E9080125
:1015D0000843696821F4741108436860C7F860A083
:1015E000FFF7A0FB044605E023E0FFF79BFB001B91
:1015F000022808D828688001F7D51AE0FFF792FB87
:10160000001B022802D90320BDE8F88F286880015A
:10161000F4D40EE00128F7D06868226A00F4803123
:10162000914204D1616A00F47010884201D0012017
:10163000EAE70020E8E70000001002400000424214
:10164000800442420C0000200070004070B504008D
:1016500009D0606A002540B125616561A56294F8F2
:10166000510040B10CE0012070BD6068B0F5827F90
:10167000F4D0E561F2E784F85050204600F040F8DD
:10168000022084F851002068016821F040010160C7
:10169000A088218900F4827001F404410843A189E3
:1016A00001F400610843217C01F002010843217D1F
:1016B00001F001010843218B01F400710843217FEF
:1016C00001F03801084394F8201001F0800108432C
:1016D000218D01F40051084321680860A0690421AC
:1016E00001EA1040216848602068C16921F4006166
:1016F000C1616565012084F85100002070BD0000C3
:1017000000B585B00021009101910291039100681C
:101710000F4988421AD10F48816941F48051816193
:10172000816901F480510491816941F00401816172
:101730008069694600F004000490A0200090022017
:101740000190032003900448FFF7E2F905B000BDC3
:1017500000300140001002400008014010B5401E5A
:10176000B0F1807F01D3012010BD4FF0E024606113
:101770000F21601701F0ACF80020A0610720206164
:10178000002010BD18B5034690F84200202801D073
:10179000022018BD51B14AB10120186300205863DE
:1017A000184600F0FDFF010002D005E0012018BD41
:1017B000186B012802D00121084618BD186802687C
:1017C0004068009018680C3050E8002F42F010027A
:1017D00040E80024002CF5D1EEE7000010B50068C9
:1017E0000A4B984210D10A46094901F5907001F060
:1017F0000CFE20210648FEF7E2FCBDE81040202246
:1018000003490448FFF7BEBF10BD00000038014087
:10181000B40400201008002070470000F8B50168EB
:1018200004460868CA684B6910F00F0F4FF00005B6
:1018300059D003F0010602F49077374365D0C10711
:1018400005D0D10503D5616C41F001016164410708
:1018500005D5D90703D0616C41F0020161648107AD
:1018600005D5D90703D0616C41F00401616401071B
:1018700007D502F02001314303D0616C41F008012B
:101880006164616C00293AD0800604D5900602D5C7
:10189000204600F0C7FE20684069616CC0F38010EC
:1018A000090700D460B3204600F095FE2068406927
:1018B000400621D52068143050E8001F21F0400177
:1018C00040E80012002AF5D1E06BA8B16D494163F0
:1018D000E06BFFF747F8002811D0E06B416B01B0D7
:1018E000BDE8F040084783060FD593060DD5204686
:1018F000BDE8F84000F096BE2046FFF78DFFF8BD2A
:101900002046FFF789FF6564F8BD266B2023012E72
:101910007CD1C6067AD5D60678D508684868009086
:1019200048694FF00206400640D5E16B0868406800
:101930000004000CE8D0A28D8242E5D9E0858869D8
:1019400020282DD020680C3050E8001F21F4807131
:1019500040E80012002AF5D12068143050E8001F3A
:1019600021F0010140E80012002AF5D1206814306E
:1019700050E8001F21F0400140E80012002AF5D194
:1019800084F84230256320680C3050E8001F21F0B5
:10199000100140E80012002AF5D1E06BFEF7BEFF0F
:1019A0006663A08DE18D401A81B22AE0A08DE18DA1
:1019B000401A81B2E08D0028A6D00029A4D020686A
:1019C0000C3050E8002F22F4907240E80027002FDE
:1019D000F5D12068143050E8002F22F0010240E8D1
:1019E0000027002FF5D184F84230256320680C30A1
:1019F00050E8002F22F0100240E80023002BF5D120
:101A000066632046FFF7EAFEF8BDFFE705062BD523
:101A1000150629D594F841002128F5D1A068B0F524
:101A2000805F01D12069B0B1206A411C2162216828
:101A300000784860E08C401E0004000CE084E3D194
:101A40002068C16821F08001C1602068C16841F050
:101A50004001C160D8E7206A0088C0F308004860F0
:101A6000206A801C2062E5E74006CDD55006CBD524
:101A7000CA68204622F04002CA6084F8413000F073
:101A8000DEF8C1E7C725000870B5040004D094F85B
:101A90004100002510B106E0012070BD84F84050DF
:101AA000204600F023F8242084F841002068C16813
:101AB00021F40051C160204600F016FE2068016943
:101AC00021F4904101612068416921F02A014161BE
:101AD0002068C16841F40051C1606564202084F829
:101AE000410084F842006563002070BD70B586B087
:101AF000002406460094019402940394006822494D
:101B000088423FD12148816941F4804181618169E6
:101B100001F480410491816941F00401816180698F
:101B20001B4D00F0040004904FF400700090022060
:101B300001900320039069462846FEF7E9FF281527
:101B4000CDE90004694628460294FEF7E1FF124DF4
:101B50001048C5E900048020C5E902402C616C6191
:101B6000AC612846EC61FEF795FF08B1FEF7D4FEA4
:101B7000F5630022114625206E62FFF7C7FA252083
:101B8000FFF7B6FA06B070BD003801400010024001
:101B900000080140580002405808002070472DE915
:101BA000F843044690F841001F4615460E4620288B
:101BB00002D00220BDE8F8838EB185B100206064B8
:101BC000212084F84100FFF7ADF8A5848146E58423
:101BD000A0684FF02008B0F5805F02D003E001203C
:101BE000E8E7206910B1354600260EE000250CE03C
:101BF0008021204600F0EFFDA0B9BDB115F8010B22
:101C000021684860E08C401EE084E08C4B464FF039
:101C1000000200970028EBD14FF04001204600F071
:101C2000DAFD40B184F841800320C3E736F8020BA7
:101C3000C0F30800E4E784F841800020BAE7704769
:101C4000FEE701684A69D24352050FD46FF48062FF
:101C50004A61002140F8301F2022427381730269DB
:101C600042F00402026101730120704700207047B6
:101C7000F8B50446C06A1E460D461746082807D028
:101C8000012805D010F5803F02D0206B122804D126
:101C90002068016841F480710160134600224FF012
:101CA00001112046009600F05CF840B12068006801
:101CB000C00502D54FF4007020640320F8BD2069F0
:101CC000B0F5804F0ED00620216800EAD51040F014
:101CD000F000086133463A460B49204600F085F88B
:101CE00078B902E005F0FE0000E0E8B22168086182
:101CF000054933463A46891F204600F076F8002809
:101D0000DCD00120F8BD00000800010070B51646C7
:101D10000D4604461EE02046FFF793FF08B1012060
:101D200070BD681C16D0FEF7FDFF801BA84200D8CE
:101D300085B920684069C04340070BD5002044F8AE
:101D4000300F20216173A073216941F020012161CE
:101D50002073E4E720684069C0434007DBD40020DB
:101D600070BD2DE9F0471E4690460D460446C1F36E
:101D70000747DDF8209026E0701C24D0FEF7D2FF44
:101D8000A0EB0900B04200D8EEB92068012F16D0B0
:101D9000806925EA00000004000C12D000204045B4
:101DA00011D1002044F8300F20216173A073216904
:101DB00041F02001216120730120BDE8F0874069D6
:101DC000E7E70120EBE72068012F0AD0806925EAC8
:101DD00000000004000C06D000204045CCD00020BC
:101DE000EBE74069F3E70120F7E72DE9F047984674
:101DF00016460D4604464FF000094FF0200AC1F385
:101E0000074723E020684069C043400515D4206897
:101E1000016841F40071016021686FF480604861DD
:101E2000C4F8309084F83DA084F83E90216C41F0D5
:101E30000401216484F83C9020E0701C06D0FEF779
:101E400071FFA0EB0800B04203D816B1012F1ED0DD
:101E500020E02068012F14D0806925EA00000004EA
:101E6000000C17D044F8309F84F80DA084F80E9031
:101E7000216941F02001216184F80C900120BDE826
:101E8000F087406925EA00000004000CEAD12068D0
:101E9000406901E02068806925EA00000004000C28
:101EA000B0D1ECE770B516460D4604461EE020465C
:101EB000FFF7C7FE08B1012070BD681C16D0FEF701
:101EC00031FF801BA84200D885B920684069C04313
:101ED00000060BD5002044F8300F20216173A07359
:101EE000216941F0200121612073E4E72068406905
:101EF000C0430006DBD4002070BD000070B50D4665
:101F0000040012D0002D10D00848007800280CD012
:101F100028212046FEF753F9142229462046FEF7D1
:101F200035F9002020750120607570BD4400002047
:101F3000002807D0002905D0034B5A68C2E90001E8
:101F40000120187070470000440000202DE9F04780
:101F5000424F04463878404204420FD0607D68B159
:101F600078680026406880477968054620680968D7
:101F700088472179814204D1012003E00020BDE897
:101F8000F0870020237D0122022700214FF0060C5C
:101F90004FF00409082B5DD2DFE803F004070F17A8
:101FA000313D4A4F50B322752CE098B3A069A16827
:101FB000281A884250D3277535E0F8B903202075D8
:101FC000E561A069281A206246E008B1277543E060
:101FD000E069A268281A90423ED3A175E06820B15A
:101FE000226A824201D3022606E0206918B184F8F1
:101FF0001490656201E00126217521622CE018B180
:1020000005202075A56127E0606A2269281A9042A0
:1020100022D301261CE040B1A069A168281A884299
:102020001AD384F814C0A27516E084F8149013E053
:1020300090B907202075E5610EE010B184F814C056
:102040000AE0E069A268281A904205D30326A17528
:10205000217501E02175A175304690E7440000200C
:10206000054808B5416941F001014161406900F04E
:102070000100009008BD0000001002402DE9F0436F
:1020800085B000243448009401940294039481693B
:1020900041F040018161816901F040010491816951
:1020A00041F004018161816901F0040104918169B9
:1020B00041F010018161816901F010010491816991
:1020C00041F0080181618069244F00F0080004900C
:1020D000012220213846FEF720FE0022402138460A
:1020E000FEF71BFEDFF87880002230214046FEF725
:1020F00014FEDFF87090002201214846FEF70DFE25
:10210000012220214846FEF708FE182001258DE80F
:10211000310069463846FEF7FBFC60200226CDE917
:102120000005CDE9024669463846FEF7F1FC30204D
:10213000CDE90005CDE9024669464046FEF7E8FCD8
:102140002120CDE90005CDE9024669464846FEF763
:10215000DFFC05B0BDE8F08300100240001801402C
:1021600000100140000C01400D4810B50B49016002
:102170000C49416000214FF480428160C0E90312A4
:1021800041618161C1610162FEF7D2FD002803D087
:10219000BDE81040FEF7C0BB10BD00000054004079
:1021A00064070020A0860100104810B50E490160A8
:1021B0004FF48271416000218160C1604FF4007270
:1021C0000161C0E905121022C0E907214162816264
:1021D0000A21C162FFF73AFA002803D0BDE8104097
:1021E000FEF79ABB10BD000000300140B807002088
:1021F0000C4810B50A4901604FF4E13141600021FB
:1022000081600C22C160C0E904128161C161FFF7E5
:102210003BFC002803D0BDE81040FEF77DBB10BD9D
:102220000038014010080020FEE7FEE710B500214D
:10223000074C0A46002004EBC1131A54401CC0B2DC
:102240008028FAD3491CC9B20829F3D310BD000075
:1022500064000020F0B501EB030C20E00446871871
:1022600019E07F2C15D8002913DB3F2911DCCB178F
:1022700001EB5376F5100B4B26F0070603EBC51365
:102280002344A1EB060E1D78012606FA0EF6B5438F
:102290001D70641C24B2A742E3DC491C09B28C45C2
:1022A000DCDCF0BD6400002010B5AE2000F018F9B1
:1022B000D52000F015F9802000F012F9A82000F0D8
:1022C0000FF93F2000F00CF9D32000F009F90020AD
:1022D00000F006F9402000F003F9A12000F000F919
:1022E000C82000F0FDF8DA2000F0FAF8122000F023
:1022F000F7F8812000F0F4F8CF2000F0F1F8D920B1
:1023000000F0EEF8F12000F0EBF8DB2000F0E8F848
:10231000302000F0E5F8A42000F0E2F8A62000F05C
:10232000DFF88D2000F0DCF8142000F0D9F8AF20A1
:1023300000F0D6F8FFF77AFFBDE8104000F0BCB817
:102340000FB470B5C0B014460D46064648AA68469C
:10235000479900F0ABFA23466A462946304600F01A
:1023600095F840B070BC5DF814FB000001490968A5
:10237000086070473800002010B5891CCCB240F0CE
:10238000B00000F0ADF8102040EA141000F0A8F8FA
:1023900004F00F00BDE8104000F0A2B808B5082B0B
:1023A0000DD0062B0AD10A4B02EB420203EB42028C
:1023B000C03A00920823062200F00EF808BD054B33
:1023C00003EB0212A2F50072102300920822F3E739
:1023D000104A0008204400082DE9FF4F1F4616460A
:1023E0000D460024DDF834A00098FFF733FF7F1E70
:1023F000F81707EB50700121DFF88CB001EBE00E0D
:102400003DE0002037E000990B187F2B31D8E91709
:1024100005EB5171CA1021F00701691A002D03DA8A
:10242000521E083112B209B22244072A0ED804FB08
:1024300006F70AEB00080BEBC21917F8087019F839
:1024400003C08F404CEA070C09F803C0571C072F44
:102450000FD80BEBC21204FB06F70AEB000C1A4470
:1024600017F80C7012F8803FC1F10801CF403B43D0
:102470001370401CC0B2B042C5D3641CE4B2A64580
:10248000BFDCBDE8FF8F0000640000202DE9F041B3
:102490001D46164688460746002408E004FB0570E2
:1024A00000B22B464146FFF779FF641CE4B2325D6F
:1024B000002AF3D1BDE8F08170B5084D0024002159
:1024C0002046FFF759FF05EBC410802100F00FF8FC
:1024D000641CE4B2082CF2D370BD0000640000203C
:1024E00001B501226946002000F00CF808BD002863
:1024F00006D0002904D00A460146402000F002B868
:10250000704700002DE9F0430E4614490746A1B07C
:102510000868144600281ED0006800281BD0E94631
:102520008846002C17D0802C01D9802500E0254654
:102530008DF800702A46314609F10100FDF726FEAC
:10254000681C81B2D8F80000026868469047601B9A
:102550002E4484B2E5E721B0BDE8F08338000020C6
:1025600070477047FEF76CBD30B58FB028216846C4
:10257000FDF725FE14210AA8FDF721FE0120010424
:1025800000248DE8130004904FF4E010CDE908100A
:10259000022507956846FEF7CDFE08B172B6FEE744
:1025A0000F20CDE90A054FF48060CDE90C400221EF
:1025B0000AA80E94FEF7DCFD002801D072B6FEE7F3
:1025C0000FB030BD704710B5406A0021C185C1848D
:1025D000FFF722F910BD01680C3151E8002F22F4F9
:1025E000907241E80023002BF5D10168143151E8C5
:1025F000002F22F0010241E80023002BF5D1016BEE
:10260000012909D101680C3151E8002F22F0100294
:1026100041E80023002BF5D1202180F84210002151
:102620000163704708B590F84210222901D00220BA
:1026300008BD81684FF48053994201D1026922B1EB
:10264000826A99421BD049B10AE00268816A5268E5
:10265000C2F308020A80816A891C08E0016971B12D
:102660000168496801F07F011170816A491C81622B
:10267000C18D491E0904090CC18503D01BE0016806
:102680004968F1E70168CA6822F02002CA6001685F
:10269000CA6822F48072CA6001684A6922F00102A5
:1026A0004A61202180F8421000214163026B012A17
:1026B00003D0FFF773FA002008BD016301680C31F5
:1026C00051E8002F22F0100241E80023002BF5D141
:1026D00001680A68D20602D50A6849680091818DAE
:1026E000FFF77CF8E7E7000070B504460068016971
:1026F000E26821F4405111430161A168206901435E
:10270000606901432068C26841F20C639A430A433E
:10271000C26020684169A26921F44071114341619E
:102720001E492068884202D1FEF7CEFD01E0FEF787
:10273000BBFD00EBC00101EB00116068642280006A
:10274000B1FBF0F3B3FBF2F36FF018067343B1FB88
:10275000F0F5B1FBF0F605EB8305322303EB05152D
:10276000B5FBF2F5B6FBF2F605F0F00505EB061544
:10277000B1FBF0F6B1FBF0F0B0FBF2F06FF0180136
:10278000484306EB800003EB0010B0FBF2F0216839
:1027900000F00F002844886070BD00000038014040
:1027A00081628285C28500214164222180F8421025
:1027B000016921B10168CA6842F48072CA60016887
:1027C0004A6942F001024A610068C16841F0200193
:1027D000C160002070472DE9F8431F4690460D4622
:1027E0000446089E23E0701C21D0FEF79BFAC01B14
:1027F000B0421AD8CEB12068C168490717D5802DDC
:1028000015D0402D13D00168C94309070FD40168C2
:102810000025406800902046FFF7DDFE0820606438
:1028200084F840500120BDE8F8830320FBE72068CE
:10283000006835EA000004D000204045D3D00020D5
:10284000F1E70120F9E700000148FEF7E7BF0000CB
:1028500010080020FEE700000FB4054B10B503A9D7
:10286000044A029800F016F910BC5DF814FB000051
:10287000E93100084C0000207CB50C001D461646CE
:10288000014601D0601E00E00020CDE90010064B9B
:102890006A462946304600F0FDF8002C02D0009A26
:1028A000002111707CBD00009B31000837B5144633
:1028B0000846064B6A46214600F0ECF80446694695
:1028C000002000F075FC20463EBD0000B13100083C
:1028D0000907090E002804DB00F1E02080F800144D
:1028E000704700F00F0000F1E02080F8141D7047E1
:1028F00002E008C8121F08C1002AFAD170477047C9
:10290000002001E001C1121F002AFBD17047000026
:102910002DE9FF5F82B00021DDE90430020DDDF812
:1029200040B0034318D044F61050A2F2FF324243A5
:102930001514119801281FD0A5EB0B00401C5FEA6D
:10294000000A4FF000064E4FDFF83891B04650466F
:1029500015D5CAF1000413E0119801244AA30128F7
:1029600001D16FEA0B010298119AC0E90031C0E968
:10297000024206B0BDE8F09FCBF10000DFE704465D
:102980000021404A491842EB0450CDE9001012E002
:10299000E00707D032463B4640464946FDF73FFD3B
:1029A0008046894632463B4610461946FDF737FDBC
:1029B00006460F466410002CEAD1DDE90401DDE98A
:1029C0000023BAF1000F06DAFDF729FD42464B4617
:1029D000FDF725FD05E0FDF794FD42464B46FDF76A
:1029E00090FD04460E460022284BFDF707FE03D853
:1029F0004FF0FF30014607E00022254B20463146CC
:102A0000FDF766FCFDF70EFF102409E0002C0ADB41
:102A10000A220023FDF720FE039B30321A55641E64
:102A200050EA0102F2D1641C039AC4F11103144468
:102A3000119A012A03D0012208430DD10AE008436C
:102A400004D000204FF0110B119072E7A3EB0B059F
:102A50006D1E0DE05B4504DD4FF0000205F1010540
:102A600004E003DA4FF00002A5F10105002AECD0E2
:102A700002981199C0E90231C0E9004579E70000E8
:102A8000000014400000F03F300000000000F04360
:102A90000000E03F2DE9FF4F95B09A468846064674
:102AA0000025EEE1252877D100242746F94A0121A7
:102AB000039400E0044316F8013F203B01FA03F0C1
:102AC0001042F7D130782A2811D06FF02F033078D8
:102AD000A0F13002092A16D8039A44F0020402EB4E
:102AE000820203EB42021044761C0390EFE758F891
:102AF000042B0392002A03DA504244F4005403905A
:102B000044F00204761C30782E2816D116F8010FF6
:102B100044F004042A280DD06FF02F023078A0F181
:102B20003003092B09D807EB870302EB4303C718CF
:102B3000761CF3E758F8047B761C30786C280FD0AD
:102B400006DC4C2817D068280DD06A2814D104E080
:102B5000742810D07A280FD10DE044F400140AE054
:102B600044F4801401E044F440147278824202D1AB
:102B700004F58014761C761C307866280BD013DCA4
:102B8000582877D009DC002875D04528F6D046288B
:102B9000F4D047281AD193E118E0632835D064288F
:102BA00079D0652812D18BE1702873D008DC6728B2
:102BB000F1D069286FD06E280DD06F2806D1ACE017
:102BC00073282CD0752874D0782853D05246179982
:102BD00090476D1C54E1C4F30250022809D0032829
:102BE0000DD0D8F8001004280DD00D6008F10408AD
:102BF00046E1D8F80010EA17C1E90052F6E7D8F824
:102C000000100D80F2E70D70F0E718F8041B8DF846
:102C1000001000208DF80100EB46012003E058F879
:102C200004BB4FF0FF3061074FF0000102D40DE00C
:102C300009F101018946B9420FDA8145F8DB1BF839
:102C400009100029F4D108E009F101018946814207
:102C5000FADB1BF809100029F6D103985346A0EBC4
:102C6000090721463846179A00F080FA284400EBFD
:102C7000090507E044E008E10DE01BF8010B5246AE
:102C800017999047B9F10109F7D2534621463846C2
:102C9000179AF2E039E00A21C4F302524FF0000B18
:102CA0000091022A06D058F8040BC117032A09D054
:102CB0000AE023E008F1070020F00702F2E8020131
:102CC000904605E000B2C117042A01D140B2C117F5
:102CD000002906DA0A460021404261EB02012D225A
:102CE00002E0220504D52B228DF80420012203E006
:102CF000E20701D02022F7E7914657E00A2100E0E1
:102D000010214FF0000B00910BE010214FF0000B51
:102D100044F004040827009103E008204FF0000B62
:102D20000090C4F30252022A05D058F8040B002187
:102D3000032A08D008E008F1070020F00702F2E8B3
:102D40000201904603E080B2042A00D1C0B24FF0E5
:102D5000000922072AD53278702A07D0DDF800C092
:102D60008CF0100C5CEA0B0C05D00EE040228DF8C4
:102D70000420012208E050EA010306D030238DF838
:102D800004308DF8052002229146009B83F0080351
:102D900053EA0B030AD150EA010201D1620705D5BB
:102DA00030228DF804204FF001097F1E3278582A16
:102DB00004D039A20C920CAA02920BE03BA2F9E7D4
:102DC0005B46009AFDF748FC0C9B9B5C029A521EE6
:102DD0000292137050EA0102F2D1029804A9081A73
:102DE00000F1200B600702D524F4803400E00127B5
:102DF0005F4502DDA7EB0B0000E0002000EB0B01BC
:102E0000009003984944401A0390E00306D45346C7
:102E10002146179A039800F0A9F90544002706E017
:102E200001A85246C05D179990476D1C7F1C4F4505
:102E3000F6DBE0030CD553462146179A039800F0C1
:102E400095F9054404E030205246179990476D1CCF
:102E50000099481E00900029F5DC08E002980299CC
:102E600052460078491C0291179990476D1CBBF19E
:102E70000001ABF1010BF1DC5BE100F065F9054409
:102E8000761C307800287FF40DAE19B02846BDE8D6
:102E9000F08F0000092801003031323334353637E5
:102EA0003839616263646566000000003031323396
:102EB0003435363738394142434445460000000036
:102EC000600700D4062708F1070020F00700F0E8AB
:102ED0000223804603F0004C5FEA0C0001D097A06B
:102EE00009E0200501D596A005E0E00701D095A0F6
:102EF00001E0AFF24C001390307823F000436528D6
:102F00000CD006DC452809D046281DD047287FD1A3
:102F10003BE0662818D067287AD136E00021112FCF
:102F200001DB112000E0781CCDE9000104A90CA808
:102F3000FFF7EEFCDDE90D010C9A4FF0000B07F1F5
:102F40000109109200914EE04FF000400097CDE94A
:102F5000011004A90CA8FFF7DBFCDDE90D020C9BB6
:102F60000F994FF0000B91461093009211B9791C04
:102F700000EB0109B7EB090003D4C0F1FF3B07F1F7
:102F80000109A9EB0700019042E0012F00DA0127B7
:102F90000021112F01DD112000E03846CDE90001AC
:102FA00004A90CA8FFF7B4FCDDE90D010C9A00910F
:102FB0004FF0000BB946109221070FD4009A4A45F2
:102FC00003DA914601E0A9F10109B9F1010F05DD2C
:102FD000109AA9F10101515C3029F4D0B84202DA0B
:102FE00010F1040F03DA0121CDE9011010E00028EF
:102FF00003DC8344A9EB000102E0411C494500DDEC
:103000008946A0EB0B00401C01904FF0004002905D
:10301000200705D40198484502DB4FF0FF300190AE
:1030200000208DF84B0002980DF14B07B0F1004FD6
:1030300025D002200C902B200D90029800280CDA4D
:10304000404202902D200D9007E00A210298FDF7E2
:10305000EDFA3031029007F8011D0C99481E0C90D2
:103060000029F2DC02980028EFD1791E0D98087033
:10307000307800F0200040F0450007F8020D11A85C
:10308000C01BC01D02901398007800B1012000EB16
:103090000901019801EBE071029801440398401A7C
:1030A000401E0390E00306D453462146179A039826
:1030B00000F05CF805441398007818B1524617994F
:1030C00090476D1CE00323D553462146179A039879
:1030D00000F04CF805441BE0BBF1000F07DB009843
:1030E000584504DD1098179910F80B0001E0179966
:1030F00030205246904701980BF1010B401E05F11C
:103100000105019004D12E205246179990476D1C5D
:10311000B9F10001A9F10109DEDC05E017F8010BA6
:103120005246179990476D1C0299481E029000293B
:10313000F4DC53462146179A03989EE62D000000C2
:103140002B000000200000002DE9F041044600257E
:103150001E461746880404D405E039462020B047AF
:103160006D1C641EF9D52846BDE8F0812DE9F041BB
:10317000044600251E469046C80301D5302700E0CE
:103180002027880404D505E041463846B0476D1C29
:10319000641EF9D52846BDE8F0814A68002A06D0A9
:1031A0000A68531C0B6010704868401E48607047E6
:1031B0000A68531C0B6010707047000038B50C464D
:1031C000054600F05FFD2919009123462A4602A119
:1031D00000F082FF38BD00002564202B20256420EC
:1031E0003D2025640D0A000013B54FF0FF33012286
:1031F00069460248FEF7D3FC00981CBD1008002069
:10320000FDF790BD10B5084A012802D0022802D06F
:1032100007E0082100E010211046FDF771FD0028AD
:1032200000D0012010BD00000018014010B500F0D2
:1032300029FDBDE8104001A100F04EBF48656C6C4F
:103240006F2066726F6D2053544D3332210D0A008A
:10325000FDF7FEFEFFF788F9FEF710FFFEF700FF0F
:10326000FEF7A2FFFEF780FFFEF7C2FFFDF704FBAB
:10327000FDF746FB26A0FFF7EFFA002127A308225F
:103280000846FFF75DF8FFF717F928494FF48072F9
:1032900001F5807000F081F824492022203924486B
:1032A000FEF770FA24482349C0F878112349C0F882
:1032B000741100F029FE224EDFF888804FF0FF37AE
:1032C0001A487038FEF742FE054618484838FEF79F
:1032D0003DFE04465DB1012D09D120213046FDF7A8
:1032E00014FD3B46122218A11148FEF758FC5CB1B0
:1032F000012C09D120214046FDF707FD3B46122253
:1033000016A10B48FEF74BFC0B4800F0F3FFD7E784
:1033100068656C6C6F20776F726C640048656C6CCC
:103320006F2C204F4C45442100000000D4040020A5
:103330001008002025430008E40500200141000892
:10334000000C0140001801404B6579312053686F33
:1033500072742050726573730D0A00004B657932E8
:103360002053686F72742050726573730D0A0000E9
:10337000884200D308467047D0E902218A4201D32F
:10338000501A70474068891A401A704700B50346C2
:10339000FFF7F2FF5968081A00BDC0E900120021CA
:1033A0008160C16070472DE9F04113460D46044627
:1033B000FFF7E2FF01461846FFF7DAFF0646E1682D
:1033C0006068411A3046FFF7D3FF0146002005E050
:1033D000E36822681A44825C2A54401C8842F7D36E
:1033E0000020721A04E023680F181B5CEB55401C88
:1033F0008242F8D8E06861683044B0FBF1F201FB2A
:103400001200E0603046BDE8F0812DE9F04116463B
:103410000D460446FFF7BAFF01463046FFF7A8FF06
:103420000646D4E90101411A3046FFF7A1FF0146E3
:10343000002005E0A76823682A5C3B44C254401C76
:103440008842F7D30020721A04E00B182768EB5C5F
:103450003B54401C8242F8D8A06861683044B0FBFD
:10346000F1F201FB1200A0603046BDE8F08110B51A
:10347000044690F8720100F00302012A29D0022AC2
:103480002DD1412906D0422906D0432909D044290B
:103490001CD112E0002100E00121204600F0E6FCF2
:1034A00014E0208FE18E884210D2211D415C20461D
:1034B00000F0BEF8208F401C07E0208F30B10821BB
:1034C000204600F0B5F8208F401E208794F8720146
:1034D00001E05B2904D020F0030084F8720110BDE4
:1034E00020F00300801CF8E790F8721121F003012E
:1034F000491C80F87211704770B5C18E04460029CE
:103500004BD0208F0023221D88420BD1491E89B247
:10351000E186401E20878B542046BDE87040012183
:1035200000F064B8002838D0002006E02144051DD2
:103530004E5DC51C401C4E5500B2E58E218F6D1AA4
:103540008542F3DCE08E401E80B2E086218F491E6A
:10355000218783540821204600F06AF8B4F93850D6
:1035600006E060190179204600F062F86D1C2DB26A
:10357000E08EA842F5DC2021204600F059F8E08ECC
:10358000218F401A401C05B205E00821204600F0BA
:103590004FF86D1E2DB2002DF7DC70BD10B500F098
:1035A00071FB002804D0BDE8104002A100F02CB847
:1035B00010BD00001B5B324A1B5B3148000000005D
:1035C00070B50546C08E298F401A04B205E020214F
:1035D000284600F02DF8641E24B2002CF7DCE98E9A
:1035E0002846BDE8704000F001B8000070B50C46F8
:1035F000054603E003A1284600F006F8641EA4B2C5
:10360000F8D270BD0820080070B50646D0F87801E1
:1036100000250C4600280AD005E0D6F87811641C75
:1036200088476D1CADB220780028F6D1284670BDC1
:10363000D0F87821002A01D00846104770470000D2
:1036400070B50646D0F85C0100EB011530462968DC
:10365000FFF7DAFFC0F1160004B2002C00DC0424EE
:103660000AA13046FFF7D0FF641E24B2002CF7D128
:1036700007A13046FFF7C8FF3046A968FFF7C4FF2F
:103680003046BDE8704003A1FFF7BEBF2000000038
:103690002D2D00000D0A00002DE9FE4380460D008F
:1036A00021A02C4607C88DE807004FF00A076E4698
:1036B00004D520A14046FFF7A7FF64420A2054B179
:1036C000B4FBF0F100FB1141B4FBF0F47F1EFFB23C
:1036D0003031F155F3E7F1194DB10020091A404698
:1036E000FFF792FF082100208DF808000CE0012070
:1036F000F4E705F00F00092801D9573000E0303019
:10370000491EC9B22D097054002DF2D10AA14046BC
:10371000FFF77AFF69464046FFF776FF08A140466B
:10372000FFF772FFBDE8FE8330303030303030308C
:10373000303000002D0000002C2030780000000008
:103740000D0A000070B5054608780C46242800D103
:10375000611C2846FFF758FF06A12846FFF754FFD3
:103760002146284600F0A2FA01462846BDE87040EE
:10377000FFF792BF203D20002DE9F04704460025C9
:10378000C08E01262F46A94600287DD0221D431C4D
:10379000A846E38600F80280A4F85A81B4F95801DB
:1037A00000EBC00101EB001004EB4000211D2A30AA
:1037B000FCF710FD10B3B4F9580100EBC00101EBA8
:1037C000001104EB4100211D5C3000F00FFD20B121
:1037D000B4F85801401CA4F85801B4F85601401C34
:1037E00080B2A4F85601052802D90521A4F8561183
:1037F000B4F95801052801DBA4F85881002029E01C
:103800003FB92118097920291ED009291CD02C295B
:103810001AD021180A79BAB1222A01D11FB1002782
:10382000012E02D008E00127FAE70A1D04EB850308
:103830006D1CEDB20026DA630A795C2A08D1497959
:1038400031B1401C80B203E02218012682F80480C6
:10385000401C80B2E18E8142D2D8A4F83680A4F810
:1038600038808DB131A12046FFF7CEFE30A1D4F8CB
:103870005C71E06BFCF7AEFC010004F13C0807D082
:10388000E16B0878242800E04AE012D000261DE011
:1038900094F87201414640F0040084F87201284611
:1038A00000F07EFA94F8720120F0040084F87201AE
:1038B00036E02046FFF746FF32E007EB06100168CE
:1038C000E06BFCF787FC48B1761CB6B2B4F8600137
:1038D000B042F2D8B9F1000F1DD021E094F8720186
:1038E000424640F0040084F8720107EB06102946B6
:1038F000406800F017F994F87211054621F00401B0
:1039000084F872110CA12046FFF77EFE294620465E
:10391000FFF7C2FE04E00B4881692046FFF774FE02
:1039200020462168BDE8F047FFF76EBE0D0A000093
:1039300068656C700000000052657475726E3A2004
:103940000000000010000020411C00200A785C2AC2
:1039500001D01046704749786E290FD004DC302919
:10396000F8D0622904D105E0722905D0742907D066
:1039700008467047082070470D2070470A2070479E
:10398000092070472DE9F0410746002100780A26FA
:1039900001230D460C462D2800D14B1E581C08D083
:1039A00000203844002290F800C0BCF1300F02D053
:1039B0001CE00120F5E74278782A07D0582A05D084
:1039C000622A05D0422A03D002220FE003220DE032
:1039D00001220BE090F800C0BCF12E0F06D190F848
:1039E00001C0BCF1000F01D0042204E010F801CBAB
:1039F000BCF1000FEED1012A08D0022A03D0032A1D
:103A000006D1102603E00826012101E0022602214A
:103A10003944581C02D0002001441FE00120FBE77C
:103A20002E2805D0A0F13007092F03D8F8B20FE0F7
:103A3000012412E0A0F16107052F01D8573804E0F6
:103A4000A0F14107052F02D83738C0B200E00020AE
:103A500005FB060504EB84004400491C0878002897
:103A6000DED1042A13D194B11846FCF7B9FD0646FD
:103A70002046FCF7BEFD04462846FCF7BAFD214669
:103A8000FCF7E8FB3146BDE8F041FCF7B1BB05FBB4
:103A900003F0BDE8F0812DE9F041044600782728C5
:103AA0000AD02D2803D0A0F1300109290CD82046D6
:103AB000BDE8F041FFF766BF61780029F3D02046EA
:103AC000BDE8F041FFF740BF242807D000281FD0F1
:103AD00000262546374622280AD014E061780029BE
:103AE000F6D000F0CFF82146BDE8F04100F0DEB896
:103AF0006C1C254607E05C280CD0222810D0A85565
:103B0000761CB6B2641C20780028F4D1AF55284644
:103B1000BDE8F081601EFFF717FFA855641CEFE7B2
:103B2000AF55EDE72DE9FE4F1446054609297DD234
:103B3000DFE801F0A4050A121F314862820003B0D9
:103B4000AC46BDE8F04F60475068FFF7A4FF03B0F4
:103B5000AC46BDE8F04F6047A068FFF79CFF064603
:103B60006068FFF798FF03B03146AC46BDE8F04F00
:103B70006047E068FFF78FFF0746A068FFF78BFFFD
:103B800006466068FFF787FF03B03A463146AC4609
:103B9000BDE8F04F60472069FFF77DFF0746E0680A
:103BA000FFF779FF8046A068FFF775FF064660685B
:103BB000FFF771FF03B03B4642463146AC46BDE8D5
:103BC000F04F60476069FFF766FF07462069FFF71F
:103BD00062FF0646E068FFF75EFF8146A068FFF7D8
:103BE0005AFF80466068FFF756FF33464A46414613
:103BF0000097A847BDE8FE8FA069FFF74CFF8246FB
:103C00006069FFF748FF81462069FFF744FF0746D8
:103C1000E068FFF740FF0646A068FFF73CFF8046DC
:103C20006068FFF738FF3B46324600E026E0CDE90A
:103C3000009A4146A847DDE7E069FFF72CFF83467D
:103C4000A069FFF728FF82466069FFF724FF8146DD
:103C50002069FFF720FF8046E068FFF71CFF07465A
:103C6000A068FFF718FF06466068FFF714FF8DE8AD
:103C7000000E43463A463146A847BBE74FF0FF30B7
:103C8000B8E70000084A002052F8201031B191F83E
:103C90007211490702D552F820007047401C00B24B
:103CA0000528F1DB00207047500000202DE9F04787
:103CB0008046D0F86491087800260F46242800D169
:103CC0004F1C00251BE009EB051438462168FCF762
:103CD00081FA90B9E06805280FD2DFE800F003060A
:103CE0000A0D0D006068066807E06068B0F90060C2
:103CF00003E06068067800E066686D1C2DB2B8F8D5
:103D00006801A842DFDC3046BDE8F0872DE9F041CC
:103D1000054690F872010E4680070CD02846FFF742
:103D2000A6FB95F87201092E35D020F0080085F821
:103D30007201BDE8F08100200446D5F86C710CE0FA
:103D400017F83410B14206D107EBC400416809B13D
:103D5000284688470120641C24B2B5F87011A1429E
:103D6000EEDC0028DDD10D4F002417F83410B142ED
:103D700006D107EBC400416809B1284688470120F5
:103D8000641C24B2062CF0D30028CAD13146284640
:103D900000F046F9C5E740F00800C8E768430008AE
:103DA0002DE9F0410F460346FFF76CFF05001AD0DE
:103DB000DFF89C80012B05D0022B14D10024D5F80C
:103DC0005C611BE02846D8F81010FFF71DFC0024AA
:103DD00005E021462846FFF733FC641CA4B2B5F881
:103DE0006001A042F5D8BDE8F08106EB041001683F
:103DF0007868FCF7EFF940B1641CE4B2B5F86001F3
:103E0000A042F2D8D8F818101CE012A12846FFF7FB
:103E1000FBFB06EB041428462168FFF7F5FB11A114
:103E20002846FFF7F1FB2846A168FFF7EDFB0EA13E
:103E30002846FFF7E9FBE1680029D4D02846FFF7C0
:103E4000E3FB09A12846BDE8F041FFF7DDBB000018
:103E500010000020636F6D6D616E642068656C708A
:103E6000202D2D003A0D0A000D0A000070B5044601
:103E7000002561B1012909D1B4F85A01401C00B2F2
:103E8000A4F85A01002819DDA4F85A5170BDB4F9FC
:103E90005A21501EA4F85A01B4F85611B4F9580129
:103EA000814201DD0B4600E003465B429A4205DC9D
:103EB000814200DD08464042A4F85A012046FFF73F
:103EC0007FFBB4F95A01E0B1B4F958110844052157
:103ED000401D90FBF1F201FB120000EBC00101EB71
:103EE000001004EB4001201D5C3100F07FF9E086FA
:103EF0000028CBD02087211D2046BDE87040FFF769
:103F000083BBE586258770BD10B504460020E0869A
:103F10002087A4F85601A4F85801A4F85A0194F88F
:103F20007201194920F00F0084F8720113A020607B
:103F3000002051F82020EAB1401C00B20528F8DB2F
:103F4000124801682046FFF75FFB20462168FFF713
:103F50005BFB0F480F49C4F85C01081A0009A4F87C
:103F600060010D480D49C4F86401081A0009A4F85D
:103F7000680110BD41F82040E2E700000D0A6C65C1
:103F8000747465723E3E0000500000201000002056
:103F9000D04E0008304F0008000000000000000074
:103FA0002DE9F041FFF76EFE06002ED01848D6F836
:103FB000648141693046FFF727FB002421E008EBCC
:103FC000041730463968FFF71FFBC0F116000504DF
:103FD0002D0C00D104250FA13046FFF715FB6D1EF7
:103FE0002D042D0CF7D10CA13046FFF70DFB304608
:103FF000B968FFF709FB09A13046FFF705FB641C10
:1040000024B2B6F86801A042D9DCBDE8F081000016
:1040100010000020200000002D2D00000D0A0000DF
:1040200070B50A00044644D0E08E312842D2218F78
:10403000231D88420BD1411CE186C254208F1146BA
:10404000401C20872046BDE87040FFF7F1BA401AB7
:1040500006E0218FC51C21444E5D051D401E4E55B6
:1040600000B20028F5DC208F411C2187C254E08E6D
:104070000021401C80B2E08620440171208F401E48
:1040800005B206E0601901792046FFF7D1FA6D1CF0
:104090002DB2E08EA842F5DC218F80B2401A05B225
:1040A00005E008212046FFF7C3FA6D1E2DB2002D52
:1040B000F7DC70BD0748C1692046FFF7A5FA204626
:1040C0002168FFF7A1FA211D2046FFF79DFAE08E37
:1040D000208770BD100000200FB410B5A0B0040000
:1040E00009D024AB7F216846239AFEF7C5FB6946B9
:1040F0002046FFF789FA20B010BC5DF814FB0000E1
:1041000010B5014601220548FFF74DF9012802D0FC
:104110004FF0FF3010BD002010BD0000D40500207E
:104120002DE9F0470E468246FFF7ACFD07004FF041
:10413000000837D00025D7F8649120E009EB05147A
:1041400050462168FCF746F8B8B9E06830B101285C
:1041500007D0022808D004280DD108E06068066066
:1041600009E06068068006E06068067003E00EA162
:104170003846FFF749FA4FF001086D1C2DB2B7F829
:104180006801A842DADCB8F1000F05D05146384684
:10419000BDE8F047FFF7D6BA3846BDE8F04706A1BC
:1041A000FFF732BABDE8F08763616E27742073654C
:1041B000742076616C0D0A00766172206E6F742037
:1041C000666F756E640D0A0030B505460020024624
:1041D00005E09C4209D1401C521C80B292B2AC5CFA
:1041E000002C02D08B5C002BF3D130BD03460020A5
:1041F00002E01A54401C80B20A5C002AF9D1002166
:10420000195470472DE9F05FC18E32274FF0000836
:10421000D0F85C9104464546002955D0002204F1AF
:10422000040B164601F80B2025E009EB061A201DA9
:10423000DAF80010FFF7C8FFE18E884219D1A5B166
:10424000012D03D12AA12046FFF7DEF94146204681
:10425000FFF7F6F909EB0810DAF800100068FFF72D
:10426000B3FF874200D8384607466D1C1FFA86F810
:10427000ADB2761C36B2B4F86001B042D5DC002D88
:1042800034D0012D02D12046FFF79AF909EB08102E
:104290000168201DFFF7AAFFE086012D08D94146DD
:1042A0002046FFF7CDF920462168FFF7ADF9E786F4
:1042B000E28E0020211D02F80B00E08E20872046B0
:1042C000BDE8F05FFFF7A0B994F87201002140F05B
:1042D000040084F872010120FFF762FD94F8720176
:1042E00020F0040084F872012168E8E7BDE8F09F3F
:1042F0000D0A000038B5D0F87411044649B168467B
:104300008847002804D19DF800102046FFF7FEFCE6
:1043100038BD0348016A2046FFF776F9FEE7000042
:104320001000002001B54FF0FF330122694602481A
:10433000FDF735FC08BD0000100800200102020353
:104340000405060708090A0B0C0D0E0F10100000DB
:104350000000000000000102030406070809000035
:1043600000000102030400000A0000007937000881
:104370000D00000079370008090000000542000820
:1043800008000000F93400087F000000F93400083C
:104390001B000000E93400087365745661720073F5
:1043A0006574207661720073657456617220245BB7
:1043B0007661725D205B76616C75655D0076617219
:1043C000730073686F7720766172730068656C7034
:1043D00000636F6D6D616E642068656C7000686568
:1043E0006C70205B636F6D6D616E645D202D2D734D
:1043F000686F772068656C7020696E666F206F66E5
:1044000020636F6D6D616E6400636C7300636C6537
:10441000617220636F6D6D616E64206C696E650002
:10442000000000000000000000000000000000008C
:10443000000000F800000000000000333000000021
:1044400000160E00160E0000000000000000000024
:1044500040C07840C0784000043F04043F0404009A
:10446000007088FC08300000001820FF211E0000AA
:10447000F008F000E018000000211C031E211E00BF
:1044800000F00888700000001E2123241927211045
:10449000000000160E0000000000000000000000F8
:1044A000000000E01804020000000007182040008F
:1044B00000020418E000000000402018070000007F
:1044C000404080F0804040000202010F01020200E3
:1044D000000000F0000000000101011F01010100C7
:1044E000000000000000000000B0700000000000AC
:1044F00000000000000000000001010101010101B5
:10450000000000000000000000303000000000004B
:104510000000000080601804006018060100000020
:1045200000E010080810E000000F102020100F001D
:10453000001010F8000000000020203F20200000A4
:1045400000700808088870000030282422213000FC
:1045500000300888884830000018202020110E0004
:104560000000C02010F8000000070424243F2400AD
:1045700000F80888880808000019212020110E0082
:1045800000E0108888180000000F112020110E0094
:1045900000380808C83808000000003F000000008C
:1045A0000070880808887000001C222121221C004D
:1045B00000E010080810E0000000312222110F0076
:1045C000000000C0C000000000000030300000000B
:1045D000000000C0C0000000000080B070000000BB
:1045E0000000804020100800000102040810200094
:1045F00040404040404040000404040404040400DF
:104600000008102040800000002010080402010073
:10461000007048080808F000000000303601000073
:10462000C030C828E810E0000718272423140B0026
:104630000000C038E0000000203C230202273820A0
:1046400008F8888888700000203F202020110E0084
:10465000C03008080808380007182020201008007B
:1046600008F808080810E000203F202020100F0064
:1046700008F88888E8081000203F20202320180030
:1046800008F88888E8081000203F20000300000098
:10469000C03008080838000007182020221E020039
:1046A00008F808000008F808203F210101213F20F8
:1046B000000808F8080800000020203F2020000023
:1046C00000000808F8080800C08080807F00000013
:1046D00008F888C028180800203F2001263820004C
:1046E00008F8080000000000203F202020203000B3
:1046F00008F8F800F8F80800203F003F003F2000CD
:1047000008F830C00008F808203F200007183F00D4
:10471000E01008080810E0000F10202020100F0003
:1047200008F808080808F000203F210101010000F6
:10473000E01008080810E0000F18242438504F003B
:1047400008F8888888887000203F2000030C3020FB
:1047500000708808080838000038202121221C0039
:10476000180808F8080818000000203F2000000082
:1047700008F808000008F808001F202020201F006B
:104780000878880000C83808000007380E010000CB
:10479000F80800F80008F800033C0700073C030095
:1047A000081868808068180820302C03032C3020FB
:1047B0000838C800C83808000000203F200000006A
:1047C00010080808C83808002038262120201800C2
:1047D000000000FE020202000000007F4040400096
:1047E000000C30C000000000000000010638C000CE
:1047F00000020202FE000000004040407F00000076
:104800000020100804081020000000000000000034
:104810000000000000000000808080808080808098
:10482000000204080000000000000000000000007A
:1048300000008080808000000019242222223F2076
:1048400008F8008080000000003F112020110E00B9
:104850000000008080800000000E11202020110048
:10486000000000808088F800000E112020103F20FA
:104870000000808080800000001F2222222213007E
:10488000008080F0888888180020203F20200000C9
:104890000000808080808000006B9494949360007E
:1048A00008F8008080800000203F210000203F2089
:1048B00000809898000000000020203F2020000089
:1048C000000000809898000000C08080807F000079
:1048D00008F8000080808000203F24022D30200056
:1048E000000808F8000000000020203F2020000001
:1048F0008080808080808000203F20003F20003F1B
:10490000008080008080000000203F2100203F20A8
:104910000000808080800000001F202020201F00D9
:10492000808000808000000080FFA12020110E0008
:104930000000008080808000000E112020A0FF80F9
:10494000808080008080800020203F2120000100A6
:1049500000008080808080000033242424241900FB
:10496000008080E0808000000000001F2020000008
:104970008080000000808000001F202020103F2049
:10498000808080000080808000010E3008060100D9
:1049900080800080008080800F300C030C300F007E
:1049A00000808000808080000020312E0E312000A9
:1049B000808080000080808080818E7018060100D9
:1049C00000808080808080000021302C22213000F7
:1049D00000000000807C020200000000003F404018
:1049E00000000000FF00000000000000FF000000C9
:1049F0000002027C800000000040403F00000000F8
:104A000000804040800000800000000000010100A4
:104A10000000000000000000002F00000000070060
:104A2000070000147F147F1400242A7F2A12002319
:104A30001308646200364955225000000007000048
:104A400000001C224100000041221C000014083E0E
:104A500008140008083E0808000000A060000008D4
:104A60000808080800006060000000201008040228
:104A7000003E5149453E0000427F400000426151E6
:104A80004946002141454B31001814127F10002780
:104A900045454539003C4A49493000017109050343
:104AA00000364949493600064949291E0000363674
:104AB00000000000563600000008142241000014D7
:104AC00014141414000041221408000201510906B4
:104AD000003E4955592E007C1211127C007F494935
:104AE0004936003E41414122007F4141221C007F66
:104AF00049494941007F09090901003E4149497A74
:104B0000007F0808087F0000417F410000204041ED
:104B10003F01007F08142241007F40404040007F59
:104B2000020C027F007F0408107F003E4141413E9D
:104B3000007F09090906003E4151215E007F0919E5
:104B400029460046494949310001017F0101003FE2
:104B50004040403F001F2040201F003F4038403F62
:104B600000631408146300070870080700615149C6
:104B7000454300007F41410000020408102000006E
:104B800041417F00000402010204004040404040D7
:104B9000000001020400002054545478007F48446F
:104BA000443800384444442000384444487F0038A6
:104BB0005454541800087E0901020018A4A4A47CCF
:104BC000007F080404780000447D40000040808499
:104BD0007D00007F102844000000417F4000007CE1
:104BE00004180478007C08040478003844444438ED
:104BF00000FC242424180018242418FC007C080439
:104C0000040800485454542000043F444020003C11
:104C10004040207C001C2040201C003C4030403C98
:104C2000004428102844001CA0A0A07C0044645428
:104C30004C440000087F41000000007F000000009D
:104C4000417F080000080408100868656C6C6F005C
:104C50007361792068656C6C6F00616464006164E5
:104C6000642074776F206E756D626572730000004A
:104C70000D0A434F4D4D414E44204C4953543A0D7B
:104C80000A0D0A000D0A5641524941424C45204C3A
:104C90004953543A0D0A0D0A000000000D0A7061D4
:104CA0007373776F726420636F6E6669726D2066CE
:104CB00061696C65642E0D0A000000000D0A7061C8
:104CC0007373776F726420636F6E6669726D2073A1
:104CD0007563636573732E0D0A0000006572726F51
:104CE000723A207368656C6C2E72656164206D7514
:104CF000737420626520646566696E65640D0A00E0
:104D0000436F6D6D616E64206E6F7420666F756E9B
:104D1000640D0A000D0A5761726E69673A20436F8D
:104D20006D6D616E6420697320746F6F206C6F6E9F
:104D3000670D0A000D0A0D0A0D0A205F20202020B1
:104D400020202020205F2020205F202020202020E5
:104D50002020202020202020202020205F20202014
:104D6000202020202020205F205F200D0A7C207C36
:104D7000202020205F5F5F7C207C5F7C207C5F2088
:104D80005F5F5F205F205F5F2020205F5F5F7C2090
:104D90007C5F5F2020205F5F5F7C207C207C0D0A91
:104DA0007C207C2020202F205F205C205F5F7C20E7
:104DB0005F5F2F205F205C20275F5F7C202F205FBC
:104DC0005F7C20275F205C202F205F205C207C20E0
:104DD0007C0D0A7C207C5F5F7C20205F5F2F207C25
:104DE0005F7C207C7C20205F5F2F207C2020202087
:104DF0005C5F5F205C207C207C207C20205F5F2F1C
:104E0000207C207C0D0A7C5F5F5F5F5F5C5F5F5F83
:104E10007C5C5F5F7C5C5F5F5C5F5F5F7C5F7C2076
:104E20002020207C5F5F5F2F5F7C207C5F7C5C5F4D
:104E30005F5F7C5F7C5F7C0D0A0D0A4275696C6464
:104E40003A20202020202020417072203139203249
:104E50003032362031383A31353A33340D0A56651E
:104E60007273696F6E3A2020202020322E302E3847
:104E70000D0A436F707972696768743A20202028A0
:104E800063292032303230204C65747465720D0A0B
:104E9000000000000D0A506C6561736520696E703A
:104EA00075742070617373776F72643A000000004C
:104EB000304F00080000002050000000F0280008DB
:104EC000804F000850000020500C0000002900080E
:104ED00098430008214100089F430008A7430008A9
:104EE000BD430008A13F0008C243000800000000C5
:104EF000CC430008A13D0008D1430008DE43000870
:104F0000094400089D3500080D4400080000000019
:104F10004A4C00082D320008504C000800000000E8
:104F20005A4C0008BD3100085E4C0008000000002B
:104F300001000000100000000000000000127A00D4
:104F4000344D0008944E0008BC4C00089C4C0008EE
:104F5000704C0008844C0008004D0008144D0008F7
:104F6000DC4C0008000000003400002000000000BD
:104F700000000000000000003C00002000000000D5
:0400000508000131BD
:00000001FF
