:020000040800F2
:1000000030060020490100087B1C0008491900083F
:10001000791C000859070008711F00080000000043
:100020000000000000000000000000007F1C00082D
:100030005B070008000000007D1C0008811C000810
:100040006301000863010008630100086301000800
:1000500063010008630100086301000863010008F0
:1000600063010008630100086301000863010008E0
:1000700063010008630100086301000863010008D0
:1000800063010008630100086301000863010008C0
:1000900063010008630100086301000863010008B0
:1000A00063010008630100086301000863010008A0
:1000B0006301000863010008630100086301000890
:1000C0006301000863010008630100086301000880
:1000D00063010008651F0008630100086301000850
:1000E0006301000863010008630100086301000860
:1000F0006301000863010008630100086301000850
:10010000630100086301000863010008630100083F
:10011000630100086301000863010008630100082F
:10012000630100086301000863010008630100081F
:10013000DFF810D000F0CCFA00480047A5280008EE
:10014000AFF300803006002006488047064800478D
:10015000FEE7FEE7FEE7FEE7FEE7FEE7FEE7FEE777
:10016000FEE7FEE7E11C000831010008202A04DB5D
:10017000203A21FA02F00021704721FA02F3D04020
:10018000C2F12002914008431946704740EA01033A
:100190009B0703D009E008C9121F08C0042AFAD23D
:1001A00003E011F8013B00F8013B521EF9D2704701
:1001B000D2B201E000F8012B491EFBD270470022A9
:1001C000F6E710B513460A4604461946FFF7F0FF56
:1001D000204610BD2DE9FE4F804681EA0300C00F86
:1001E0000C46009021F0004123F00045B8EB0200DE
:1001F000A94105D24046214690461C460B46024680
:1002000023F00040104347D0270DC7F30A00C3F383
:100210000A510290401A019040286BDAC3F3130090
:1002200040F4801B0098924620B10023D2EB030AD1
:1002300063EB0B0B01985946C0F14002504600F0A9
:10024000B0F906460D4650465946019A00F0B8F9F5
:1002500010EB08006141002487EA115284EAE77339
:100260001A4340D0009A62B3019A012A4FEA07521A
:1002700015DC001B61EB02014FF0004202EA07525D
:10028000CDE90042001C41F5801132462B4600F0BA
:10029000B8F903B0BDE8F08F40462146F9E7001BEE
:1002A00061EB0201001C41F5801300185B4120182E
:1002B000A2F5001747EB030140EAD570B6196D416E
:1002C00011E06D084FEA360645EAC0754FEA07525D
:1002D000001B61EB0201001C41F5801149084FEA47
:1002E00030000019514132462B4603B0BDE8F04FB3
:1002F00000F078B90098012240000023D0EB020200
:1003000063EBE073009821464FEAE074B8EB00001D
:1003100061EB0401E9E783F000435BE781F0004112
:1003200058E72DE9FE4F81EA030404F0004421F070
:10033000004100944FF0000B23F0004350EA010409
:100340005ED052EA03045BD0C3F30A54C1F30A55EA
:100350002C44A4F2F3340194A0FB0254C1F3130122
:1003600041F48011C3F3130343F4801301FB0244EF
:1003700000FB034E840A970A44EA815447EA8357F4
:10038000A4FB076802958D0A05FB07854FEA932CAD
:1003900004FB0C542705029D4FEA065847EA16371E
:1003A000B5EB08056EEB070C870E920E47EA811736
:1003B00042EA8312A7FB0201B6EB0B0164EB0004D7
:1003C0002B0D43EA0C335E1844EB1C50DA465146C1
:1003D000E7FB0201C5F313044FEA0B3343EA14535E
:1003E0004FEA0432019C43EA0603A4F10C04029490
:1003F000009CCDE900B400F004F903B0BDE8F08F33
:1004000000200146F9E72DE9F04D81EA030404F0EC
:10041000004B21F0004514464FF0000A23F0004144
:1004200050EA050220D054EA01021DD0C5F30A5754
:100430000246C5F31303C1F31300C1F30A5640F497
:10044000801543F48013A7EB0608101BD64608F26C
:10045000FD3873EB050002D308F1010801E09218A2
:100460005B41B8F1000F03DA00200146BDE8F08DD2
:1004700000204FF48011064684460EE0171B73EBF4
:10048000050705D3121B63EB050306434CEA010C79
:1004900049084FEA300092185B4150EA0107EDD15C
:1004A00052EA030012D082EA040083EA05010843FD
:1004B00005D0101BAB4106D20122002306E000222A
:1004C0004FF0004302E06FF0010253101AEB0600F8
:1004D0004CEB085110EB0A0041EB0B01BDE8F04D6D
:1004E00000F080B830B5041E71F1000404DB4FF059
:1004F0000044404264EB0101141E73F1000405DB6B
:100500001C464FF00043524263EB0403994208BF7C
:10051000904230BD30B50B46014600202022012418
:1005200009E021FA02F59D4205D303FA02F5491BC1
:1005300004FA02F52844151EA2F10102F1DC30BDD7
:100540002DE9F05F0546002092469B468846064608
:10055000814640241BE02846414647462246FFF795
:1005600005FE53465A46C01A914110D3114618460B
:10057000224600F016F82D1A67EB01084F46224676
:100580000120002100F00DF817EB00094E41201E5C
:10059000A4F10104DFDC484631462A464346BDE863
:1005A000F09F202A04DB203A00FA02F10020704775
:1005B0009140C2F1200320FA03F3194390407047A1
:1005C000202A06DBCB17203A41FA02F043EAE07317
:1005D00006E041FA02F3D040C2F120029140084304
:1005E0001946704710B5141E73F1000408DA401C58
:1005F00041F1000192185B411A4301D120F0010042
:1006000010BD2DE9F04D92469B4611B1B1FA81F231
:1006100002E0B0FA80F220329046FFF7C2FF0446B3
:100620000F4640EA0A0041EA0B0153465A46084386
:1006300013D0114653EA010019D0C8F140025046C8
:10064000FFF794FD05460E46504659464246FFF7D1
:10065000A8FF084305D0012004E020463946BDE844
:10066000F08D0020054346EAE0762C4337430A9894
:100670006305E40AA0EB08000022FD0A44EA47549F
:100680000A3002D500200146E9E701051019694149
:10069000DDE9084500196941BDE8F04DA2E7C1F365
:1006A0000A52C1F3130140F2FF3341F480119A4220
:1006B00002DA00200146704740F233439A42A2F228
:1006C000334202DC5242FFF751BDFFF76ABF000020
:1006D000064C074D06E0E06840F0010394E807008F
:1006E00098471034AC42F6D3FFF726FDB82900082E
:1006F000D829000830B58BB01349144801F040F9EF
:1007000014216846FFF75BFD002414250120CDE984
:10071000025400908DF8044069460D48049401F09D
:1007200015F9142105A8FFF74AFD022005904FF4A2
:100730007A70CDE907508DF8184005A9054809944D
:1007400001F004F90BB030BD792800087D280008BD
:100750002800002050000020FEE7704772B6FEE738
:1007600010B590F821100022022905D004218163E0
:1007700080F82020012010BD01680B6823F00E03D3
:100780000B6001680B6823F001030B6090F84030A8
:10079000012404FA03F1C36B596080F8214080F80A
:1007A0002020104610BD00002DE9F05F90F82110C8
:1007B0000024022903D004218163012485E001681B
:1007C0000A6822F00E020A6001680A6822F001023B
:1007D0000A603F4E3E4FB215DFF8F4C0DFF8F090EC
:1007E000DFF8ECA0DFF8E8B0DFF8E4E00168783F7C
:1007F00013011502ACF1640CA9F15009AAF13C0AED
:10080000ABF1280BAEF1140E4FF48018B14227D98A
:10081000B9420ED0614512D049451DD0514518D07E
:10082000594518D0714501D1424615E0294EB142D3
:1008300001D1012210E0274E1436B14201D110221D
:100840000AE0244E2836B14206D0224A3C32914278
:1008500001D11A4600E02A461E49091F0A602BE012
:10086000B94213D0614517D0494522D051451DD01A
:1008700059451DD0714501D142461AE0B14202D11D
:100880004FF0807215E0134EB14201D1012210E009
:10089000104E1436B14201D110220AE00D4E283616
:1008A000B14206D00B4A3C32914201D11A4600E0D7
:1008B0002A46074980394A60012180F82110002129
:1008C00080F82010416B01B188472046BDE8F09FB9
:1008D000800002400804024030B560B11A4B016844
:1008E0001422994209D2194B0B44B3FBF2F2920045
:1008F0000264174A0AE0012030BD134B5B420B44EF
:10090000B3FBF2F2920002640F4A083AC263022279
:1009100080F821200A6843F6F0739A43F0E9013425
:100920002343D0E902452C4323430469234344690C
:1009300023438469234313430B6000214163012255
:1009400042770177084630BD08040240F8FFFDBF3A
:10095000000002402DE9F84FDFF8C0910024A9F112
:10096000040B23464FF00F0809F1040AABF1040E03
:10097000CCE00127A7403A40BA4272D1DFF8A0C1CB
:100980004D68A5EB0C0665452BD00DDC032D34D04E
:1009900005DC35B3012D19D0022D2FD11BE0112D0F
:1009A00016D0122D2AD119E0B6F5881F19D006DC11
:1009B000B6F5803F15D0B6F5801F1FD111E0B6F512
:1009C000001F0ED0B6F5041F18D10AE0CB6815E061
:1009D000CB681B1D12E0CB6808330FE0CB680C33EB
:1009E0000CE08B682BB1012B4FF0080303D047615B
:1009F00004E0042302E0076100E00023FF2A01D89D
:100A0000064601E000F104064FEA840501D9A5F18C
:100A10002005376808FA05FC27EA0C0703FA05F5F4
:100A200047EA050737604D68ED006ED53D4DAE696C
:100A300046F00106AE61AD6924F0030605F001053C
:100A40000095394D7719BE68A5072D0F08FA05FCEA
:100A500026EA0C06DFF8D4C0604503D14FF0000C45
:100A600025E052E0DFF8C8C0604502D14FF0010C2C
:100A70001DE0DFF8C0C0604502D14FF0020C16E067
:100A8000DFF8B4C0604502D14FF0030C0FE0DFF88F
:100A9000ACC0604502D14FF0040C08E0DFF8A0C004
:100AA000604502D14FF0050C01E04FF0060C0CFA46
:100AB00005FC4CEA060CC7F808C04D68D9F8006080
:100AC000ED024D4601D5164300E096432E604D6879
:100AD000DAF80060AD02554601D5164300E09643B2
:100AE0002E604D68DBF80060AD035D4601D516430E
:100AF00000E096432E604D68DEF80060ED03754619
:100B000001D5164300E096432E60641C0A6832FA51
:100B100004F57FF42EAFBDE8F88F00000804014013
:100B200000001110001002400000014000080140C8
:100B3000000C014000100140001401400018014069
:100B4000001C01408068084000D001207047C26846
:100B500021EA02030A4043EA0241016170470AB1F7
:100B6000016170470904FBE7014880687047000095
:100B70000000002070B5040025D094F83D00002549
:100B800020B984F83C50204600F0B8F8242084F8BE
:100B90003D002068016821F00101016020680168C2
:100BA00041F4004101602068016821F400410160C6
:100BB00000F006FA4D4B6168994201D84C4900E0BB
:100BC0004C49884201D2012070BD4B492268B0FBDC
:100BD000F1F1566826F03F060E43566062689A426D
:100BE00006D94FF4967251434FF47A72B1FBF2F189
:100BF0002268491C166A26F03F063143116261687B
:100C0000994210D84900401EB0FBF1F2521CC2F3C9
:100C10000B02042A01D2042022E0B0FBF1F0401CB8
:100C2000C0F30B001CE0A268F2B301EBC10303EBBD
:100C30000116431EB3FBF6F35B1C43F480431B0514
:100C400049D092B301EBC10202EB0111401EB0FB8F
:100C5000F1F0401CC0F30B0040F4804040F4004031
:100C60002168CA694CF6FF739A431043C861D4E9FE
:100C7000071001432068026822F0C002114301609E
:100C8000D4E9030101432068826848F2FF339A43A4
:100C900011438160D4E9051001432068C26822F045
:100CA000FF021143C16001E00EE016E02068016818
:100CB00041F0010101602564202084F83D00256396
:100CC00084F83E50002070BD01EB4106431EB3FB8B
:100CD000F6F35B1CB3E70120C2E701EB4101401EC4
:100CE000B0FBF1F0401CC0F30B00B7E7A086010099
:100CF00080841E0000093D0040420F0010B586B000
:100D00000021009101910291039100680F498842EE
:100D10001AD10F4CA06940F00800A061A069694693
:100D200000F008000490C0200090122001900320E1
:100D300003900848FFF70EFEE06940F40010E06100
:100D4000E06900F40010049006B010BD00540040AB
:100D500000100240000C01400248816802781144F2
:100D60008160704700000020074810B5016841F01D
:100D700010010160032000F075F80F2000F006F864
:100D800000F024F8002010BD0020024070B50D4D89
:100D900004464FF47A712878B1FBF0F00A490968EB
:100DA000B1FBF0F000F066FB48B9102C07D200222E
:100DB0002146501E00F036F800206C6070BD012006
:100DC00070BD0000000000200C0000200C4808B599
:100DD000816941F001018161816901F001010091A6
:100DE000C16941F08051C161C069064900F080507D
:100DF0000090486820F0E06040F00070486008BD56
:100E00000010024000000140002809DB00F01F0232
:100E1000012191404009800000F1E020C0F800115C
:100E200070470000F0B40E4B1B68C3F30223C3F1FC
:100E30000704042C00D904241D1D072D01D2002312
:100E400000E0DB1E012606FA04F56D1E0D409D40F4
:100E50009E40761E164045EA0601F0BC01F09AB8A5
:100E60000CED00E0064A00F0070110684FF6FF03A2
:100E7000184040EA01200349084310607047000011
:100E80000CED00E00000FA052DE9F0470D460400E6
:100E900067D0DFF81881D8F8000000F00700A842FA
:100EA0000CD2D8F8001021F007012943C8F800102F
:100EB000D8F8000000F00700A84252D120683C4E4C
:100EC000810712D5400703D5706840F4E060706078
:100ED0002078000703D5706840F460507060706837
:100EE000A16820F0F000084370602078C00727D088
:100EF0006068012810D03168022810D089070029C5
:100F00002FDA716821F0030101437160FFF72CFEB5
:100F1000074641F288390CE031688903EFE789011F
:100F2000EDE7FFF721FEC11B494502D90320BDE8CB
:100F3000F0877068616800F00C00B0EB810FF0D1B1
:100F4000D8F80010404601F00701A9420BD901680A
:100F500021F0070129430160006800F00700A84262
:100F600001D00120E3E72078400705D57068E168EB
:100F700020F4E060084370602078000706D57068B0
:100F8000216920F4605040EAC100706000F038F838
:100F90007168084AC1F30311515CC84006490860F2
:100FA00006480068FFF7F2FE0020C0E7002002407C
:100FB000001002409E2900080C00002004000020C0
:100FC0000448054900684968044AC1F30221515C9C
:100FD000C84070470C00002000100240AE290008F5
:100FE0000448054900684968044AC1F3C221515CBC
:100FF000C84070470C00002000100240AE290008D5
:101000000E4B59680E4801F00C02042A11D0082A30
:101010000FD10C48C1F38342C903805C0AD55968DB
:10102000084AC1F34041921E515C054A5043B0FB4F
:10103000F1F0704704494843704700000010024037
:1010400000127A008E29000800093D002DE9F84FB2
:1010500004006FD02078BE4DC00747D06868C0F349
:101060008100012807D06868C0F38100022809D1F7
:101070006868C00306D52868800337D560680028F3
:10108000E7D033E06068B0F5803F0BD010B1B0F529
:10109000A02F11D0286820F480302860286820F420
:1010A000802002E0286840F480302860606888B1C1
:1010B000FFF75AFD064609E0286840F480202860C2
:1010C000F0E7FFF751FD801B642873D82868800380
:1010D000F7D50BE0FFF748FD064604E0FFF744FDB7
:1010E000801B6428F1D828688003F7D42078DFF8C3
:1010F000648280074FF0010A4FF0000939D5686813
:1011000010F00C0F07D06868C0F38100022809D1E5
:101110006868C00306D42868800714D520690128B0
:1011200008D110E02069B0B1C8F800A0FFF71CFD9D
:10113000064605E007E1FFF717FD801B0228C4D82B
:1011400028688007F7D52868616920F0F80040EA30
:10115000C10028600DE0C8F80090FFF705FD0646C5
:1011600004E0FFF701FD801B022823D828688007D0
:10117000F7D4207800072CD57748A169D9B1C0F8F9
:1011800000A0FFF7F1FC064604E0FFF7EDFC801B32
:1011900002280FD8686A8007F7D570484FF4FA51D3
:1011A0000068B0FBF1F0009000BF0098411E009174
:1011B000FAD20EE07CE0C0F80090FFF7D5FC0646BE
:1011C00004E0FFF7D1FC801B022871D8686A800711
:1011D000F7D4207840075BD5E8690027C00008D421
:1011E000E86940F08050E861E869012700F080502C
:1011F00000905B480168C90511D40168834641F439
:1012000080710160FFF7B0FC064604E0FFF7ACFC1C
:10121000801B64284CD8DBF80000C005F6D5E068D8
:1012200001280AD008B1052813D0286A20F001004F
:101230002862286A20F0040002E0286A40F00100D9
:101240002862E06841F2883B88B1FFF78DFC0646D2
:1012500009E0286A40F004002862EEE7FFF784FC0A
:10126000811B59455BD8286A8007F7D50BE0FFF74B
:101270007BFC064604E0FFF777FC811B59454ED8FE
:10128000286A8007F7D41FB1E86920F08050E86130
:10129000E069A8B36968C1F38101022946D0022838
:1012A000484606D0C8F86000FFF75EFC044639E007
:1012B00035E04746C8F86000FFF756FC064604E0F4
:1012C000FFF752FC801B022829D828688001F7D438
:1012D000206AB0F5803F05D16868A16820F400302D
:1012E00008436860D4E908010843696821F474116F
:1012F00008436860C7F860A0FFF736FC044605E0C5
:1013000023E0FFF731FC001B022808D82868800181
:10131000F7D51AE0FFF728FC001B022802D90320AA
:10132000BDE8F88F28688001F4D40EE00128F7D0DA
:101330006868226A00F48031914204D1616A00F445
:101340007010884201D00120EAE70020E8E70000A1
:101350000010024000004242800442420C00002083
:101360000070004070B5040009D0606A002540B1EB
:1013700025616561A56294F8510040B10CE001203F
:1013800070BD6068B0F5827FF4D0E561F2E784F863
:101390005050204600F040F8022084F851002068A8
:1013A000016821F040010160A088218900F4827069
:1013B00001F404410843A18901F400610843217C40
:1013C00001F002010843217D01F001010843218B56
:1013D00001F400710843217F01F03801084394F8BB
:1013E000201001F080010843218D01F400510843D1
:1013F00021680860A069042101EA10402168486062
:101400002068C16921F40061C1616565012084F82B
:101410005100002070BD000000B585B00021009192
:1014200001910291039100680F4988421AD10F4837
:10143000816941F480518161816901F48051049195
:10144000816941F0040181618069694600F004000E
:101450000490A020009002200190032003900448F3
:10146000FFF778FA05B000BD0030014000100240DF
:101470000008014010B5401EB0F1807F01D301206B
:1014800010BD4FF0E02460610F21601700F082FD75
:101490000020A06107202061002010BD18B5034680
:1014A00090F84200202801D0022018BD51B14AB165
:1014B0000120186300205863184600F0FFFC01006B
:1014C00002D005E0012018BD186B012802D00121CF
:1014D000084618BD186802684068009018680C300B
:1014E00050E8002F42F0100240E80024002CF5D113
:1014F000EEE700000068064A904208D105484170B6
:1015000001210170802204490448FFF7C7BF7047DA
:10151000003801402000002078000020A4010020B5
:1015200070470000F8B5016804460868CA684B694E
:1015300010F00F0F4FF0000559D003F0010602F430
:101540009077374365D0C10705D0D10503D5616CCD
:1015500041F001016164410705D5D90703D0616CF1
:1015600041F002016164810705D5D90703D0616CA0
:1015700041F004016164010707D502F02001314305
:1015800003D0616C41F008016164616C00293AD0BC
:10159000800604D5900602D5204600F0D1FB2068D5
:1015A0004069616CC0F38010090700D460B3204625
:1015B00000F09FFB20684069400621D52068143068
:1015C00050E8001F21F0400140E80012002AF5D148
:1015D000E06BA8B16D494163E06BFFF7E5F80028C7
:1015E00011D0E06B416B01B0BDE8F04008478306C5
:1015F0000FD593060DD52046BDE8F84000F0A0BBFE
:101600002046FFF78DFFF8BD2046FFF789FF656490
:10161000F8BD266B2023012E7CD1C6067AD5D606CE
:1016200078D508684868009048694FF0020640067F
:1016300040D5E16B086840680004000CE8D0A28D3A
:101640008242E5D9E085886920282DD020680C30B9
:1016500050E8001F21F4807140E80012002AF5D103
:101660002068143050E8001F21F0010140E800120A
:10167000002AF5D12068143050E8001F21F0400105
:1016800040E80012002AF5D184F842302563206832
:101690000C3050E8001F21F0100140E80012002A31
:1016A000F5D1E06BFFF75CF86663A08DE18D401A21
:1016B00081B22AE0A08DE18D401A81B2E08D002830
:1016C000A6D00029A4D020680C3050E8002F22F4C6
:1016D000907240E80027002FF5D12068143050E8C0
:1016E000002F22F0010240E80027002FF5D184F8F6
:1016F0004230256320680C3050E8002F22F01002A1
:1017000040E80023002BF5D166632046FFF7F2FE88
:10171000F8BDFFE705062BD5150629D594F841003D
:101720002128F5D1A068B0F5805F01D12069B0B162
:10173000206A411C2162216800784860E08C401ECC
:101740000004000CE084E3D12068C16821F080012E
:10175000C1602068C16841F04001C160D8E7206ADB
:101760000088C0F308004860206A801C2062E5E71A
:101770004006CDD55006CBD5CA68204622F040029F
:10178000CA6084F8413000F0DEF8C1E7E31C0008CD
:1017900070B5040004D094F84100002510B106E0B3
:1017A000012070BD84F84050204600F023F824202A
:1017B00084F841002068C16821F40051C1602046CE
:1017C00000F020FB2068016921F49041016120684C
:1017D000416921F02A0141612068C16841F400514A
:1017E000C1606564202084F8410084F8420065638C
:1017F000002070BD70B586B00024064600940194A8
:10180000029403940068224988423FD121488169AB
:1018100041F480418161816901F4804104918169D1
:1018200041F00401816180691B4D00F004000490C7
:101830004FF400700090022001900320039069464D
:101840002846FFF787F82815CDE9000469462846A1
:101850000294FFF77FF8124D1048C5E9000480207C
:10186000C5E902402C616C61AC612846EC61FFF770
:1018700033F808B1FEF772FFF56300221146252008
:101880006E62FFF7CFFA2520FFF7BEFA06B070BDF3
:10189000003801400010024000080140580002409A
:1018A000EC01002070472DE9F843044690F8410010
:1018B0001F4615460E46202802D00220BDE8F883B8
:1018C0008EB185B100206064212084F84100FFF7CB
:1018D0004BF9A5848146E584A0684FF02008B0F557
:1018E000805F02D003E00120E8E7206910B13546AF
:1018F00000260EE000250CE08021204600F0F9FAD9
:10190000A0B9BDB115F8010B21684860E08C401EFC
:10191000E084E08C4B464FF0000200970028EBD1AA
:101920004FF04001204600F0E4FA40B184F84180D5
:101930000320C3E736F8020BC0F30800E4E784F89D
:1019400041800020BAE77047FEE7000070B50D4601
:10195000040012D0002D10D00848007800280CD0C8
:1019600028212046FEF72BFC142229462046FEF7AC
:101970000DFC002020750120607570BD180000204E
:10198000002807D0002905D0034B5A68C2E900019E
:101990000120187070470000180000202DE9F04762
:1019A000424F04463878404204420FD0607D68B10F
:1019B000786800264068804779680546206809688D
:1019C00088472179814204D1012003E00020BDE84D
:1019D000F0870020237D0122022700214FF0060C12
:1019E0004FF00409082B5DD2DFE803F004070F175E
:1019F000313D4A4F50B322752CE098B3A069A168DD
:101A0000281A884250D3277535E0F8B9032020758D
:101A1000E561A069281A206246E008B1277543E015
:101A2000E069A268281A90423ED3A175E06820B10F
:101A3000226A824201D3022606E0206918B184F8A6
:101A40001490656201E00126217521622CE018B135
:101A500005202075A56127E0606A2269281A904256
:101A600022D301261CE040B1A069A168281A88424F
:101A70001AD384F814C0A27516E084F8149013E009
:101A800090B907202075E5610EE010B184F814C00C
:101A90000AE0E069A268281A904205D30326A175DE
:101AA000217501E02175A175304690E718000020EE
:101AB000054808B5416941F001014161406900F004
:101AC0000100009008BD0000001002402DE9F04325
:101AD00085B00024344800940194029403948169F1
:101AE00041F040018161816901F040010491816907
:101AF00041F004018161816901F00401049181696F
:101B000041F010018161816901F010010491816946
:101B100041F0080181618069244F00F008000490C1
:101B2000012220213846FFF71AF8002240213846CA
:101B3000FFF715F8DFF87880002230214046FFF7E4
:101B40000EF8DFF87090002201214846FFF707F8F1
:101B5000012220214846FFF702F8182001258DE8D0
:101B6000310069463846FEF7F5FE60200226CDE9D1
:101B70000005CDE9024669463846FEF7EBFE302007
:101B8000CDE90005CDE9024669464046FEF7E2FE92
:101B90002120CDE90005CDE9024669464846FEF719
:101BA000D9FE05B0BDE8F0830010024000180140E6
:101BB00000100140000C01400D4810B50B490160B8
:101BC0000C49416000214FF480428160C0E903125A
:101BD00041618161C1610162FEF7CCFF002803D041
:101BE000BDE81040FEF7BABD10BD00000054004033
:101BF000F8000020A0860100104810B50E490160D1
:101C00004FF48271416000218160C1604FF4007225
:101C10000161C0E905121022C0E907214162816219
:101C20000A21C162FFF79EFB002803D0BDE81040E7
:101C3000FEF794BD10BD0000003001404C010020B3
:101C40000C4810B50A4901604FF4E13141600021B0
:101C500081600C22C160C0E904128161C161FFF79B
:101C600097FD002803D0BDE81040FEF777BD10BDFA
:101C700000380140A4010020FEE7FEE770477047EE
:101C8000FFF76AB830B58FB028216846FEF797FA9B
:101C900014210AA8FEF793FA0120010400248DE81C
:101CA000130004904FF4E010CDE9081002250795C9
:101CB0006846FFF7CBF908B172B6FEE70F20CDE911
:101CC0000A054FF48060CDE90C4002210AA80E9469
:101CD000FFF7DAF8002801D072B6FEE70FB030BD8A
:101CE000704710B5406A0021C185C184FFF718FC18
:101CF00010BD01680C3151E8002F22F4907241E8C8
:101D00000023002BF5D10168143151E8002F22F097
:101D1000010241E80023002BF5D1016B012909D113
:101D200001680C3151E8002F22F0100241E8002335
:101D3000002BF5D1202180F842100021016370476B
:101D400008B590F84210222901D0022008BD816810
:101D50004FF48053994201D1026922B1826A9942BB
:101D60001BD049B10AE00268816A5268C2F30802D6
:101D70000A80816A891C08E0016971B101684968BB
:101D800001F07F011170816A491C8162C18D491E79
:101D90000904090CC18503D01BE001684968F1E71B
:101DA0000168CA6822F02002CA600168CA6822F489
:101DB0008072CA6001684A6922F001024A612021EA
:101DC00080F8421000214163026B012A03D0FFF723
:101DD00069FD002008BD016301680C3151E8002F46
:101DE00022F0100241E80023002BF5D101680A68B7
:101DF000D20602D50A6849680091818DFFF77AFB07
:101E0000E7E7000070B5044600680169E26821F464
:101E1000405111430161A168206901436069014398
:101E20002068C26841F20C639A430A43C26020688A
:101E30004169A26921F44071114341611E49206842
:101E4000884202D1FFF7CCF801E0FFF7B9F800EBC8
:101E5000C00101EB0011606864228000B1FBF0F367
:101E6000B3FBF2F36FF018067343B1FBF0F5B1FB6F
:101E7000F0F605EB8305322303EB0515B5FBF2F510
:101E8000B6FBF2F605F0F00505EB0615B1FBF0F632
:101E9000B1FBF0F0B0FBF2F06FF01801484306EB35
:101EA000800003EB0010B0FBF2F0216800F00F009F
:101EB0002844886070BD000000380140816282853E
:101EC000C28500214164222180F84210016921B1BC
:101ED0000168CA6842F48072CA6001684A6942F0C7
:101EE00001024A610068C16841F02001C160002020
:101EF00070472DE9F8431F4690460D460446089E5C
:101F000023E0701C21D0FEF72FFEC01BB0421AD870
:101F1000CEB12068C168490717D5802D15D0402D56
:101F200013D00168C94309070FD401680025406830
:101F300000902046FFF7DDFE0820606484F84050E2
:101F40000120BDE8F8830320FBE72068006835EA3C
:101F5000000004D000204045D3D00020F1E701204C
:101F6000F9E700000148FFF7DDBA0000A4010020F6
:101F7000FEE700000FB4054B10B503A9044A029810
:101F800000F0EAF810BC5DF814FB000061280008BE
:101F9000240000200907090E002804DB00F1E020DE
:101FA00080F80014704700F00F0000F1E02080F886
:101FB000141D704702E008C8121F08C1002AFAD198
:101FC00070477047002001E001C1121F002AFBD1B9
:101FD000704700002DE9FF5F82B00021DDE9043089
:101FE000020DDDF840B0034318D044F61050A2F2C1
:101FF000FF3242431514119801281FD0A5EB0B00A6
:10200000401C5FEA000A4FF000064E4FDFF838919F
:10201000B046504615D5CAF1000413E011980124CA
:102020004AA3012801D16FEA0B010298119AC0E975
:102030000031C0E9024206B0BDE8F09FCBF10000DC
:10204000DFE704460021404A491842EB0450CDE93D
:10205000001012E0E00707D032463B4640464946B2
:10206000FEF75FF98046894632463B4610461946E0
:10207000FEF757F906460F466410002CEAD1DDE959
:102080000401DDE90023BAF1000F06DAFEF749F991
:1020900042464B46FEF745F905E0FEF7B4F94246E5
:1020A0004B46FEF7B0F904460E460022284BFEF7D9
:1020B00019FA03D84FF0FF30014607E00022254B04
:1020C00020463146FEF786F8FEF7E9FA102409E0CB
:1020D000002C0ADB0A220023FEF732FA039B30327F
:1020E0001A55641E50EA0102F2D1641C039AC4F12D
:1020F00011031444119A012A03D0012208430DD17F
:102100000AE0084304D000204FF0110B119072E751
:10211000A3EB0B056D1E0DE05B4504DD4FF00002E7
:1021200005F1010504E003DA4FF00002A5F1010515
:10213000002AECD002981199C0E90231C0E90045AB
:1021400079E70000000014400000F03F300000007C
:102150000000F0430000E03F2DE9FF4F95B09A46A4
:10216000884606460025EEE1252877D1002427463B
:10217000F94A0121039400E0044316F8013F203B93
:1021800001FA03F01042F7D130782A2811D06FF00D
:102190002F033078A0F13002092A16D8039A44F0B0
:1021A000020402EB820203EB42021044761C03900D
:1021B000EFE758F8042B0392002A03DA504244F464
:1021C0000054039044F00204761C30782E2816D177
:1021D00016F8010F44F004042A280DD06FF02F02E6
:1021E0003078A0F13003092B09D807EB870302EB05
:1021F0004303C718761CF3E758F8047B761C307845
:102200006C280FD006DC4C2817D068280DD06A281F
:1022100014D104E0742810D07A280FD10DE044F4D2
:1022200000140AE044F4801401E044F4401472788D
:10223000824202D104F58014761C761C3078662820
:102240000BD013DC582877D009DC002875D045283E
:10225000F6D04628F4D047281AD193E118E0632835
:1022600035D0642879D0652812D18BE1702873D0DD
:1022700008DC6728F1D069286FD06E280DD06F2850
:1022800006D1ACE073282CD0752874D0782853D0B0
:102290005246179990476D1C54E1C4F3025002282E
:1022A00009D003280DD0D8F8001004280DD00D60F7
:1022B00008F1040846E1D8F80010EA17C1E9005215
:1022C000F6E7D8F800100D80F2E70D70F0E718F887
:1022D000041B8DF8001000208DF80100EB46012052
:1022E00003E058F804BB4FF0FF3061074FF00001E6
:1022F00002D40DE009F101018946B9420FDA8145A6
:10230000F8DB1BF809100029F4D108E009F10101FC
:1023100089468142FADB1BF809100029F6D103989F
:102320005346A0EB090721463846179A00F080FA79
:10233000284400EB090507E044E008E10DE01BF844
:10234000010B524617999047B9F10109F7D253464C
:1023500021463846179AF2E039E00A21C4F30252C6
:102360004FF0000B0091022A06D058F8040BC11759
:10237000032A09D00AE023E008F1070020F0070251
:10238000F2E80201904605E000B2C117042A01D12B
:1023900040B2C117002906DA0A460021404261EB2B
:1023A00002012D2202E0220504D52B228DF8042003
:1023B000012203E0E20701D02022F7E7914657E02F
:1023C0000A2100E010214FF0000B00910BE01021DA
:1023D0004FF0000B44F004040827009103E00820AC
:1023E0004FF0000B0090C4F30252022A05D058F8B7
:1023F000040B0021032A08D008E008F1070020F0B0
:102400000702F2E80201904603E080B2042A00D1FC
:10241000C0B24FF0000922072AD53278702A07D0BF
:10242000DDF800C08CF0100C5CEA0B0C05D00EE05F
:1024300040228DF80420012208E050EA010306D072
:1024400030238DF804308DF8052002229146009B40
:1024500083F0080353EA0B030AD150EA010201D1C9
:10246000620705D530228DF804204FF001097F1E48
:102470003278582A04D039A20C920CAA02920BE0AE
:102480003BA2F9E75B46009AFEF75AF80C9B9B5C6F
:10249000029A521E0292137050EA0102F2D102987F
:1024A00004A9081A00F1200B600702D524F4803437
:1024B00000E001275F4502DDA7EB0B0000E00020F4
:1024C00000EB0B01009003984944401A0390E0038D
:1024D00006D453462146179A039800F0A9F90544FB
:1024E000002706E001A85246C05D179990476D1C71
:1024F0007F1C4F45F6DBE0030CD553462146179A67
:10250000039800F095F9054404E0302052461799ED
:1025100090476D1C0099481E00900029F5DC08E0EA
:102520000298029952460078491C029117999047E7
:102530006D1CBBF10001ABF1010BF1DC5BE100F0C4
:1025400065F90544761C307800287FF40DAE19B08B
:102550002846BDE8F08F00000928010030313233F1
:1025600034353637383961626364656600000000CF
:1025700030313233343536373839414243444546B9
:1025800000000000600700D4062708F1070020F0D3
:102590000700F0E80223804603F0004C5FEA0C00DD
:1025A00001D097A009E0200501D596A005E0E0073D
:1025B00001D095A001E0AFF24C001390307823F0E9
:1025C000004365280CD006DC452809D046281DD0DC
:1025D00047287FD13BE0662818D067287AD136E0BB
:1025E0000021112F01DB112000E0781CCDE9000152
:1025F00004A90CA8FFF7EEFCDDE90D010C9A4FF0E1
:10260000000B07F10109109200914EE04FF00040DD
:102610000097CDE9011004A90CA8FFF7DBFCDDE968
:102620000D020C9B0F994FF0000B914610930092F6
:1026300011B9791C00EB0109B7EB090003D4C0F113
:10264000FF3B07F10109A9EB0700019042E0012FD0
:1026500000DA01270021112F01DD112000E03846AA
:10266000CDE9000104A90CA8FFF7B4FCDDE90D01D8
:102670000C9A00914FF0000BB946109221070FD42D
:10268000009A4A4503DA914601E0A9F10109B9F13E
:10269000010F05DD109AA9F10101515C3029F4D038
:1026A000B84202DA10F1040F03DA0121CDE901107A
:1026B00010E0002803DC8344A9EB000102E0411C88
:1026C000494500DD8946A0EB0B00401C01904FF00E
:1026D00000400290200705D40198484502DB4FF0E6
:1026E000FF30019000208DF84B0002980DF14B0750
:1026F000B0F1004F25D002200C902B200D900298B5
:1027000000280CDA404202902D200D9007E00A21AB
:102710000298FDF7FFFE3031029007F8011D0C9979
:10272000481E0C900029F2DC02980028EFD1791E97
:102730000D980870307800F0200040F0450007F850
:10274000020D11A8C01BC01D02901398007800B1A3
:10275000012000EB0901019801EBE07102980144AE
:102760000398401A401E0390E00306D453462146C6
:10277000179A039800F05CF805441398007818B194
:102780005246179990476D1CE00323D553462146C6
:10279000179A039800F04CF805441BE0BBF1000FBA
:1027A00007DB0098584504DD1098179910F80B00C6
:1027B00001E0179930205246904701980BF1010B28
:1027C000401E05F10105019004D12E2052461799B3
:1027D00090476D1CB9F10001A9F10109DEDC05E0AB
:1027E00017F8010B5246179990476D1C0299481E25
:1027F00002900029F4DC53462146179A03989EE67E
:102800002D0000002B000000200000002DE9F04109
:10281000044600251E461746880404D405E03946C0
:102820002020B0476D1C641EF9D52846BDE8F08114
:102830002DE9F041044600251E469046C80301D507
:10284000302700E02027880404D505E041463846BB
:10285000B0476D1C641EF9D52846BDE8F081000024
:1028600013B54FF0FF33012269460248FFF71BF80A
:1028700000981CBDA4010020FEF776B910B5084AE7
:10288000012802D0022802D007E0082100E0102130
:102890001046FEF757F9002800D0012010BD0000B7
:1028A00000180140FEF760FAFFF7ECF9FFF70EF9A8
:1028B000FFF7FEF8FFF7A0F9FFF77EF9FFF7C0F981
:1028C000FDF718FF1FA0FFF755FB80222049214884
:1028D000FEF7E4FD204D4FF0FF371D485038FFF75D
:1028E0005DF806461A482838FFF758F804465EB1E6
:1028F000012E09D120211948FEF729F93B46122261
:1029000017A11448FEF7CFFF5CB1012C09D120219B
:102910001848FEF71CF93B46122217A10D48FEF796
:10292000C2FF28780028D8D000242C703B466A7853
:1029300007490848FEF7B7FF6C7080210448FDF78F
:102940003EFCCAE768656C6C6F20776F726C640040
:1029500078000020A401002020000020000C01408D
:102960004B6579312053686F7274205072657373B0
:102970000D0A0000001801404B6579322053686F42
:1029800072742050726573730D0A00000102020315
:102990000405060708090A0B0C0D0E0F10100000A5
:1029A00000000000000001020304060708090000FF
:1029B0000000010203040000D829000800000020E4
:1029C00028000000B41F0008002A0008280000208A
:1029D00008060000C41F00080100000010000000ED
:1029E0000000000000127A0000000000000000005B
:1029F00000000000100000200000000000000000A7
:0400000508000131BD
:00000001FF
