:020000040800F2
:10000000880B0020F9010008B12400088D1A0008AF
:10001000AD240008B9040008B5280008000000005D
:10002000000000000000000000000000E5270008BC
:10003000BD04000800000000A52700083D280008B6
:10004000130200081302000813020008130200083C
:10005000130200081302000813020008130200082C
:10006000130200081302000813020008130200081C
:10007000130200081302000813020008130200080C
:1000800013020008130200081302000813020008FC
:1000900013020008130200081302000813020008EC
:1000A00013020008130200081302000813020008DC
:1000B00013020008130200081302000813020008CC
:1000C00013020008130200081302000813020008BC
:1000D00013020008130200081302000813020008AC
:1000E000130200081302000813020008130200089C
:1000F000130200081302000813020008130200088C
:10010000130200081302000813020008130200087B
:10011000130200081302000813020008130200086B
:10012000130200081302000813020008130200085B
:1001300000F002F800F050F814A696E8000CB24463
:10014000B344DA4501D100F047F8BAE80F000FA632
:1001500096E83000A5EB040504EB0607AAEB0704BC
:10016000A7F101074FEA15154FEA3414A4F1010471
:10017000AC4201D300F030F813F0010F18BFFB1AA6
:1001800043F0010300F001F8DBE71847D82800002E
:10019000F8280000103A24BF78C878C1FAD852076E
:1001A00024BF30C830C144BF04680C6070470000F1
:1001B000704700000023002400250026103A28BFC5
:1001C00078C1FBD8520728BF30C148BF0B607047C9
:1001D0001FB51FBD10B510BD00F0D4F81146FFF7D4
:1001E000F7FF02F0DFFB00F0F2F803B4FFF7F2FFD5
:1001F00003BC00F0F5F800000948804709480047B3
:10020000FEE7FEE7FEE7FEE7FEE7FEE7FEE7FEE7C6
:10021000FEE7FEE704480549054A064B7047000023
:10022000B12800083101000888050020880B002053
:100230008807002088070020032A40F2308010F051
:10024000030C00F0158011F8013BBCF1020F624471
:1002500098BF11F801CB00F8013B38BF11F8013B02
:10026000A2F1040298BF00F801CB38BF00F8013BAF
:1002700011F0030300F04F80083AC0F0088051F8F5
:10028000043B083A51F804CBA0E80810F5E7121D2A
:100290005CBF51F8043B40F8043BAFF30080D20749
:1002A00024BF11F8013B11F801CB48BF11F8012B15
:1002B00024BF00F8013B00F801CB48BF00F8012B38
:1002C00070474FF0000200B5134694469646203919
:1002D00022BFA0E80C50A0E80C50B1F12001BFF4FF
:1002E000F7AF090728BFA0E80C5048BF0CC05DF865
:1002F00004EB890028BF40F8042B08BF704748BFB3
:1003000020F8022B11F0804F18BF00F8012B704726
:1003100070477047704710B5203AC0F00B80B1E8C5
:100320001850A0E81850B1E81850A0E81850203A2A
:10033000BFF4F5AF5FEA027C24BFB1E81850A0E833
:10034000185044BF18C918C0BDE810405FEA827C4D
:1003500024BF51F8043B40F8043B08BF7047D20764
:1003600028BF31F8023B48BF11F8012B28BF20F805
:10037000023B48BF00F8012B70470000004870475F
:10038000180000207546FFF7F9FFAE4605006946E4
:10039000534620F00700854618B020B5FFF73AFF16
:1003A000BDE820404FF000064FF000074FF0000876
:1003B0004FF0000BAC46ACE8C009ACE8C009ACE8B3
:1003C000C009ACE8C00921F007018D46704710B59F
:1003D0000446AFF300802046BDE81040FFF705BF9C
:1003E00001491820ABBEFEE726000200704700005E
:1003F00080B58CB042F65110C0F6000042F64911AB
:10040000C0F6000101F024FE002001900B900A903C
:1004100009900890079001210791142100910991FA
:100420000A908DF820000B9040F27C40C2F2000050
:1004300007A901F0D9FD0099019806900590049054
:10044000039002900222029204914FF47A71059176
:100450008DF80C00069040F2A440C2F2000002A900
:1004600001F0C2FD0CB080BD80B584B00390ADF842
:100470000A10039820B1FFE7BDF80A0008B9FFE7AA
:100480000EE0039ABDF80A3069464FF0FF3008606D
:1004900040F2CC40C2F20000782100F061FBFFE79F
:1004A00004B080BD80B540F26940C0F6000002F0A3
:1004B000B3F802F065F880BDFFE7FEE77047000083
:1004C00081B0EFF3108072B60090FFE7FEE7000006
:1004D00092B01190109100200F900B90FFE71098B0
:1004E00000680F99C840002800F09B81FFE70F9932
:1004F000012088400E90109800680E9908400D90D9
:100500000D980E99884240F08881FFE71098406866
:100510000790002851D0FFE7079801283AD0FFE75D
:10052000079802283FD0FFE7079803285FD0FFE72E
:100530000798112832D0FFE70798122838D0FFE734
:1005400007980021C1F21101884236D0FFE70798D1
:100550000021C1F2120188422FD0FFE70798002145
:10056000C1F22101884228D0FFE707980021C1F29B
:100570002201884221D0FFE707980021C1F2310112
:1005800088421AD0FFE707980021C1F23201884261
:1005900013D02FE01098C0680B902CE01098C06822
:1005A00004300B9027E01098C06808300B9022E0D0
:1005B0001098C0680C300B901DE01098806818B936
:1005C000FFE704200B9011E010988068012806D105
:1005D000FFE708200B900E981199086105E00820AC
:1005E0000B900E9811994861FFE7FFE703E00020A8
:1005F0000B9000E0FFE70D98FF2803D8FFE7119864
:10060000069003E0119804300690FFE706980A90E0
:100610000D98FF2804D8FFE70F988000059006E0AA
:100620000F996FF01F0000EB81000590FFE7059820
:1006300009900A980068099A0F21914088430B9904
:10064000914008430A9908601098C079C0060028B4
:1006500040F1E280FFE7FFE741F21800C4F2020038
:10066000016841F001010160006800F0010008909C
:100670000898FFE70F9820F003000821C4F2010159
:1006800040580C900F9800F0030081000F2000FAF2
:1006900001F10C9888430C90119840F60001C4F2C7
:1006A0000101884203D1FFE70020049042E0119845
:1006B00040F60041C4F20101884203D1FFE7012066
:1006C000039034E0119841F20001C4F20101884224
:1006D00003D1FFE70220029026E0119841F2004189
:1006E000C4F20101884203D1FFE70320019018E022
:1006F000119841F60001C4F20101884203D1FFE7DD
:10070000042000900AE0119941F60042C4F201026F
:100710000620914208BF05200090FFE70098019055
:10072000FFE701980290FFE702980390FFE7039824
:100730000490FFE704980F9901F00301890000FA83
:1007400001F10C9808430C900C980F9921F00301CB
:100750000822C4F20102885010988079C00600284F
:1007600009D5FFE70D9A40F20841C4F2010108687B
:100770001043086008E00D9A40F20841C4F20101FC
:10078000086890430860FFE7109880798006002889
:1007900009D5FFE70D9A40F20C41C4F20101086847
:1007A0001043086008E00D9A40F20C41C4F20101C8
:1007B000086890430860FFE7109880798007002858
:1007C00009D5FFE70D9A40F20441C4F2010108681F
:1007D0001043086008E00D9A40F20441C4F20101A0
:1007E000086890430860FFE710988079C00748B117
:1007F000FFE70D9A40F20041C4F20101086810437E
:10080000086008E00D9A40F20041C4F20101086856
:1008100090430860FFE7FFE7FFE70F9801300F9074
:100820005DE612B07047000082B00190ADF8021092
:1008300001988068BDF80210084204D0FFE701204B
:100840008DF8010003E000208DF80100FFE79DF81E
:10085000010002B07047000083B00290ADF80610AE
:100860000298C0680090009ABDF8060002EA0001F4
:10087000904340EA01400299086103B070470000CC
:1008800082B00190ADF802108DF801209DF80100B2
:1008900028B1FFE7BDF802000199086105E0BDF845
:1008A0000200000401990861FFE702B070470000F0
:1008B00040F28450C2F200000068704780B58EB0EC
:1008C0000C900C9820B9FFE701208DF8370043E128
:1008D0000C9890F83D0040B9FFE70C99002081F892
:1008E0003C000C9800F040FAFFE70C99242081F8B6
:1008F0003D000C980168086820F0010008600C9821
:100900000168086840F4004008600C9801680868B5
:1009100020F40040086000F047FC0A900C98406802
:1009200048F2A061C0F2010188420BD8FFE70A99A2
:1009300048F28042C0F21E020020914238BF0120DE
:1009400009900AE00A9940F60012C0F23D02002028
:10095000914238BF01200990FFE70998012804D18E
:10096000FFE701208DF83700F6E00A984DF6836125
:10097000C4F21B31A0FB0110800C0B900C98006896
:10098000406820F03F000B9908430C9909684860C3
:100990000C980068006A20F03F0008900C984068AE
:1009A00048F2A061C0F20101884204D8FFE70B9829
:1009B000013007900EE00B984FF49671484344F6CF
:1009C000D351C1F26201A0FB0101012000EB9110A3
:1009D0000790FFE70898079908430C99096808628F
:1009E0000C980068C0694CF6FF71884306900C981B
:1009F000406848F2A061C0F2010188421FD8FFE7B9
:100A00000A9801380C9949684900B0FBF1F00130AF
:100A10006FF31F30032803D8FFE7042005900BE095
:100A20000A9801380C9949684900B0FBF1F001308F
:100A30006FF31F300590FFE7059804904CE00C9889
:100A4000806868B9FFE70A9801380C99496801EB9A
:100A50004101B0FBF1F001306FF31F3003900DE066
:100A60000A9801380C99496819225143B0FBF1F0FA
:100A70000130042161F31F300390FFE70398000564
:100A800018B9FFE70120029023E00C98806868B94C
:100A9000FFE70A9801380C99496801EB4101B0FB66
:100AA000F1F001306FF31F3001900DE00A9801382A
:100AB0000C99496819225143B0FBF1F0013004212F
:100AC00061F31F300190FFE7019840F4004002906D
:100AD000FFE702980490FFE70698049908430C99F1
:100AE0000968C8610C980068006820F0C0000C9B81
:100AF0001968DA691B6A1A43104308600C98006889
:100B0000806848F2FF3188430C9A1168D3681269F3
:100B10001A43104388600C980068C06820F0FF00FA
:100B20000C9B19685A699B691A431043C8600C985A
:100B30000168086840F0010008600C990020086412
:100B40000C9A202182F83D100C9908630C9981F8C9
:100B50003E008DF83700FFE79DF837000EB080BDEE
:100B600080B588B0DDF828C00690ADF81610049264
:100B7000ADF80E30FFF79CFE0290069890F83D000D
:100B8000202840F0E980FFE7069802996A46116044
:100B90000221C0F210010122192301F08BF820B1CB
:100BA000FFE702208DF81F00DAE0FFE7069890F8D3
:100BB0003C00012804D1FFE702208DF81F00CFE0A0
:100BC0000699012081F83C00FFE7FFE706980068DE
:100BD0000068C00738B9FFE706980168086840F068
:100BE00001000860FFE706980168086820F40060CB
:100BF00008600699212081F83D000699102081F8AF
:100C00003E00069900200864049806994862BDF8E1
:100C10000E00069948850698408D06990885069924
:100C20000020CFF6FF70C8620698BDF816100A9A29
:100C3000029B00F05FFF20B1FFE701208DF81F004D
:100C40008EE0FFE70020019006980068406901905F
:100C500006980068806901900198FFE7FFE7069811
:100C6000008D002860D0FFE706980A99029A01F0EB
:100C70004FF980B1FFE70698006C042807D1FFE721
:100C800006980168086840F400700860FFE70120DA
:100C90008DF81F0064E006980168406A00780861DA
:100CA0000699486A013048620699488D013848859E
:100CB0000699088D0138088506980068406900F09B
:100CC00004010120B0EB910F16D1FFE70698008DCB
:100CD00090B1FFE706980168406A007808610699BC
:100CE000486A013048620699488D0138488506995E
:100CF000088D01380885FFE706980A99029A00F0E6
:100D000083FF80B1FFE70698006C042807D1FFE756
:100D100006980168086840F400700860FFE7012049
:100D20008DF81F001CE09AE706980168086840F4F7
:100D3000007008600699202081F83D000699002087
:100D400081F83E00FFE70699002081F83C00FFE7AC
:100D500000208DF81F0003E002208DF81F00FFE740
:100D60009DF81F0008B080BD80B588B007900020B6
:100D700006900590049003900798006845F20041A2
:100D8000C4F2000188422CD1FFE7FFE741F21800CE
:100D9000C4F20200016841F008010160006800F03F
:100DA000080002900298FFE7C020039012200490F0
:100DB0000320069040F60040C4F2010003A9FFF7AB
:100DC00087FBFFE741F21C00C4F20200016841F416
:100DD00000110160006800F4001001900198FFE725
:100DE000FFE708B080BD000040F20C00C2F2000036
:100DF000027840F28451C2F2000108681044086091
:100E00007047000080B542F20001C4F20201086898
:100E100040F010000860032000F08CF80F2000F074
:100E200005F800F03BF8002080BD000080B582B0DE
:100E3000009040F20000C2F20000006840F20C0195
:100E4000C2F200010A784FF47A71B1FBF2F1B0FB03
:100E5000F1F000F013FE20B1FFE701208DF807004C
:100E600018E000980F280DD8FFE700994FF0FF30E9
:100E7000002200F045F8009840F21001C2F2000193
:100E8000086003E001208DF8070003E000208DF8E2
:100E90000700FFE79DF8070002B080BD83B0FFE7C1
:100EA00041F21800C4F20200016841F00101016042
:100EB000006800F0010002900298FFE7FFE741F2AE
:100EC0001C00C4F20200016841F08051016000681A
:100ED00000F0805001900198FFE7FFE70421C4F281
:100EE000010108680090009820F0E06000900098F0
:100EF00040F00070009000980860FFE703B0704772
:100F000080B586B08DF817000491039200200290FE
:100F100001F0D2FC02909DF917000190029804990B
:100F2000039A01F0C7FA0146019801F0CDFC06B022
:100F300080BD000080B582B00190019801F0E6FC10
:100F400002B080BD80B584B002900191029820B9B2
:100F5000FFE701208DF80F001BE1019842F200012C
:100F6000C4F20201096801F00701884216D9FFE7BF
:100F700042F20000C4F20200016821F00701019A68
:100F800011430160006800F007000199884204D015
:100F9000FFE701208DF80F00FBE0FFE702980078E3
:100FA000800700282AD5FFE702980078400700282C
:100FB00009D5FFE741F20401C4F20201086840F4D8
:100FC000E0600860FFE7029800780007002809D574
:100FD000FFE741F20401C4F20201086840F46050E6
:100FE0000860FFE741F20401C4F20201086820F042
:100FF000F000029A926810430860FFE702980078B8
:10100000C007002860D0FFE70298406801280ED191
:10101000FFE741F20000C4F20200006880030028EC
:1010200004D4FFE701208DF80F00B2E021E0029820
:10103000406802280ED1FFE741F20000C4F202002E
:1010400000688001002804D4FFE701208DF80F001C
:101050009FE00DE041F20000C4F20200006880074A
:10106000002804D4FFE701208DF80F0091E0FFE78E
:10107000FFE741F20401C4F20201086820F0030016
:10108000029A526810430860FFF712FC0090FFE7D5
:1010900041F20400C4F20200006800F00C00029962
:1010A0004968B0EB810F0ED0FFE7FFF701FC009914
:1010B000401A41F28931884204D3FFE703208DF8BA
:1010C0000F0066E0E4E7FFE7019842F20001C4F296
:1010D0000201096801F00701884216D2FFE742F2D7
:1010E0000000C4F20200016821F00701019A1143D7
:1010F0000160006800F007000199884204D0FFE712
:1011000001208DF80F0044E0FFE7029800784007C7
:1011100000280CD5FFE741F20401C4F2020108687F
:1011200020F4E060029AD26810430860FFE702985A
:101130000078000700280DD5FFE741F20401C4F252
:101140000201086820F46050029A126940EAC20065
:101150000860FFE700F03AF841F20401C4F202012E
:101160000968C9B20A0942F63821C0F60001895C53
:10117000C84040F20001C2F20001086040F21000D5
:10118000C2F200000068FFF751FE00208DF80F004A
:10119000FFE79DF80F0004B080BD000040F20000A2
:1011A000C2F200000068704780B5FFF7F7FF41F218
:1011B0000401C4F202010968C1F3022242F6482187
:1011C000C0F60001895CC84080BD000086B00020E8
:1011D0000590049003900290019041F20400C4F243
:1011E000020000680590059800F00C00014600918F
:1011F00000283FD0FFE70098042804D0FFE70098BC
:10120000082806D037E041F20020C0F27A000190B1
:1012100037E00598C0F3834142F65020C0F6000045
:10122000405C02909DF81600C007C0B1FFE741F294
:101230000400C4F202000068C0F3404142F660209E
:10124000C0F60000405C0490029841F20021C0F218
:101250007A0148430499B0FBF1F0039007E002984B
:1012600040F60011C0F23D0148430390FFE70398A8
:10127000019006E0FFE741F20020C0F27A00019001
:10128000FFE7019806B0704780B586B004900498D7
:1012900020B9FFE701208DF817002EE304980078AD
:1012A000C007002800F0AE80FFE741F20400C4F25E
:1012B0000200006800F00C00042813D0FFE741F2A0
:1012C0000400C4F20200006800F00C0008281BD1E2
:1012D000FFE741F20400C4F202000068C0030028E6
:1012E00012D5FFE741F20000C4F20200006880035B
:1012F000002808D5FFE70498406820B9FFE70120DF
:101300008DF81700F9E27CE0FFE704984068B0F53B
:10131000803F09D1FFE741F20001C4F202010868F1
:1013200040F48030086032E00498406868B9FFE714
:1013300041F20001C4F20201086820F48030086024
:10134000086820F48020086020E004984068B0F528
:10135000A02F0DD1FFE741F20001C4F2020108689D
:1013600040F480200860086840F4803008600CE099
:1013700041F20001C4F20201086820F480300860E4
:10138000086820F480200860FFE7FFE7FFE7FFE739
:1013900004984068D0B1FFE7FFF78AFA0390FFE7AF
:1013A00041F20000C4F202000068800300280CD45F
:1013B000FFE7FFF77DFA0399401A652804D3FFE79A
:1013C00003208DF8170098E2EAE719E0FFF770FABA
:1013D0000390FFE741F20000C4F2020000688003BE
:1013E00000280CD5FFE7FFF763FA0399401A652838
:1013F00004D3FFE703208DF817007EE2EAE7FFE75A
:10140000FFE7FFE7049800788007002840F18D800F
:10141000FFE741F20400C4F20200006810F00C0F74
:1014200013D0FFE741F20400C4F20200006800F0AC
:101430000C00082829D1FFE741F20400C4F20200A1
:101440000068C003002820D4FFE741F20000C4F286
:10145000020000688007002809D5FFE704980069AA
:10146000012804D0FFE701208DF8170045E241F282
:101470000001C4F20201086820F0F800049A5269E1
:1014800040EAC2000860FFE74EE00498006958B3E4
:10149000FFE70021C4F2422101200860FFF708FAAB
:1014A0000390FFE741F20000C4F2020000688007E9
:1014B00000280CD4FFE7FFF7FBF90399401A032833
:1014C00004D3FFE703208DF8170016E2EAE741F2A4
:1014D0000001C4F20201086820F0F800049A526981
:1014E00040EAC20008601EE00021C4F24221002050
:1014F0000860FFF7DDF90390FFE741F20000C4F256
:1015000002000068800700280CD5FFE7FFF7D0F93C
:101510000399401A032804D3FFE703208DF817002E
:10152000EBE1EAE7FFE7FFE7FFE704980078000751
:10153000002848D5FFE70498806918B3FFE740F218
:101540008041C4F2422101200860FFF7B1F9039005
:10155000FFE741F22400C4F202000068800700287F
:101560000CD4FFE7FFF7A4F90399401A032804D32A
:10157000FFE703208DF81700BFE1EAE7012001F043
:1015800013F91FE040F28041C4F2422100200860BC
:10159000FFF78EF90390FFE741F22400C4F2020046
:1015A0000068800700280CD5FFE7FFF781F9039951
:1015B000401A032804D3FFE703208DF817009CE1AD
:1015C000EAE7FFE7FFE7049800784007002840F1CA
:1015D000D880FFE700208DF8070041F21C00C4F21C
:1015E00002000068C000002813D4FFE7FFE741F2C3
:1015F0001C00C4F20200016841F0805101600068E3
:1016000000F0805000900098FFE701208DF807005F
:10161000FFE747F20000C4F200000068C0050028A0
:1016200022D4FFE747F20001C4F20001086840F449
:1016300080700860FFF73CF90390FFE747F2000075
:10164000C4F200000068C00500280CD4FFE7FFF7D3
:101650002FF90399401A652804D3FFE703208DF87A
:1016600017004AE1EAE7FFE7FFE70498C0680128AE
:1016700009D1FFE741F22001C4F20201086840F0FD
:101680000100086031E00498C06868B9FFE741F2E2
:101690002001C4F20201086820F001000860086817
:1016A00020F0040008601FE00498C06805280DD1F0
:1016B000FFE741F22001C4F20201086840F0040093
:1016C0000860086840F0010008600CE041F2200169
:1016D000C4F20201086820F001000860086820F0E8
:1016E00004000860FFE7FFE7FFE7FFE70498C06832
:1016F000E0B1FFE7FFF7DCF80390FFE741F22000DD
:10170000C4F202000068800700280ED4FFE7FFF74C
:10171000CFF80399401A41F28931884204D3FFE798
:1017200003208DF81700E8E0E8E71BE0FFF7C0F8BA
:101730000390FFE741F22000C4F202000068800736
:1017400000280ED5FFE7FFF7B3F80399401A41F2DE
:101750008931884204D3FFE703208DF81700CCE0DD
:10176000E8E7FFE79DF80700012809D1FFE741F20C
:101770001C01C4F20201086820F080500860FFE7F5
:10178000FFE70498C069002800F0B380FFE741F24A
:101790000400C4F20200006800F00C00082800F009
:1017A0008280FFE70498C06902285CD1FFE76021CE
:1017B000C4F2422100200860FFF77AF80390FFE7A7
:1017C00041F20000C4F202000068800100280CD53C
:1017D000FFE7FFF76DF80399401A032804D3FFE7EA
:1017E00003208DF8170088E0EAE70498006AB0F556
:1017F000803F0CD1FFE741F20401C4F20201086806
:1018000020F40030049A926810430860FFE741F228
:101810000401C4F20201086820F47410049B1A6ADF
:101820005B6A1A43104308606021C4F24221012020
:101830000860FFF73DF80390FFE741F20000C4F2B3
:1018400002000068800100280CD4FFE7FFF730F8A1
:101850000399401A032804D3FFE703208DF81700EB
:101860004BE0EAE71EE06021C4F24221002008605C
:10187000FFF71EF80390FFE741F20000C4F20200F8
:101880000068800100280CD5FFE7FFF711F80399E5
:10189000401A032804D3FFE703208DF817002CE03B
:1018A000EAE7FFE724E00498C069012804D1FFE7D4
:1018B00001208DF8170020E041F20400C4F202007C
:1018C00000680290029800F480300499096A884206
:1018D00008D1FFE7029800F470100499496A884221
:1018E00004D0FFE701208DF8170006E0FFE7FFE7CF
:1018F000FFE700208DF81700FFE79DF8170006B0FE
:1019000080BD000080B584B00290029820B9FFE746
:1019100001208DF80F006DE00298406A60B9FFE782
:1019200002984068B0F5827F01D1FFE703E0029999
:101930000020C861FFE705E00299002008610299D4
:101940004861FFE7029900208862029890F85100F0
:1019500040B9FFE70299002081F85000029800F09A
:101960004DF8FFE70299022081F8510002980168C2
:10197000086820F040000860029A019211685068DF
:10198000D2F808C0D36800F482700CF4044C6044B0
:1019900003F400631844136903F002031844536905
:1019A00003F001031844936903F400731844D369E6
:1019B00003F038031844136A03F080031843926A53
:1019C00002F40052104308600299488B00F00400B2
:1019D0000968486002980168C86920F40060C8611D
:1019E000029900204865029A012182F851108DF871
:1019F0000F00FFE79DF80F0004B080BD80B588B0F0
:101A000007900020069005900490039007980068C6
:101A100043F20001C4F2010188422CD1FFE7FFE745
:101A200041F21800C4F20200016841F480510160E3
:101A3000006800F4805002900298FFE7FFE741F24F
:101A40001800C4F20200016841F00401016000685E
:101A500000F0040001900198FFE7A020039002200D
:101A600004900320069040F60000C4F2010003A990
:101A7000FEF72EFDFFE708B080BD000080B582B004
:101A80000190019800F0B0FE02B080BDFFE7FEE7D4
:101A900082B0009000980068406900F480610120E5
:101AA000B0EB912F1ED1FFE7009801686FF48060C2
:101AB0004861009900200863009A202182F83D10B7
:101AC000009981F83E000099086C40F00400086419
:101AD000FFE70099002081F83C00FFE701208DF826
:101AE000070003E000208DF80700FFE79DF80700DE
:101AF00002B0704780B588B00690ADF81610049219
:101B000003930698C06A02900298082809D0FFE75C
:101B10000298012805D0FFE7029810F5803F07D111
:101B2000FFE706980168086840F4807008600DE0DF
:101B30000698006B122807D1FFE70698016808682D
:101B400040F48070086000E0FFE7FFE70698049B20
:101B500003996A4611604FF00111002200F0AAF8C3
:101B600080B1FFE7069800680068C005002805D529
:101B7000FFE706994FF400700864FFE703208DF833
:101B80001F003CE006980069B0F5804F08D1FFE7E0
:101B9000BDF8160000F0FE000699096808611CE017
:101BA000BDF8160000F44070C009F03006990968CD
:101BB00008610698049A039B0821C0F2010100F015
:101BC000FDF820B1FFE701208DF81F0017E09DF818
:101BD0001600069909680861FFE70698049A039BB6
:101BE0000221C0F2010100F0E9F820B1FFE7012075
:101BF0008DF81F0003E000208DF81F00FFE79DF81F
:101C00001F0008B080BD000080B584B00290019133
:101C10000092FFE702980068406900F0040100208C
:101C2000B0EB910F3ED1FFE70298FFF731FF20B1F3
:101C3000FFE701208DF80F0038E00198013080B3F4
:101C4000FFE7FEF735FE0099401A0199884203D854
:101C5000FFE7019820BBFFE702980068406900F0A9
:101C600004010020B0EB910F19D1FFE70299002089
:101C70000863029A202182F83D10029981F83E0003
:101C80000299086C40F020000864FFE702990020E8
:101C900081F83C00FFE701208DF80F0006E0FFE728
:101CA000FFE7B7E700208DF80F00FFE79DF80F0072
:101CB00004B080BD80B588B0DDF828C006900591DD
:101CC0008DF813200393FFE79DF8160001280CD12F
:101CD000FFE7069800684069BDF814100840401AF4
:101CE000B0FA80F0400902900BE006980068806925
:101CF000BDF814100840401AB0FA80F04009029074
:101D0000FFE702989DF8131088424FD1FFE7039830
:101D10000130002849D0FFE7FEF7CAFD0A99401AB2
:101D20000399884203D8FFE70398E8BBFFE79DF8D3
:101D3000160001280CD1FFE7069800684069BDF83D
:101D400014100840401AB0FA80F0400901900BE0EE
:101D5000069800688069BDF814100840401AB0FA6F
:101D600080F040090190FFE701989DF81310884228
:101D700019D1FFE7069900200863069A202182F80E
:101D80003D10069981F83E000699086C40F020004D
:101D90000864FFE70699002081F83C00FFE7012076
:101DA0008DF81F0006E0FFE7FFE78DE700208DF8C4
:101DB0001F00FFE79DF81F0008B080BD80B588B008
:101DC0000690059104920393FFE79DF81600012801
:101DD0000CD1FFE7069800684069BDF81410084070
:101DE000401AB0FA80F0400902900BE006980068B3
:101DF0008069BDF814100840401AB0FA80F040091C
:101E00000290FFE7029800287AD1FFE70698006861
:101E1000406900F480610120B0EB912F24D1FFE7ED
:101E200006980168086840F4007008600698016828
:101E30006FF480604861069900200863069A2021AB
:101E400082F83D10069981F83E000699086C40F032
:101E500004000864FFE70699002081F83C00FFE7D2
:101E600001208DF81F004FE004980130002846D073
:101E7000FFE7FEF71DFD0399401A0499884203D835
:101E8000FFE70498D0BBFFE79DF8160001280CD1AE
:101E9000FFE7069800684069BDF814100840401A32
:101EA000B0FA80F0400901900BE006980068806964
:101EB000BDF814100840401AB0FA80F040090190B3
:101EC000FFE70198C8B9FFE7069900200863069A62
:101ED000202182F83D10069981F83E000699086C91
:101EE00040F020000864FFE70699002081F83C00DC
:101EF000FFE701208DF81F0006E0FFE7FFE764E73A
:101F000000208DF81F00FFE79DF81F0008B080BD7E
:101F100080B584B0029001910092FFE702980068BA
:101F20004069C1B20020B0EBD11F3DD1FFE702985C
:101F3000FFF7AEFD20B1FFE701208DF80F0037E07D
:101F40000198013078B3FFE7FEF7B2FC0099401A20
:101F50000199884203D8FFE7019818BBFFE7029870
:101F600000684069C1B20020B0EBD11F19D1FFE772
:101F7000029900200863029A202182F83D100299FC
:101F800081F83E000299086C40F020000864FFE7E9
:101F90000299002081F83C00FFE701208DF80F0036
:101FA00006E0FFE7FFE7B9E700208DF80F00FFE745
:101FB0009DF80F0004B080BD80B582B0019040F262
:101FC0000400C2F2000000680168019800688847B8
:101FD0008DF803009DF8030001990979401AB0FAC1
:101FE00080F0400902B080BD80B582B001900091C0
:101FF000019858B1FFE7009840B1FFE740F2784000
:10200000C2F200000078C00708B9FFE71EE001989F
:102010002821FEF756F90199DDF800E0DEF800000E
:10202000DEF80420DEF80830DEF80CC0DEF810E040
:10203000C1F810E0C1F80CC08B604A6008600199DB
:1020400000200875019901204875FFE702B080BDA6
:1020500082B001900091019818B1FFE7009808B98B
:10206000FFE710E0019840F20401C2F200010A68A3
:10207000106000980968486040F27841C2F200019F
:1020800001200870FFE702B07047000080B586B0FD
:102090000490049868B1FFE740F27840C2F2000073
:1020A0000078C00728B1FFE70498407DC00720B939
:1020B000FFE700208DF81700FFE000208DF80F00EB
:1020C00040F20400C2F200000068406880470290BD
:1020D0000498FFF771FF8DF807000498007D014612
:1020E0000091072800F2DE800099DFE801F004117A
:1020F0002B3D7B98B2BF9DF80700C00738B1FFE7C2
:10210000049901200875029804998861FFE7CFE0DF
:102110009DF80700C00720B9FFE704990020087563
:102120000FE00298049A91689269801A884207D356
:10213000FFE7049902200875049901208875FFE7DC
:10214000FFE7B5E09DF80700C00760B9FFE7049915
:102150000320087502980499C861029804998A6955
:10216000801A0862FFE7A3E09DF80700C00720B1CE
:10217000FFE704990220087533E00298049A9168F9
:10218000D269801A88422BD3FFE704990020887512
:102190000498C06868B1FFE70498C168006A884283
:1021A00007D3FFE702208DF80F000499002008757F
:1021B00012E00498006938B1FFE70499042008751B
:1021C00002980499486206E001208DF80F000499F6
:1021D00000200875FFE7FFE7049900200862FFE789
:1021E000FFE765E09DF80700C00738B1FFE70499F5
:1021F000052008750298049988610FE00298049AF6
:102200001169526A801A884207D3FFE701208DF8CE
:102210000F00049900200875FFE7FFE748E09DF8EC
:102220000700C00720B9FFE70499042008750FE0F4
:102230000298049A91689269801A884207D3FFE74E
:10224000049906200875049901208875FFE7FFE7C7
:102250002EE09DF80700C00738B9FFE70499072072
:10226000087502980499C861FFE721E09DF807000E
:10227000C00720B1FFE704990620087511E0029815
:10228000049A9168D269801A884209D3FFE7032033
:102290008DF80F0004990020887504990875FFE7F0
:1022A000FFE705E004990020087504998875FFE7A9
:1022B0009DF80F008DF81700FFE79DF8170006B096
:1022C00080BD000080B592B00020119010900F905A
:1022D0000E90FFE741F21800C4F20200016841F0DD
:1022E00040010160006800F040000D900D98FFE78C
:1022F000FFE741F21800C4F20200016841F0040156
:102300000160006800F004000C900C98FFE7FFE704
:1023100041F21800C4F20200016841F010010160AE
:10232000006800F010000B900B98FFE7FFE741F208
:102330001800C4F20200016841F008010160006861
:1023400000F008000A900A98FFE741F60000C4F286
:10235000010002902021019101220592FEF790FADE
:102360000298402100220692FEF78AFA069A41F26C
:102370000000C4F20100039030210491FEF780FABE
:102380000599069A40F60040C4F201000890FEF755
:1023900077FA0199059A0898FEF772FA029805995A
:1023A000069A18230E930F9210910EA90991FEF729
:1023B0008FF80298059B069A09994FF0600CCDF8AA
:1023C00038C00F931092022207921192FEF780F804
:1023D0000398DDF814C0069B079A0999DDF810E010
:1023E000CDF838E0CDF83CC010931192FEF770F8AC
:1023F000DDF814C0069B079A089809994FF0210E42
:10240000CDF838E0CDF83CC010931192FEF760F89B
:1024100012B080BD80B582B040F2CC40C2F2000064
:10242000019045F20041C4F20001016048F2A06150
:10243000C0F20101416000218160C1604FF480421F
:10244000026141618161C1610162FEF737FA18B131
:10245000FFE7FEF735F8FFE702B080BD80B582B038
:1024600040F22050C2F20000019043F20001C4F299
:10247000010101604FF48271416000218160C160FF
:10248000016141614FF4007282611022C2610162F8
:10249000416281620A21C162FFF734FA18B1FFE795
:1024A000FEF70EF8FFE702B080BD0000FFE7FEE791
:1024B000FFE7FEE788B0079006910592079800F0C5
:1024C000070004900498C0F10700052803D3FFE734
:1024D0000420019004E00498C0F107000190FFE798
:1024E0000198039004980430062803D8FFE70020E1
:1024F000009003E0049803380090FFE700980290F2
:1025000006980399012202FA01F101390840029B61
:10251000984005999A40013A1140084308B0704725
:1025200081B000208DF80200FFE79DF80200072827
:1025300023DCFFE700208DF80300FFE79DF8030090
:102540007F2813DCFFE79DF8021040F27800C2F20A
:10255000000000EBC1119DF8032000208854FFE724
:102560009DF8030001308DF80300E7E7FFE79DF8D1
:10257000020001308DF80200D7E701B0704700007B
:1025800080B5AE2000F098F8D52000F095F88020B6
:1025900000F092F8A82000F08FF83F2000F08CF8AF
:1025A000D32000F089F8002000F086F8402000F0E9
:1025B00083F8A12000F080F8C82000F07DF8DA2030
:1025C00000F07AF8122000F077F8812000F074F81B
:1025D000CF2000F071F8D92000F06EF8F12000F063
:1025E0006BF8DB2000F068F8302000F065F8A420DC
:1025F00000F062F8A62000F05FF88D2000F05CF893
:10260000142000F059F8AF2000F056F8FFF788FFCB
:1026100000F02EF880BD000081B00090009840F2DC
:102620000801C2F200010968086001B070470000AB
:1026300080B582B08DF807008DF806109DF8060071
:1026400002308DF806009DF8070040F0B00000F061
:1026500033F89DF806000009103000F02DF89DF8C1
:10266000060000F00F0000F027F802B080BD000067
:1026700080B582B000208DF80700FFE79DF80700C5
:10268000072817DCFFE79DF807000021FFF7D0FFC0
:102690009DF8071040F27800C2F2000000EBC11074
:1026A000802100F015F8FFE79DF8070001308DF854
:1026B0000700E3E702B080BD80B582B08DF8070067
:1026C00000200DF10701012200F018F802B080BDD2
:1026D00080B582B001908DF80310019820B1FFE71A
:1026E0009DF8030008B9FFE706E001999DF8032073
:1026F000402000F003F8FFE702B080BD80B5A6B02F
:102700008DF897002491ADF88E2040F20800C2F2B7
:102710000000006840B1FFE740F20800C2F200008C
:102720000068006808B9FFE73AE0FFE7BDF88E00EF
:10273000012835DBFFE7BDF88E00812803DBFFE7CA
:102740008020019003E0BDF88E000190FFE7019822
:10275000ADF80A009DF897008DF80D000DF10D0001
:10276000009001302499BDF80A20FDF765FD00981E
:1027700040F20801C2F2000109680A68BDF80A10B7
:10278000013189B29047BDF80A102498084424907A
:10279000BDF80A10BDF88E00401AADF88E00C5E7EE
:1027A00026B080BD7047000082B00190019840F2D1
:1027B0000001C2F200010968C90844F6D352C1F20F
:1027C0006202A1FB0221890948430090FFE700BF94
:1027D000FFE70098411E00910028F8D1FFE702B002
:1027E000704700007047000080B582B000900098EC
:1027F0000138B0F1807F03D3FFE70120019019E099
:10280000009801384EF21401CEF2000108604FF03A
:10281000FF300F2100F058F84EF21801CEF20001FF
:10282000002008604EF21002CEF200020721116073
:102830000190FFE7019802B080BD000080B5FEF76F
:10284000D3FA80BD80B590B006A800902821FDF78E
:1028500038FD00980023059304930393029301939A
:10286000012206924FF48031079108930A920222C6
:102870000D920E914FF4E0110F91FEF705FD18B186
:10288000FFE7FDF71DFEFFE70F20019002210291F7
:10289000002003904FF480620492059001A8FEF797
:1028A00051FB18B1FFE7FDF70BFEFFE710B080BD4D
:1028B00070470000FFE7FEE74EF60C50CEF2000036
:1028C0000068C0F30220704782B08DF807000091C5
:1028D0009DF9070000280AD4FFE7009800019DF940
:1028E00007104EF20042CEF2000288540BE000982E
:1028F00000019DF8071001F00F014EF61452CEF2C0
:1029000000028854FFE702B07047000083B00290D5
:10291000029800F0070000904EF60C51CEF2000134
:102920000868019001984FF6FF021040019001984D
:10293000009A40EA02200022C0F2FA5210430190AD
:102940000198086003B0704780B5FDF7B1FF80BD06
:1029500080B582B0019001208DF803000198012814
:102960000AD1FFE741F60000C4F201000821FDF79B
:102970005BFF8DF803000EE0019802280AD1FFE703
:1029800041F60000C4F201001021FDF74DFF8DF863
:102990000300FFE7FFE79DF80300002818BF0120B0
:1029A00002B080BD80B582B000200190FEF72AFA07
:1029B000FFF748FFFFF786FCFFF750FDFFF72AFD02
:1029C000FDF770FDFDF714FDFFE740F27C40C2F219
:1029D0000000FFF75BFB8DF8030040F2A440C2F259
:1029E0000000FFF753FB8DF802009DF8030078B15B
:1029F000FFE79DF80300012808D1FFE740F60040FB
:102A0000C4F201002021FDF727FF00E0FFE7FFE708
:102A10009DF8020078B1FFE79DF80200012808D177
:102A2000FFE741F60000C4F201002021FDF714FF8A
:102A300000E0FFE7FFE7C8E700000000000000003B
:102A40000102030406070809000000000102030454
:102A500002030405060708090A0B0C0D0E0F1010DF
:102A600001020000882A0008000000201800000071
:102A700094010008A02A000818000020700B000034
:102A8000B40100080000000000127A007C0500205C
:102A90007805002001000000100000000000000088
:0400000508000131BD
:00000001FF
