:020000040800F2
:10000000D8060020790200082B2700084B2600089C
:1000100029270008C91B0008F92E0008000000006D
:100020000000000000000000000000001D28000883
:10003000CB1B0008000000002D2700081F28000827
:10004000930200089302000893020008930200083C
:10005000930200089302000893020008930200082C
:10006000930200089302000893020008930200081C
:10007000930200089302000893020008930200080C
:1000800093020008930200089302000893020008FC
:1000900093020008930200089302000893020008EC
:1000A00093020008930200089302000893020008DC
:1000B00093020008930200089302000893020008CC
:1000C00093020008930200089302000893020008BC
:1000D00093020008930200089302000893020008AC
:1000E000930200089302000893020008930200089C
:1000F000930200089302000893020008930200088C
:10010000930200089302000893020008930200087B
:10011000930200089302000893020008930200086B
:10012000930200089302000893020008930200085B
:1001300000F002F800F090F80AA090E8000C824469
:100140008344AAF10107DA4501D100F085F8AFF246
:10015000090EBAE80F0013F0010F18BFFB1A43F0A5
:10016000010318473833000058330000103A24BF09
:1001700078C878C1FAD8520724BF30C830C144BF0C
:1001800004680C607047000000230024002500264E
:10019000103A28BF78C1FBD8520728BF30C148BFEA
:1001A0000B6070476E2900F00B83702900F01784F4
:1001B000662902F0E387652902F0E087672902F0EB
:1001C000DD87612902F0DC8703681B0A28BF41F044
:1001D0008001692900F0B882642900F0B582752990
:1001E00000F0B2826F2900F0A483782900F0E38345
:1001F000E92900F0A380E42900F0A080F52900F0AF
:100200009D80EF2900F0A183F82900F0E2830368C4
:10021000DB0928BF41F08001632900F0838773293F
:1002200000F08887E32900F09387F32900F098878E
:10023000002070471FB500F0E9FF040000200021F6
:1002400002F086FF401C60600020002102F06AFF7F
:10025000E0601FBD10B510BD00F0AAFF1146FFF70A
:10026000E9FF02F0F7FE01F087F803B4FFF7F2FFB1
:1002700003BC01F0CBF8000009488047094800475B
:10028000FEE7FEE7FEE7FEE7FEE7FEE7FEE7FEE746
:10029000FEE7FEE704480549054A064B70470000A3
:1002A0007F28000831010008D8000020D80600206F
:1002B000D8020020D80200207CB51D4616460C004E
:1002C000009001D02044401E074B7B442A466946DB
:1002D0000190304600F08DFA05461CB100206946B9
:1002E00000F09AFA28467CBD5505000070B504461A
:1002F00085690068C10601D5302600E02026C007C8
:1003000007D070BDD4E9012130469047206A401CD7
:1003100020626D1EF6D570BD70B504468569007803
:10032000C00707D170BDD4E9012120209047206A81
:10033000401C20626D1EF6D570BD00002DE9F04115
:100340008046D21D22F007020025D2E90002F529DD
:1003500015A614D0011E72F1000106DA0023D0EBBD
:10036000030063EB020211A608E0D8F800108B0727
:1003700001D50FA602E0490701D50EA601251146B9
:10038000002408F1240704E000F004F930323A5563
:10039000641C50EA0102F7D12B4632462146404602
:1003A000BDE8F04100F076B9000000002D0000002B
:1003B0002B000000200000002DE9F05F8946044674
:1003C0004FF0000ADFF874B1FB44C0F820A02046CB
:1003D000E1688847002874D0252806D0D4E9012197
:1003E0009047206A401C2062F1E700265F462046C5
:1003F000E16888472028054607DB312D05D27819AA
:1004000010F8200C08B10643F1E7B00701D526F03B
:100410000406C4F81CA00027C4F818A02A2D09D08F
:10042000284602F010FE38B304EB8708303DC8F8C8
:10043000185019E059F8041B204604EB870291611B
:10044000E1688847012F054618D1E069002820DAC5
:1004500026F020061DE0D8F8180000EB800005EB20
:1004600040003038C8F818002046E1688847054643
:1004700002F0E9FD0028EED1012F0AD02E2D08D17F
:100480002046E16888477F1C0546022F46F020067B
:10049000C4DBA069002803DA404246F00106A061EF
:1004A000F00701D026F010066C2D0BD0682D09D076
:1004B0004C2D39D06A2D35D0742D35D07A2D33D0CE
:1004C00016E038E0E1682F4620468847B8420546E6
:1004D00009D16C2F26D04FF48060E1680643204696
:1004E0008847054604E06C2F1AD04FF4807006430D
:1004F0000DB3A5F14100192802D8203546F4006655
:100500004A462946204626604E46FFF74BFE80B1FC
:1005100001280BD0F61D26F0070000F1080956E768
:100520004020E4E78020D8E70020D6E706F1040960
:100530004DE7284652E7206ABDE8F09FD32F000020
:100540004FF0000200B5134694469646203922BF6C
:10055000A0E80C50A0E80C50B1F12001BFF4F7AFB7
:10056000090728BFA0E80C5048BF0CC05DF804EB99
:10057000890028BF40F8042B08BF704748BF20F807
:10058000022B11F0804F18BF00F8012B7047704705
:100590007047704730B5B0F10A024FEA900E71F122
:1005A00000034EEA817EB0EB0E0061EB91014FEA51
:1005B000101E4EEA017E10EB0E0041EB11114FEAC6
:1005C000102E4EEA016E10EB0E0041EB11214FEAA6
:1005D000104E4EEA014E10EB0E0041EB1141401857
:1005E00041F100014FEAD00040EA41704FEAD101E9
:1005F00010EB80054FEA810444EA907444EB010457
:100600006D1944EB0404521BA3414FF0000348BF93
:100610000A3200D530BD401C41F1000130BD0968EF
:100620004A0501D540B27047C905FCD500B27047F4
:1006300009684A0501D5C0B27047C905FCD580B22A
:10064000704770B50C460546012A05D0287880060B
:1006500000D5EA69002302E0012305E05B1C934218
:1006600002D2E05C0028F9D1A869E618C01AA86196
:10067000286A184428622846FFF738FE04E0D5E9C6
:10068000012114F8010B9047B442F8D32846FFF734
:1006900043FE70BD2DE9F0470D469946924604464B
:1006A00000F124080168880604D5E06921F01001F2
:1006B000216000E00120A84201DD471B00E0002787
:1006C000A1697A1902EB0900081AA0612078C00616
:1006D00002D42046FFF70AFE002608E0D4E90121F3
:1006E0001AF806009047206A401C761C20624E458E
:1006F000F4DB2078C0060AD52046FFF7F7FD06E0B8
:10070000D4E9012130209047206A401C2062381E25
:10071000A7F10107F4DC07E0D4E9012118F805008E
:100720009047206A401C2062281EA5F10105F3DCD9
:100730002046FFF7F1FD2078000602D50220BDE833
:10074000F0870120FBE700002DE9F0410646002478
:1007500010687529314616A510D0FFF760FF0028F4
:1007600002DA404213A507E031688A0701D512A5D5
:1007700002E0490704D511A5012401E0FFF758FF65
:1007800000210A2206F1240709E0B0FBF2FCB0FBCD
:10079000F2F302FB1C00303078541846491C002844
:1007A000F3D123462A463046BDE8F041FFF772BF39
:1007B000000000002D0000002B00000020000000C1
:1007C00011680268006A530501D508700AE0D30574
:1007D00001D5088006E0130603D5C217C1E900025F
:1007E00000E008600120704701694A1C0261087836
:1007F000704700B58FB0CDE9013100210591054961
:100800007944CDE9031011466846FFF7D5FD0FB0D6
:1008100000BD0000E5FFFFFF0A6802F8010B0A6057
:100820007047D1E900239A4202D2531C0B6010702A
:10083000704700002DE9FF5F15468A460446DFF841
:10084000AC80F8440027D8E900103E46CDE90010FE
:1008500010E03AF816106A4602A800F085FC411C28
:1008600007D02178890603D5E269391891420DD85D
:100870000744761C2078800602D5E069B84205DD81
:10088000AE42E6DB3AF816000028E2D1A069C01BB0
:10089000A0612046FFF72AFDD8E90010CDE900103D
:1008A000002017E03AF818106A4602A800F05CFC35
:1008B000B0F1FF3F81460BD000250DF1080B05E09C
:1008C000D4E901211BF8050090476D1C4D45F7D375
:1008D00008F10100B0428046E4DB206A384420621F
:1008E0002046FFF719FDBDE8FF9F00006A2B0000BE
:1008F00030B4002100F1240408E002F00705D2081A
:10090000303542EA4372DB086554491C52EA03055C
:10091000F3D10468002310A2250707D5A40600D44C
:1009200021B1C46901230DA2641EC46130BCFFF76C
:10093000B1BE10B5044621461068FFF779FE0246A5
:100940002046BDE810400023D2E7D21D22F0070167
:10095000D1E90023CCE700000000000030000000D7
:10096000F0B40D460188090502D5214C7C4402E013
:100970001F4C7C440E34002100F1240608E002F0F4
:100980000F071209E75D42EA03721B097754491CFD
:1009900052EA0307F3D102780023120704D5702D21
:1009A00006D009B1022311342246F0BCFFF772BE13
:1009B00001231034F8E770B504460D46214610684F
:1009C000FFF736FE024629462046BDE87040002368
:1009D000C6E7D21D22F00703D3E90023C0E703686E
:1009E000126843F0200303600823C3610023B7E7C4
:1009F000482A000070472DE9FF4F0C461E464FF075
:100A0000FF378BB0D2E90001DDF860800A908A469A
:100A1000C1F30A5505B93D46002108464FF00000D4
:100A2000BAF1000F00F4400005DA00EB80004FF44B
:100A3000400101EA50004FEA9059B9F1010F00DD81
:100A4000B9460A9850EA4A000ED044F61050A5F272
:100A5000FF3545432F14B8F1000F1ED07542291EF3
:100A60001EDDC9F100021CE0B8F1010F4FF00000DB
:100A700001D0302103E0F24305E02154401CB04294
:100A8000FBDB30460022002121540B99C1F808807D
:100A9000C1E900200FB0BDE8F08FBD1B6D1CDEE783
:100AA0004A4600DA694206A800F0F4FB06AB93E878
:100AB000070003AB83E8070050460A9900F0ADFC3D
:100AC0008DE80700A0F500501F3800900398002D16
:100AD0000ADD42F21F014A460844002303A903909D
:100AE000684600F016FF09E0A0F500504A461F389E
:100AF000002303A90390684600F020FF8DE807005B
:100B00000004000C03D04FF0FF30410800E0104615
:100B1000B8F1000F03D00022009215461EE0751EAA
:100B200005D4FFF737FD303262556D1EF9D5B34657
:100B30000122084302D000227F1C04E020783028E4
:100B400001D100227F1E002A099784D01DE0112DBB
:100B500007DAFFF71FFD303262556D1C50EA0102C3
:100B6000F5D1084302D00098C8B10EE00021681EFC
:100B700005E0235C625C63542254401E491C8142A0
:100B8000F7DBAB46A81B401E0990002004F80B00C1
:100B90000B98099AC0F80880C0E9002B7AE7112663
:100BA0004FF0000857E72DE9F04F88460446D21D64
:100BB00022F0070191B0D1E90001CDE90A0102F06C
:100BC0001EFA02460B98C00F01D02D2007E02068C6
:100BD000810701D52B2002E0202101EAC000032A71
:100BE000099001D0072A05DB03464146204600F064
:100BF00011FB0BE12078800601D5E06900E00620BA
:100C0000B8F1650F814606D0B8F1660F18D0B8F17B
:100C1000670F70D131E00020B9F1110F009001DBB6
:100C2000112301E009F101030AAA01A90CA8FFF7A9
:100C3000E2FEDDE90C70002609F10105834647E07C
:100C400001204B4600904FF000470AAA01A90CA8CA
:100C5000FFF7D1FEDDE90DB00C995D46002610B915
:100C600009F101000D18B9EB050003D4C0F1FF36FE
:100C700009F10105A5EB09002BE0B9F1010F01DA3B
:100C80004FF001090020B9F1110F0090484601DD35
:100C9000112300E003460AAA01A90CA8FFF7ABFE46
:100CA000DDE90C704D4600268346207800070AD403
:100CB000AB4500DA5D4601A8012D04DD411911F8AC
:100CC000011C302907D04F4502DA17F1040F04DA6E
:100CD000012082460FE06D1EEEE7002F02DCED1BC7
:100CE0003E4403E0781CA84200DD7D1CB81B00F1E7
:100CF000010A4FF000472078000703D4AA4501DB22
:100D00004FF0FF3A0021B7F1004F0DF143088DF885
:100D1000431024D002202B23002F01DA7F422D2301
:100D20000A21021EA0F1010000DC5FB197FBF1FC7B
:100D300097FBF1F201FB1C7C17460CF1300C08F814
:100D400001CDEEE7A8F1010003702188090501D566
:100D5000452100E06521A0F1010800F8011C099877
:100D60000FA9A1EB0807FF1D00B10120411901EBFC
:100D7000EA70A1693844081A401EA0612078C006B4
:100D800002D42046FFF7B2FA099828B1D4E901212C
:100D90009047206A401C20622078C00622D5204659
:100DA000FFF7A4FA1EE0002E04DBB34502DD01A824
:100DB000805D00E03020D4E901219047206A401C8A
:100DC0002062761CAAF101005FEA000A0AD100F055
:100DD0001DFAC0680168405CD4E901219047206A8F
:100DE000401C2062281EA5F10105DCDC07E0D4E9E7
:100DF000012118F8010B9047206A401C2062381E20
:100E0000A7F10107F3DC2046FFF786FA032011B0B3
:100E100041E600002DE9F04F04460D46D21D22F0B8
:100E2000070089B0D0E900974846394602F0E7F854
:100E30000246F80F01D02D2307E02068810701D575
:100E40002B2302E0202101EAC0038DF820300BB1F2
:100E5000012000E00020032A824601D0072A04DB9B
:100E60002946204600F0D6F93FE12078800601D4DB
:100E70000D2500E0E569C7F30A560D2D49DA00217A
:100E80004FEA175B08464FF00000002F00F44000C7
:100E900007DA00EB80004FF4400100EBD07001EA6C
:100EA00060008115012901DD4FF0FF3100224FEA7A
:100EB000850CBCF1180F06D31346ACF118004FF0A7
:100EC0008052C24003E04FF4801323FA0CF30CF17C
:100ED0000C0CBCF1200F04D3ACF1200C09FA0CF07F
:100EE00001E007FA0CF000294FF0004801DD18B9C5
:100EF0000FE00ED140450CD319EB02095F4121B937
:100F0000404502D19F4329EA0209BBEB175F00D09D
:100F1000761C2088000502D57B48784402E07A4898
:100F20007844193808AA302302F80A30037C0AF101
:100F30000101002E0AF1020A53546A4602DC4FF006
:100F4000300101E04FF031014FF001088DF8001041
:100F500002D0A6F2FF3603E059EA470100D06B4EFB
:100F6000002D02DC2178090704D54FF002082E215C
:100F70008DF80110C44600210BE0C7F303433F0185
:100F8000C35C491C6D1E02F80830052908F10108F0
:100F900001DA002DF1DC00210CE000EB1973491C93
:100FA0001B786D1E082902F808304FEA091908F16C
:100FB000010801DA002DF0DC21688B0602D516E06D
:100FC000A8F10108E04505DD02EB080313F8013C38
:100FD000302BF5D0B8F1000F09DD02EB080313F850
:100FE000013C2E2B03D1090701D4A8F10108002DE3
:100FF00005DD3E2102F808106D1E08F10108407C55
:10100000002E02F8080008F1010804DA2D207642CB
:1010100002F8080002E02B2002F808000A214FF431
:101020007A70864208F101080BDB96FBF0F330334F
:1010300002F8083096FBF0F308F1010800FB136694
:1010400001E0642E0CDB642096FBF0F3303302F8F1
:10105000083096FBF0F308F1010800FB136601E08D
:101060000A2E06DB96FBF1F0303002F8080008F19A
:10107000010896FBF1F001FB1060303002F8080027
:10108000A16908F1010808EB050202EB0A00081A41
:10109000A0612078C00602D42046FFF727F9216A14
:1010A00008AE01EB0A00206204E0D4E9012116F841
:1010B000010B9047BAF1010AF7D22078C00602D599
:1010C0002046FFF713F96E4609E016F8010B3E289B
:1010D0000FD0D4E901219047206A401C2062B8F16A
:1010E0000108F2D22046FFF717F909B00320BDE846
:1010F000F08F206A2844206203E0D4E901213020E7
:1011000090476D1EEBD3F8E7D524000002FCFFFFEB
:1011100010B5436913B1AFF3008001E0FFF791FA16
:10112000012010BD127800F124010A7000224A70DB
:101130000122EDE711684FF0FF32E9E710B543698E
:1011400013B1AFF3008001E0FFF774FB012010BD85
:10115000128800F1240182840022C2840122EDE77A
:1011600011684FF0FF32E9E770B516460C460546A8
:1011700000F044F8036893F80101012806D0FF2C21
:101180000FD8185D68B101202C7070BDD3F807012D
:101190003246214603F2071303442846BDE8704057
:1011A00018474FF0FF3070BD0048704778000020AE
:1011B0007546FFF7F9FFAE4605006946534620F035
:1011C0000700854618B020B5FFF764F8BDE8204059
:1011D0004FF000064FF000074FF000084FF0000BF3
:1011E00021F00701AC46ACE8C009ACE8C009ACE8A6
:1011F000C009ACE8C0098D467047000010B500F08A
:1012000005F8001D10BD00BF491F000000487047D1
:10121000980000202DE9F0411F460446032601688E
:10122000072A01F4006004DB08B116A505E016A545
:1012300003E008B115A500E015A521F0100020601D
:10124000A069C01EA0610FB1401EA0612046FFF73B
:101250004DF84FB1D4E9012138469047206A401C2F
:101260002062C01C206206E0206AFAE7D4E901216E
:1012700015F8010B9047761EF8D22046FFF74CF880
:10128000BDE8F0814E414E006E616E00494E460051
:10129000696E66002DE9F047814616468AB03548EA
:1012A00078440DC88DE80D0032487844801C03ACAA
:1012B0000DC884E80D0041F69B300844372190FBAF
:1012C000F1F290FBF1F5A5F1800501FB12041B3C46
:1012D00002D56442012000E00020DFF898A080469B
:1012E0000027FA44AAF1BE0A0EE0E0070AD032460F
:1012F000684607EB470101230AEB810100F01EFB62
:101300008DE8070064107F1C002CEED1194F7F443C
:10131000AE3F19E0E80715D007EB04100DF1180AED
:1013200090E80E008AE80E00C068F04201D19819DA
:1013300008903246012306A903A800F0FFFA03AB88
:1013400083E807006D10641C002DE3D14FF001030A
:1013500032466946B8F1000F03A802D000F0D9FA6E
:1013600001E000F0EBFAC9E90001C9F808200AB071
:10137000BDE8F087E021000010B50446AFF300801F
:101380002046BDE81040FEF770BF00004FF0013C62
:1013900050F8042B51F8043B9A4221D1A2EB0C03E4
:1013A000934313EACC1317D150F8042B51F8043BA4
:1013B0009A4215D1A2EB0C03934313EACC130BD141
:1013C00050F8042B51F8043B9A4209D1A2EB0C03CC
:1013D000934313EACC13DBD04FF00000704700BFFB
:1013E000D01A01BAB1FA81F101F0180122FA01F024
:1013F000CB40C1F12001DBB2C0B2C01A2CFA01F31C
:10140000D11A914311EAC311E6D17047014918205E
:10141000ABBEFEE72600020070475FEA400C08BF43
:1014200091F0000F4FEA8C234FEAC12243EA515159
:101430004FEA1C5018BF00F5F0404FEA300018BFCB
:1014400041F000415FEA6C5C00F02980BCF1FF3F95
:1014500008BF40F080407047130C06BF12044FF0E5
:10146000100C4FF0000C130E04BF12020CF1080C0C
:10147000130F04BF12010CF1040C930F04BF920070
:101480000CF1020CD30F04BF52000CF1010C1146F9
:101490004FF00002A0F11F00A0EB0C00704711F00C
:1014A000004F08BF704731F000413FF4D5AF0B0C3F
:1014B00006BF09044FF0100C4FF0000C0B0E04BFD8
:1014C00009020CF1080C0B0F04BF09010CF1040C0C
:1014D0008B0F04BF89000CF1020CCB0F04BF490035
:1014E0000CF1010CCCF12003A0EB0C0022FA03F369
:1014F00002FA0CF241EA030100F10100704720F00A
:101500007F4C80EA030023F07F47ACEB070303F531
:101510007C5300F0004003F1FF032DE980494FEABE
:10152000154B09B44FEA144325EA0B4E24EA03484D
:101530000FF2042606EB132749083E785FEA3202D1
:1015400003FB0667C7F5000707FB06F64FEA5437AB
:101550004FEAD64606F1020607FB066CCCF1005CAA
:101560004FEA1C472CEA074C07FB06F40CFB06F578
:1015700004EB15464FEA961634BF00204FF00040AA
:101580004FEAD13706FB07FC4FEA1C4C0CFB0BF76C
:10159000D21B03FB0CF761EB07010CFB0EF7B0EB62
:1015A000074072EB17420CFB08F734BFA2EB07426F
:1015B000B2EB074261EB17414FEA0C444FEA910747
:1015C00006FB07FC4FEA1C4C0CFB0BF7B0EBC740CB
:1015D00072EB573203FB0CF734BFA2EBC742B2EBFE
:1015E000C74261EB57310CFB0EF7B0EBC70072EB53
:1015F00057720CFB08F734BFA2EBC702B2EBC7026D
:1016000061EB5771039F4FEA816141EA921104EB4C
:10161000CC044FEAD1374FEA826206FB07FC42EA6C
:1016200090124FEA80604FEA1C4C0CFB0BF7D21B68
:1016300003FB0CF761EB07010CFB0EF7B0EB074067
:1016400072EB17420CFB08F734BFA2EB0742B2EB78
:10165000074261EB17414FEA8C554FEA910704EBC3
:101660009C2406FB07FC4FEA1C4C0CFB0BF7B0EB71
:10167000C74072EB573203FB0CF734BFA2EBC742F3
:10168000B2EBC74261EB57310CFB0EF7B0EBC70072
:1016900072EB57720CFB08F734BFA2EBC702B2EB38
:1016A000C70261EB577115EB4C254FEA816141EAA6
:1016B00092114FEA82624FEAD13742EA901206FB5A
:1016C00007FC44F100044FEA80604FEA1C4C0CFB1D
:1016D0000BF7D21B03FB0CF761EB07010CFB0EF7BA
:1016E000B0EB074072EB17420CFB08F734BFA2EBDC
:1016F0000742B2EB074261EB174115EB1C154FEAAD
:10170000813141EA92414FEA823242EA90424FEA05
:1017100080304FEA0C7644F1000448EA03434EEA75
:101720000B484FF0000EB2EB080C71EB030724BF1F
:10173000624639464EEB0E0E4FF0000B0018524138
:1017400049414BEB0B0BB2EB080C71EB03077BF140
:10175000000B24BF624639464EEB0E0E4FF0000BD5
:101760000018524149414BEB0B0BB2EB080C71EBEB
:1017700003077BF1000B24BF624639464EEB0E0E89
:1017800051EA020718BF46F0010616EB0E7655F136
:10179000000254F1000103D5BDE88901BDE80088CD
:1017A000BDE88901BDE80048B619524141EB01018D
:1017B000A3F10103704780807F7E7D7C7B7A7978FE
:1017C000777676757473727171706F6E6E6D6C6C06
:1017D0006B6A6A69686867666665646463636261A8
:1017E0006160605F5F5E5E5D5D5C5C5B5B5A5A5929
:1017F0005958585757565655555554545353525295
:101800005251515050504F4F4F4E4E4D4D4D4C4CEC
:101810004C4B4B4B4A4A4A49494948484847474735
:101820004746464645454544444444434343434272
:10183000424242414141002B9C4630D477002BD09C
:101840001CB54FEA370703B44FF010004FF01001FA
:10185000BAF1000F06D0BCF1000FDCBF40F0080069
:1018600040F008014FF000000FBCBDE810400BF144
:10187000010BBBF1010F08BF5FEA170722BF12F18E
:10188000010211F101014FF0004143F1000300F0AA
:10189000004043EA00007047F9D35708D0E746EA12
:1018A000064613F1400F4FEA16461FDD13F1200FD5
:1018B000DFBF16430A46002120335B42BED0C3F18E
:1018C000200746EA064602FA07F74FEA164646EAB6
:1018D0000706C3F1200722FA03F201FA07F721FAFB
:1018E00003F14FF0000342EA0702A7E746EA0206C7
:1018F00046EA06464FEA164646EA0106BCBF46EAF5
:101900000646360C4FF000034FF000024FF0000186
:1019100094E72DE9804C9A46934670B491E83800DC
:1019200007C831EA400C48BF34EA430C03D5FFF73F
:10193000E6FDFFF780FFF0BCBDE8008C2DE9804C90
:101940009A46934670B491E8380007C810F0804F6B
:1019500008BF13F0804F03D100F005F8FFF76BFFCD
:10196000F0BCBDE8008C20F07F4780EA030023F044
:101970007F4C07EB0C03A3F57C5300F00040A3F170
:10198000FE0392F0000F00F0B38095F0000F00F01E
:1019900077802DE901494FEA11404FEA144621EAC8
:1019A000004800FB06FC24EA064708FB06F607FB96
:1019B00008F800FB07F718EB06484CEB164C4FEA0B
:1019C000124B18EB07484FEA15464CEB174022EA3A
:1019D0000B4E0BFB06FC25EA06470EFB06F607FB43
:1019E0000EFE0BFB07F71EEB064E4CEB164C4FF0B2
:1019F00000061EEB074E4CEB174B18EB0B0840F1A3
:101A0000000018EB0E0B58EB000840F100008F1A95
:101A10004FF000013CBFC943661B14BFB5EB040C7B
:101A200000213CBFC943F61B4FEA17444EEA8E0E15
:101A300027EA04454FEA1C4704FB07622CEA074CDF
:101A400005FB07F70CFB05F604FB0CFC16EB074641
:101A500042EB174216EB0C4642EB1C421BEB060610
:101A600058EB0202414146EA9E0601D5BDE80189D4
:101A7000B619524141EB0101A3F10103BDE801890F
:101A80004FEA14454FEA114724EA054621EA074C7C
:101A900005FB07F406FB07F70CFB06F105FB0CFC46
:101AA00011EB074144EB17444FEA124711EB0C418D
:101AB00044EB1C4422EA074C05FB07F206FB07F740
:101AC0000CFB06F605FB0CFC16EB074642EB174237
:101AD00016EB0C4642EB1C456A1854F1000148BF56
:101AE0007047B619524141EB0101A3F10103704760
:101AF00095F0000F37D04FEA11424FEA144721EA20
:101B0000024624EA074C02FB07F106FB07F70CFB31
:101B100006F402FB0CFC14EB074441EB17414FEABF
:101B2000154714EB0C4441EB1C4125EA074C02FB22
:101B300007F506FB07F70CFB06F602FB0CFC16EBA1
:101B4000074645EB174516EB0C4645EB1C421219B0
:101B500051F1000148BF7047B619524141EB0101F4
:101B6000A3F1010370474FEA14454FEA114724EAF5
:101B7000054621EA074C05FB07F106FB07F70CFBBE
:101B800006F24FF0000605FB0CFC12EB074241EB9E
:101B9000174112EB0C4251EB1C4148BF70479218A1
:101BA00041EB0101A3F101037047000010B50548A6
:101BB00001F04AF900F0E2FF002802D100F060FED7
:101BC000002010BDA8310008FEE7704772B6FEE79E
:101BD00070B5044600F00CF90546601C02D00448BC
:101BE0000078044400F004F9401BA042FAD370BD11
:101BF000000000202DE9F84FDFF8C0910024A9F182
:101C0000040B23464FF00F0809F1040AABF1040E50
:101C1000CCE00127A7403A40BA4272D1DFF8A0C118
:101C20004D68A5EB0C0665452BD00DDC032D34D09B
:101C300005DC35B3012D19D0022D2FD11BE0112D5C
:101C400016D0122D2AD119E0B6F5881F19D006DC5E
:101C5000B6F5803F15D0B6F5801F1FD111E0B6F55F
:101C6000001F0ED0B6F5041F18D10AE0CB6815E0AE
:101C7000CB681B1D12E0CB6808330FE0CB680C3338
:101C80000CE08B682BB1012B4FF0080303D04761A8
:101C900004E0042302E0076100E00023FF2A01D8EA
:101CA000064601E000F104064FEA840501D9A5F1DA
:101CB0002005376808FA05FC27EA0C0703FA05F542
:101CC00047EA050737604D68ED006ED53D4DAE69BA
:101CD00046F00106AE61AD6924F0030605F001058A
:101CE0000095394D7719BE68A5072D0F08FA05FC38
:101CF00026EA0C06DFF8D4C0604503D14FF0000C93
:101D000025E052E0DFF8C8C0604502D14FF0010C79
:101D10001DE0DFF8C0C0604502D14FF0020C16E0B4
:101D2000DFF8B4C0604502D14FF0030C0FE0DFF8DC
:101D3000ACC0604502D14FF0040C08E0DFF8A0C051
:101D4000604502D14FF0050C01E04FF0060C0CFA93
:101D500005FC4CEA060CC7F808C04D68D9F80060CD
:101D6000ED024D4601D5164300E096432E604D68C6
:101D7000DAF80060AD02554601D5164300E09643FF
:101D80002E604D68DBF80060AD035D4601D516435B
:101D900000E096432E604D68DEF80060ED03754666
:101DA00001D5164300E096432E60641C0A6832FA9F
:101DB00004F57FF42EAFBDE8F88F00000804014061
:101DC0000000111000100240000001400008014016
:101DD000000C0140001001400014014000180140B7
:101DE000001C01400AB1016170470904FBE70000D3
:101DF00001488068704700000000002002488168A8
:101E0000027811448160704700000020074810B537
:101E1000016841F010010160032000F067F80F2015
:101E200000F006F800F024F8002010BD0020024069
:101E300070B50D4D04464FF47A712878B1FBF0F07F
:101E40000A490968B1FBF0F000F0EBFB48B9102C2F
:101E500007D200222146501E00F028F800206C60B6
:101E600070BD012070BD0000000000200C000020AB
:101E70000C4808B5816941F001018161816901F077
:101E800001010091C16941F08051C161C0690649F9
:101E900000F080500090486820F0E06040F0007052
:101EA000486008BD0010024000000140F0B40E4B35
:101EB0001B68C3F30223C3F10704042C00D90424D4
:101EC0001D1D072D01D2002300E0DB1E012606FAAE
:101ED00004F56D1E0D409D409E40761E164045EA5D
:101EE0000601F0BC01F09FB80CED00E0064A00F0DE
:101EF000070110684FF6FF03184040EA012003492C
:101F000008431060704700000CED00E00000FA0587
:101F10002DE9F0470D46040067D0DFF81881D8F8A6
:101F2000000000F00700A8420CD2D8F8001021F001
:101F300007012943C8F80010D8F8000000F0070096
:101F4000A84252D120683C4E810712D5400703D5E4
:101F5000706840F4E06070602078000703D5706816
:101F600040F4605070607068A16820F0F000084391
:101F700070602078C00727D06068012810D03168D1
:101F8000022810D0890700292FDA716821F0030197
:101F900001437160FFF72CFF074641F288390CE0DE
:101FA00031688903EFE78901EDE7FFF721FFC11BE6
:101FB000494502D90320BDE8F0877068616800F0E8
:101FC0000C00B0EB810FF0D1D8F80010404601F0C2
:101FD0000701A9420BD9016821F0070129430160DB
:101FE000006800F00700A84201D00120E3E7207854
:101FF000400705D57068E16820F4E0600843706030
:102000002078000706D57068216920F4605040EA06
:10201000C100706000F018F87168084AC1F303113C
:10202000515CC8400649086006480068FFF700FF99
:102030000020C0E700200240001002409631000856
:102040000C000020040000200E4B59680E4801F0DF
:102050000C02042A11D0082A0FD10C48C1F3834284
:10206000C903805C0AD55968084AC1F34041921EF1
:10207000515C054A5043B0FBF1F0704704494843B6
:10208000704700000010024000127A0086310008FC
:1020900000093D002DE9F84F04006FD02078BE4DB7
:1020A000C00747D06868C0F38100012807D068687E
:1020B000C0F38100022809D16868C00306D52868EA
:1020C000800337D560680028E7D033E06068B0F55A
:1020D000803F0BD010B1B0F5A02F11D0286820F4AC
:1020E00080302860286820F4802002E0286840F4CE
:1020F00080302860606888B1FFF77AFE064609E004
:10210000286840F480202860F0E7FFF771FE801B0C
:10211000642873D828688003F7D50BE0FFF768FEC2
:10212000064604E0FFF764FE801B6428F1D82868A7
:102130008003F7D42078DFF8648280074FF0010A2B
:102140004FF0000939D5686810F00C0F07D06868A7
:10215000C0F38100022809D16868C00306D428684A
:10216000800714D52069012808D110E02069B0B19A
:10217000C8F800A0FFF73CFE064605E007E1FFF7C0
:1021800037FE801B0228C4D828688007F7D5286846
:10219000616920F0F80040EAC10028600DE0C8F84D
:1021A0000090FFF725FE064604E0FFF721FE801BA6
:1021B000022823D828688007F7D4207800072CD578
:1021C0007748A169D9B1C0F800A0FFF711FE064613
:1021D00004E0FFF70DFE801B02280FD8686A800715
:1021E000F7D570484FF4FA510068B0FBF1F0009059
:1021F00000BF0098411E0091FAD20EE07CE0C0F8CA
:102200000090FFF7F5FD064604E0FFF7F1FD801BA7
:10221000022871D8686A8007F7D4207840075BD518
:10222000E8690027C00008D4E86940F08050E86100
:10223000E869012700F0805000905B480168C905FB
:1022400011D40168834641F480710160FFF7D0FD2D
:10225000064604E0FFF7CCFD801B64284CD8DBF871
:102260000000C005F6D5E06801280AD008B10528AD
:1022700013D0286A20F001002862286A20F00400A8
:1022800002E0286A40F001002862E06841F2883BE1
:1022900088B1FFF7ADFD064609E0286A40F004006A
:1022A0002862EEE7FFF7A4FD811B59455BD8286A39
:1022B0008007F7D50BE0FFF79BFD064604E0FFF72C
:1022C00097FD811B59454ED8286A8007F7D41FB166
:1022D000E86920F08050E861E069A8B36968C1F35B
:1022E0008101022946D00228484606D0C8F860007D
:1022F000FFF77EFD044639E035E04746C8F8600048
:10230000FFF776FD064604E0FFF772FD801B02280A
:1023100029D828688001F7D4206AB0F5803F05D11C
:102320006868A16820F4003008436860D4E90801B7
:102330000843696821F4741108436860C7F860A015
:10234000FFF756FD044605E023E0FFF751FD001BB3
:10235000022808D828688001F7D51AE0FFF748FD61
:10236000001B022802D90320BDE8F88F28688001ED
:10237000F4D40EE00128F7D06868226A00F48031B6
:10238000914204D1616A00F47010884201D00120AA
:10239000EAE70020E8E700000010024000004242A7
:1023A000800442420C0000200070004070B5040020
:1023B00009D0606A002540B125616561A56294F885
:1023C000510040B10CE0012070BD6068B0F5827F23
:1023D000F4D0E561F2E784F85050204600F040F870
:1023E000022084F851002068016821F0400101605A
:1023F000A088218900F4827001F404410843A18976
:1024000001F400610843217C01F002010843217DB1
:1024100001F001010843218B01F400710843217F81
:1024200001F03801084394F8201001F080010843BE
:10243000218D01F40051084321680860A06904213E
:1024400001EA1040216848602068C16921F40061F8
:10245000C1616565012084F85100002070BD000055
:1024600000B585B0002100910191029103910068AF
:102470000F4988421AD10F48816941F48051816126
:10248000816901F480510491816941F00401816105
:102490008069694600F004000490A02000900220AA
:1024A0000190032003900448FFF7A4FB05B000BD92
:1024B0000030014000100240000801402DE9F84FB3
:1024C0001D4617468A460446FFF792FC064694F8D6
:1024D0005100012826D1BAF1000F77D0002F75D016
:1024E00094F8500001281DD04FF0010984F8509055
:1024F000032084F851004FF00008C4F85480C4F859
:1025000030A0A786E786C4F83880A4F83C80A4F8F9
:102510003E80C4F84480C4F84080A068B0F5004F05
:1025200003D00CE00220BDE8F88F2068016821F09C
:10253000400101602068016841F480410160206829
:102540000168490603D4016841F040010160E06878
:10255000B0F5006F606803D028B3012F23D03FE0AF
:1025600008B1012F1BD1206B21680088C86006E0EC
:1025700020688168890709D5216B0988C160206BB3
:10258000801C2063E08E401EE08608E0FFF730FCF0
:10259000801BA84202D3681C01D02FE075B3E08EE7
:1025A0000028E5D11FE0206B21680078087306E061
:1025B0002068816889070AD5216B09780173206B2F
:1025C000401C2063E08E401EE08609E027E0FFF714
:1025D0000FFC801BA84202D3681C01D00EE06DB135
:1025E000E08E0028E4D132462946204600F09FF8CC
:1025F00008B120206065A06830B109E084F85190EE
:1026000084F8508003208EE72068C16880680090BD
:1026100084F8519084F85080606D002883D00120A8
:1026200081E710B5401EB0F1807F01D3012010BDBD
:102630004FF0E02460610F21601700F0F4FC0020EF
:10264000A06107202061002010BDFEE72DE9F041C8
:1026500086B000241F480094019402940394816979
:1026600041F004018161816901F0040104918169F3
:1026700041F010018161816901F0100104918169CB
:1026800041F0080181618069134F00F00800049057
:10269000002230213846FFF7A5FBDFF840800022FA
:1026A00001214046FFF79EFB302001250226CDE99F
:1026B0000005CDE9024669463846FFF79BFA0396C6
:1026C0000095CDE9015469464046FFF793FA06B0FC
:1026D000BDE8F0810010024000100140000C0140F4
:1026E000104810B50E4901604FF48271416000211D
:1026F0008160C1604FF400720161C0E905120822D7
:10270000C0E90721416281620A21C162FFF74EFEE2
:10271000002803D0BDE81040FFF758BA10BD0000F4
:102720000030014020000020FEE7FEE77047F8B5CA
:1027300015460E460B46009204460122022100F087
:1027400011F840B93346002280212046009500F060
:1027500009F8002804D0606D40F020006065032077
:10276000F8BD00002DE9F8431E4691468846044610
:10277000089DFFF73DFB401B351AFFF739FB074665
:1027800025480068C0F3CB30684338E0701C37D070
:10279000FFF72EFBC01BA84203D215B1009860B30F
:1027A0002CE02068416821F0E00141606068B0F5EC
:1027B000827F0BD1A068B0F5004F02D0B0F5806FDA
:1027C00004D12068016821F040010160A06AB0F5E1
:1027D000005F09D12068016821F400510160206880
:1027E000016841F400510160012084F8510000208B
:1027F00084F850000320BDE8F8830025401E0090B7
:102800002068816838EA010004D000204845BDD125
:102810000020F0E70120F9E70C0000207047FFF7E7
:10282000EDBA30B58FB028216846FDF789FE142136
:102830000AA8FDF785FE0120010400248DE813009D
:1028400004904FF4E010CDE9081002250795684682
:10285000FFF720FC08B172B6FEE70F20CDE90A05AC
:102860004FF48060CDE90C4002210AA80E94FFF7D6
:102870004FFB002801D072B6FEE70FB030BD7047A5
:10288000094908B5097800290CD00090064808309D
:1028900081884088491E8BB2401E82B200210846C2
:1028A00000F050F908BD0000100000202DE9FF5F86
:1028B00082466B4889460E99007898464042084205
:1028C0007DD0002A7BD016B200257042032101EB97
:1028D00040000FFA80FBBEE00E98012874D0401C27
:1028E000470809EB0600C01B0E9C81B201900AEB61
:1028F0000500641EC01B0290CDF80080A3B2A2B2F6
:1029000080B200F01FF90198A3B281B2AAEB0500D2
:10291000C01B0190A2B2CDF8008080B200F012F985
:10292000A9EB0600C01B81B203900298A3B2A2B229
:10293000CDF8008080B200F005F90398A3B281B20F
:102940000198A2B2CDF8008080B200F0FBF809EB4C
:102950000500C01B81B202900AEB0600C01BCDE946
:102960000080A3B2A2B280B200F0ECF80298A3B249
:1029700081B2AAEB0600C01B0290A2B2CDF8008083
:1029800080B200F0DFF8A9EB0500C71B0198A3B2E5
:10299000A2B2B9B2CDF8008080B200F0D3F80298AC
:1029A000A3B2A2B2B9B2CDF8008080B200F0CAF8EA
:1029B000BBF1000F45DA0BEB8500801D01E04DE017
:1029C00002E00FFA80FB44E009EB06040AEB05077E
:1029D000A1B2B8B2424600F0A3F8AAEB05000090FD
:1029E000A1B280B2424600F09BF8A9EB0604A1B266
:1029F000B8B2424600F094F80098A1B280B24246C4
:102A000000F08EF809EB05040AEB0607A1B2B8B294
:102A1000424600F085F8AAEB06000090A1B280B211
:102A2000424600F07DF8A9EB0504A1B2B8B24246D7
:102A300000F076F80098A1B280B2424600F070F83B
:102A4000B6E7A91B0BEB81000A30761E0FFA80FB5C
:102A500036B26D1C2DB2B5427FF73EAFBDE8FF9F89
:102A6000100000202DE9FE4F91462C4A0D9F9846FC
:102A7000127852423A424FD0814502D9A9EB000266
:102A800001E0A0EB09020FFA82FB884502D9A8EB0E
:102A9000010201E0A1EB08020FFA82FA4FF0FF32C7
:102AA000484501D2012300E013460293414500D27C
:102AB00001220192ABEB0A0216B205B20CB2012F51
:102AC00024D00C990091791E78088BB28AB2211A11
:102AD000281A89B280B200F035F84D4501D144453D
:102AE0001AD0700000B2CAF10001884205DDA6EBE1
:102AF0000A010EB2029929440DB25845DFDA06EBFD
:102B00000B0006B20198204404B2D8E7A1B2A8B2E3
:102B10000C9A00F005F8E0E7BDE8FE8F10000020F9
:102B200010B51446064A1278002A08D00B46024611
:102B300000F03CFA2046BDE8104000F02DBA10BD70
:102B40001000002070B515460B4A049E1C461278F2
:102B5000002A10D00A1993B2421992B200F026FA54
:102B6000641C6D1C6543002403E0304600F014FA39
:102B7000641CAC42F9D370BD1000002010B500F009
:102B80009FF900287ED1814C6068006880476068AA
:102B900041690020884760688168642088476068D0
:102BA0004169012088476068816878208847112042
:102BB00000F0ECF96068816878208847362000F0E2
:102BC000E5F9C02000F0E5F93A2000F0DFF9052032
:102BD00000F0DFF9B12000F0D9F9052000F0D9F9B3
:102BE0003C2000F0D6F93C2000F0D3F9B22000F0F0
:102BF000CDF9052000F0CDF93C2000F0CAF93C20C9
:102C000000F0C7F9B32000F0C1F9052000F0C1F9C8
:102C10003C2000F0BEF93C2000F0BBF9052000F09C
:102C2000B8F93C2000F0B5F93C2000F0B2F9B4202E
:102C300000F0ACF9032000F0ACF9C02000F0A6F9D8
:102C40002E2000F0A6F9062000F0A3F9042000F0E1
:102C5000A0F9C12000F09AF9C02000F09AF9C22032
:102C600000F097F9C22000F091F90D2000F091F9E1
:102C70000D2000F08EF9C32000F088F98D2000F0BF
:102C800088F900E081E0EE2000F083F9C42000F034
:102C90007DF98D2000F07DF9EE2000F07AF9C52055
:102CA00000F074F9002000F074F9E02000F06EF9F3
:102CB0001B2000F06EF9212000F06BF9102000F0CD
:102CC00068F9152000F065F92B2000F062F9252045
:102CD00000F05FF91F2000F05CF9232000F059F9A3
:102CE000222000F056F9222000F053F92B2000F0AA
:102CF00050F9372000F04DF9002000F04AF9152076
:102D000000F047F9022000F044F93F2000F041F9BB
:102D1000E12000F03BF91A2000F03BF9202000F000
:102D200038F90F2000F035F9152000F032F92A208B
:102D300000F02FF9252000F02CF91E2000F029F9D1
:102D4000232000F026F9232000F023F9222000F0B0
:102D500020F92B2000F01DF9372000F01AF900208F
:102D600000F017F9152000F014F9022000F011F915
:102D70003F2000F00EF9292000F008F96068816911
:102D80000120884701202070002010BD1000002085
:102D90000FB42DE9F04F80462A48C1B00D460078A7
:102DA0004D9A4042104206D14FF0FF3041B0BDE88D
:102DB000F00F5DF814FB4EAB4FF4807101A8FDF7E6
:102DC0007BFAB0F1000BF1DD012744464FF0050A14
:102DD0004FF00809002624E001A8805D0A2824D0CD
:102DE0000D2828D0092828D0164A04EB0A010832F9
:102DF0005388994204D309EB0701294444468DB214
:102E0000928805EB090191420DD2009000232946DA
:102E100020464C9A00F020F80AEB0700204484B2C8
:102E2000761C5E45D8DB5846C0E709EB070028440E
:102E3000444685B2F4E74446F2E70AEB070004EBA8
:102E40008000ECE710000020002801D00149486014
:102E500070470000100000202DE9F0479946164BFE
:102E60009246089A1B78002B24D0203A5F2A21D260
:102E7000D2B2124B02EB820202EB0308CA1D93B2DC
:102E8000021D92B200F092F80025802718F8056024
:102E9000002427FA04F0304201D0504600E04846B2
:102EA00000F07AF8641CE4B2052CF2D36D1CEDB28C
:102EB000082DEBD3BDE8F08710000020C4310008D6
:102EC0000C48406878B1016881B1416871B181688E
:102ED00061B1C16851B1016941B1416931B18069E4
:102EE00020B1002070474FF0FF3070476FF00100B5
:102EF0007047000010000020FEE7FEF769BE704733
:102F000001B54FF0FF33012269460248FFF7D6FAB8
:102F100008BD0000200000207047000008B1012219
:102F200000E0002201210148FEF75CBF000C0140D7
:102F300008B1012200E0002220210148FEF752BF23
:102F40000010014008B1012200E0002210210148D8
:102F5000FEF748BF0010014070B50B4C0546606895
:102F6000002810D0C26808469047606801690020B8
:102F70008847606841682846884760680169BDE8FD
:102F800070400120084770BD100000200021FFF7AD
:102F9000E3BF0121FFF7E0BF10B50446000AFFF7C9
:102FA000F8FFE0B2BDE81040FFF7F3BF2DE9F041B4
:102FB00007461C4616460D462A20FFF7E7FF00206D
:102FC000FFF7E7FFF8B2FFF7E4FF0020FFF7E1FFAC
:102FD000F0B2FFF7DEFF2B20FFF7D8FF0020FFF74E
:102FE000D8FFE8B2FFF7D5FF0020FFF7D2FFE0B22D
:102FF000FFF7CFFFBDE8F0412C20FFF7C7BF490026
:1030000050EAC12018BF04204A0D18BF40F001004B
:1030100040F2FF72B2EB515F08BF40F0020001289E
:1030200008BF052070470907090E002804DB00F1DE
:10303000E02080F80014704700F00F0000F1E0205D
:1030400080F8141D704730380A2801D201207047DB
:10305000002070471CB5FEF7D9FEFFF7E2FBFFF733
:10306000F5FAFFF73DFBFEF7A1FD5020002100908F
:103070001AA34FF6FF720846FFF78AFE1B4900208D
:103080004FF47845CDE9000119A32A460A21FFF73C
:103090007FFE7B204FF4FC6400901BA3224614218A
:1030A0000020FFF775FE4AF6CD3000901AA31F22CC
:1030B0001E210020FFF76CFE032000902B461E22ED
:1030C00050214020FFF7F2FB0220CDE9004096237B
:1030D000762219460A20FFF7C5FCFEE768656C6C8E
:1030E0006F20776F726C642C20256400008039405B
:1030F00054656D70657261747572653A20252E3164
:1031000066C2B04300000000436F756E7465723A8A
:1031100020253034640000004865783A2030782556
:103120003034580010B500290AD00878002807D09C
:1031300005487844FEF72AF9002801D0002010BD88
:103140000248784410BD00008A030000820300009A
:1031500010B500290AD00878002807D0054878441F
:10316000FEF714F9002801D0002010BD0248784471
:1031700010BD00007A03000072030000FDF713BDCC
:10318000FDF748BE010202030405060708090A0B01
:103190000C0D0E0F101000000000000000000102D6
:1031A0000304060708090000FF2E0008012F00088D
:1031B000FB2E0008312F00081D2F0008452F0008A6
:1031C000192F000800000000003E5B4F5B3E3E6B85
:1031D0004F6B3E1C3A7E3A1C183C7E3C181C577EB6
:1031E000571C1C5E7E5E1C00183C1800081C3E1C10
:1031F00008203C7E3C201C0808081C08083E0808E3
:1032000000C0E0000008080808080000C0C0006016
:1032100030180C063E5149453E00427F400072493D
:103220004949462141494D331814127F102745451D
:1032300045393C4A49493141211109073649494933
:1032400036464949291E00001400000040340000A1
:10325000000814224114141414140041221408020A
:10326000015909063E415D551E7E1111117E7F49AF
:103270004949333E414141227F4141413E7F4949D5
:1032800049417F090909013E4149497A7F080808F7
:103290007F00417F41002040413F017F08142241CF
:1032A0007F404040407F020C027F7F0408107F3E39
:1032B0004141413E7F090909063E4151215E7F0996
:1032C000192946264949493203017F01033F4040FD
:1032D000403F1F2040201F3F4038403F63140814E8
:1032E0006303047804036159494D43007F41410061
:1032F00055AA55AA550041417F000402010204402D
:1033000040404040000102040020545454787F5053
:103310004848303048484820304848507F3054545E
:103320005418087E0901020C5454543C7F080404CC
:103330007800447D40002040443D007F1028440038
:1033400000417F4000780418047878040404783041
:103350004848483078141414080814141478780471
:103360000404084854545420043F4440203C404046
:10337000207C1C2040201C3C4030403C442810282D
:10338000440C5050503C4464544C440008364100B6
:1033900000007F00000041360800100808100804F3
:1033A0000000080000000000000002000100001002
:1033B0000000000000000000303132333435363771
:1033C0003839414243444546403058003031323369
:1033D0003435363738396162636465664030780069
:1033E000303132333435363738396162636465667B
:1033F0007870003031323334353637383941424312
:10340000444546585000000002400000000000A063
:103410000000000005400000000000C8000000009F
:103420000C4000000000409C00000000194000001B
:103430000020BCBE0000000034400000BFC91B8E4D
:1034400000000004B5400000504BCFD06607E2CF2B
:10345000010000006C4100003E8251AADFEEA7345B
:1034600001000000D9420000DCB5A0E23A301F970D
:10347000FFFFFFFFB4450000FD25A0C8E9A3C14F31
:10348000FFFFFFFFFF3F0000000000800000000082
:10349000FF3F00000000008000000000E835000849
:1034A00000000020200000006C0100080836000821
:1034B00020000020B8060000880100081C00000061
:1034C00043000000F8FFFFFF0C0000000E000000AA
:1034D0000F0000002E00000010010000430000005B
:1034E000F8FFFFFF00404040404040404040414125
:1034F00041414140404040404040404040404040C9
:103500004040404040050202020202020202020262
:10351000020202020220202020202020202020025F
:1035200002020202020290909090909010101010EF
:10353000101010101010101010101010101010108B
:10354000020202020202888888888888080808081F
:1035500008080808080808080808080808080808EB
:103560000202020240000000000000000000000013
:10357000000000000000000000000000000000004B
:10358000000000000000000000000000000000003B
:10359000000000000000000000000000000000002B
:1035A000000000000000000000000000000000001B
:1035B000000000000000000000000000000000000B
:1035C00000000000000000000000000000000000FB
:1035D00000000000000000000000000000000000EB
:1035E00000000000000000000100000010000000CA
:1035F0000000000000127A0000000000000000003F
:0836000000008000A0000000A2
:0400000508000131BD
:00000001FF
